:020000040800F2
:100000007005002025010008850100088501000811
:100010008501000885010008850100080000000036
:100020000000000000000000000000008501000842
:10003000850100080000000085010008090700088C
:100040008501000885010008850100088501000878
:100050008501000885010008850100088501000868
:100060008501000885010008850100088501000858
:100070008501000885010008850100088501000848
:1000800085010008850100088501000800000000C6
:1000900000000000000000000000000085010008D2
:1000A0008501000885010008850100088501000818
:1000B0008501000885010008850100088501000808
:1000C00085010008850100088501000885010008F8
:1000D00085010008890700088501000885010008DE
:1000E0008501000885010008850100080000000066
:1000F0000000000000000000000000000000000000
:1001000000000000000000000000000000000000EF
:1001100000000000000000008501000885010008C3
:100120005FF808F180B582B000AF114B7B60114BD6
:100130003B6007E03B681A1D3A607A68111D7960E0
:1001400012681A603B680C4A9342F3D30B480C497F
:100150004FF000028842B8BF40F8042BFADB00F0F1
:10016000C5F801F0F5F900BF0837BD4680BD00BFF6
:10017000901E0008000000203C0000203C000020F1
:100180007001002080B400AFFEE780B500AF102002
:1001900001F0B0FC022001F091FC00BF80BD000026
:1001A00080B485B000AF0E4BFB600E4BBB600023EC
:1001B000FB800CE0FB681A68BB681A60FB680433BC
:1001C000FB60BB680433BB60FB880133FB80FB88AA
:1001D000042BEFD900BF1437BD4680BC704700BF69
:1001E00000FC00085C01002080B584B000AF01F085
:1001F00099FC114801F0B6FC104BFB600E4BBB6044
:100200000023FB800FE0BA68FB681B6819461046A4
:1002100001F0DAFCFB680433FB60BB680433BB60AD
:10022000FB880133FB80FB88042BECD901F08CFCAC
:1002300000BF1037BD4680BD00FC00085C010020F7
:1002400080B500AFFFF7A1FFFFF7AAFF0C4B1B889B
:100250001A460C4B1A600C4B1B680A4A53600B4B36
:100260001B68084A93600A4B1B68064AD360094B17
:100270001B68044A1361FFF7B7FF00BF80BD00BFD2
:10028000980000205C0100209C000020A0000020BD
:10029000A4000020A800002080B500AFFFF775FF84
:1002A000FFF77EFF0B4B1B689AB20B4B1A80094B72
:1002B0005B680A4A1360074B9B68094A1360054B49
:1002C000DB68084A1360034B1B69074A136000BFD1
:1002D00080BD00BF5C010020980000209C00002031
:1002E000A0000020A4000020A800002080B500AFDE
:1002F000174A174B1B6843F0010313601449144B52
:100300005A68144B13404B60114A114B1B6823F081
:10031000847323F4803313600D4A0D4B1B6823F460
:10032000802313600A4A0A4B5B6823F4FE03536080
:10033000074B4FF41F029A60054B0022DA6200F06F
:100340000DF8054B4FF000629A6000BF80BD00BF02
:10035000001002400000FFF800ED00E080B500AFA3
:1003600000F002F800BF80BD80B483B000AF00236E
:100370007B6000233B60304A2F4B1B6843F4803383
:1003800013602D4B1B6803F400333B607B68013323
:100390007B603B68002B03D17B68B3F5A06FF0D185
:1003A000254B1B6803F40033002B02D001233B6074
:1003B00001E000233B603B68012B37D11E4A1E4BF6
:1003C0005B6853601C4A1C4B5B6853601A4A1A4BAB
:1003D0005B685360184A184B5B6823F47C135360C6
:1003E000154A154B5B6843F498135360124A124B3D
:1003F0001B6843F08073136000BF0F4B1B6803F052
:100400000073002BF9D00C4A0B4B5B6823F00303FD
:100410005360094A084B5B6843F00203536000BF16
:10042000054B5B6803F00C03082BF9D100BF0C37B8
:10043000BD4680BC704700BF0010024080B489B048
:1004400000AF786039600023FB6100233B6100232B
:10045000BB610023FB6000237B610023BB603B6822
:10046000DB7803F00F03FB613B68DB7803F01003DC
:10047000002B05D03B689B781A46FB691343FB6150
:100480003B681B88DBB2002B44D07B681B687B6118
:100490000023BB6138E00122BB6902FA03F3FB6071
:1004A0003B681B881A46FB6813403B613A69FB684E
:1004B0009A4226D1BB699B00FB600F22FB6802FABF
:1004C00003F3BB60BB68DB437A6913407B61FA6965
:1004D000FB6802FA03F37A6913437B613B68DB78BC
:1004E000282B05D10122BB699A407B685A6108E03C
:1004F0003B68DB78482B04D10122BB699A407B68BA
:100500001A61BB690133BB61BB69072BC3D97B6827
:100510007A691A603B681B88FF2B46D97B685B6849
:100520007B610023BB613AE0BB690833012202FA18
:1005300003F3FB603B681B881A46FB6813403B6172
:100540003A69FB689A4227D1BB699B00FB600F2286
:10055000FB6802FA03F3BB60BB68DB437A691340B4
:100560007B61FA69FB6802FA03F37A6913437B61E2
:100570003B68DB78282B05D1BB69083301229A4000
:100580007B685A613B68DB78482B05D1BB6908332F
:1005900001229A407B681A61BB690133BB61BB6968
:1005A000072BC1D97B687A695A6000BF2437BD46E2
:1005B00080BC704780B483B000AF78600B467B800E
:1005C0007A887B681A6100BF0C37BD4680BC7047D3
:1005D00080B483B000AF78600B467B807A887B68FC
:1005E0005A6100BF0C37BD4680BC704780B483B0F1
:1005F00000AF78600B467B8013467B707B78002BC6
:1006000003D07A887B681A6102E07A887B685A6135
:1006100000BF0C37BD4680BC7047000080B483B07B
:1006200000AF03463960FB7197F90730002B0BDAF6
:100630000D49FB7903F00F03043B3A68D2B2120173
:10064000D2B20B441A7609E0084997F907303A68A4
:10065000D2B21201D2B20B4483F8002300BF0C3790
:10066000BD4680BC704700BF00ED00E000E100E047
:1006700080B582B000AF78607B68B3F1807F01D332
:10068000012311E00A4A7B6823F07F43013B53605A
:100690000F214FF0FF30FFF7C1FF054B00229A609A
:1006A000034B07221A60002318460837BD4680BD59
:1006B00010E000E080B582B000AF0121042001F01D
:1006C0000DF80121102001F009F8FF23BB80102351
:1006D000FB710323BB713B1D19460948FFF7AEFEB2
:1006E0004FF44073BB801023FB710323BB713B1D90
:1006F00019460448FFF7A2FE00BF0837BD4680BD7B
:10070000000801400010014080B500AF1B4B1B6882
:1007100001331A4A1360194B1B68B3F5FA7F2BDDBE
:10072000164B00221A60164B1B78002B0CBF0123BE
:100730000023DBB21A46124B1A70114B1B78002BA8
:100740000ED04FF480710F48FFF734FF4FF4007163
:100750000C48FFF73DFF00F075FE00F063F80BE07A
:100760004FF480710748FFF733FF4FF400710548DD
:10077000FFF720FF00F070FE00BF80BD3C000020AE
:10078000400000200010014080B582B000AF214B36
:100790001B889BB203F02003002B27D01D4801F0DB
:1007A000ECF80346FB71FB790A2B05D03A2B09D1F3
:1007B000194B00221A7019E000F0CEF8164B0022F7
:1007C0001A7013E0144B1B78DBB24F2B0DD8124B71
:1007D0001B78DBB21946114AFB7953540E4B1B7838
:1007E000DBB20133DAB20C4B1A7000BF40F2266163
:1007F000084801F0ECF80346002B02D0084B002219
:100800001A7040F22661034801F03BF900BF083737
:10081000BD4680BD00380140B5000020B800002072
:100820000801002080B582B000AF00F063FE0346EF
:10083000FB7100F066FE0346BB71FB79002B02D012
:1008400000F014FE01E000F01BFEBB79002B02D08B
:100850003C4B01221A603B4B1B68032B6AD801A258
:1008600052F823F07508000887080008BB08000844
:1008700005090008344B00221A6000F0AFFA314B32
:1008800002221A605AE0BB79002B03D12D4B0022C3
:100890001A6053E02D4B1B881A462B4B1B689A425B
:1008A00005DD294B1B680133274A136046E000F041
:1008B00015FB254B00221A6040E0012000F0FEFDF0
:1008C000214B1B68214A128893FBF2F102FB01F2D3
:1008D0009B1A002B01D100F001FB1B4B1B681A4631
:1008E0001B4B1B689A4207D3174B00221A6000F07B
:1008F000B5FA144B03221A60134B1B680133124ADA
:1009000013601BE0002000F0D9FD0F4B1B681A4656
:10091000104B1B689A4207D30B4B00221A6000F061
:100920005DFA084B02221A60074B1B680133064A26
:10093000136003E0034B00221A6000BF00BF0837BA
:10094000BD4680BDB0000020AC0000209800002013
:100950009C000020A000002080B584B000AF0023E0
:10096000FB602F4B1B78DBB2002B51D02C4B1B783C
:10097000DBB203F00103DBB2002B4BD10023BB60E1
:100980000023FB6019E0274AFB6813441B78D8B2A8
:10099000FB680133234AD35CDBB2194600F0E4FA6A
:1009A000034619461F4ABB6813440A461A70BB68BF
:1009B0000133BB60FB680233FB60194B1B78DBB271
:1009C0001A46FB689A42DEDCBB68DAB2144B1A7036
:1009D000144B7B607B68DB78FB70FB78032B1BD8A8
:1009E00001A252F823F000BF0B0A0008F909000821
:1009F000FF090008050A000800F016F80DE000F0F5
:100A000089F80AE000F072F907E000F015F904E057
:100A100000BF02E000BF00E000BF1037BD4680BD50
:100A2000B5000020B800002080B58CB000AF0023D6
:100A3000FB622F4BBB6206212D4800F05FFC034692
:100A4000FB84BB6ADB889BB2FA8C9A424AD100F0E5
:100A500092FC034687F82530BB6A9B7897F82520DF
:100A60009A4241D1BB6A1B889BB2BB80BB6A9B7810
:100A7000BB71BB6ADB78FB71BB6A9B889BB23B8115
:100A80001C4B1B68C7F80A301B4B1B88FB811B4B98
:100A90001B683B611A4B1B687B611A4B1B68BB616F
:100AA000194B1B68FB613B1D1C21184600F026FCFE
:100AB00003463B840023FB620BE03A1DFB6A1344B0
:100AC0001978124AFB6A13440A461A70FB6A01330A
:100AD000FB62FB6A1D2BF0D90D4B1E221A7000F031
:100AE00077FC02E000BF00E000BF3037BD4680BDAC
:100AF000B800002094000020980000209C000020F6
:100B0000A0000020A4000020A80000200C0100206C
:100B10000801002080B58CB000AF0023FB623D4B84
:100B2000BB621C213B4800F0E9FB0346FB84BB6A27
:100B30009B8B9BB2FA8C9A4266D100F01CFC034658
:100B400087F82530BB6A9B7897F825209A425DD1BB
:100B5000BB6AD3F80630304A1360BB6A5B899AB22D
:100B60002E4B1A80BB6ADB682D4A1360BB6A1B6977
:100B70002C4A1360BB6A5B692B4A1360BB6A9B6992
:100B80002A4A1360FFF75CFBBB6A1B889BB2BB80E1
:100B9000BB6A9B78BB71BB6ADB78FB71BB6A9B88C5
:100BA0009BB23B811C4B1B68C7F80A301B4B1B8850
:100BB000FB811B4B1B683B611A4B1B687B611A4B0B
:100BC0001B68BB61194B1B68FB613B1D1C21184650
:100BD00000F094FB03463B840023FB620BE03A1DCC
:100BE000FB6A13441978124AFB6A13440A461A70C6
:100BF000FB6A0133FB62FB6A1D2BF0D90D4B1E22F1
:100C00001A7000F0E5FB02E000BF00E000BF3037E3
:100C1000BD4680BDB8000020940000209800002050
:100C20009C000020A0000020A4000020A8000020BC
:100C30000C0100200801002080B586B000AF002321
:100C40007B61274B3B610821254800F057FB034699
:100C5000FB813B691B899BB2FA899A4239D100F02A
:100C60008AFB03467B733B699B787A7B9A4232D13D
:100C70003B691B889BB23B803B699B78BB703B699F
:100C8000DB78FB703B699B889BB2BB803B69DB8850
:100C90009BB2FB803B460821184600F02FFB034621
:100CA0003B8100237B610BE03A467B691344197852
:100CB0000C4A7B6913440A461A707B6901337B61D5
:100CC0007B69092BF0D9084B0A221A7000F080FBCF
:100CD00002E000BF00E000BF1837BD4680BD00BF86
:100CE000B80000200C0100200801002080B586B06B
:100CF00000AF00237B61304B3B6108212E4800F0A0
:100D0000FDFA0346FB813B691B899BB2FA899A4233
:100D10004BD100F030FB03467B733B699B787A7BB9
:100D20009A4244D1254B05221A80254B0A221A608B
:100D3000244B14221A60244B00221A60234B0022F9
:100D40001A60FFF77DFA224B00221A603B691B886C
:100D50009BB23B803B699B78BB703B69DB78FB7047
:100D60003B699B889BB2BB800023FB803B460821EC
:100D7000184600F0C3FA03463B8100237B610BE079
:100D80003A467B6913441978124A7B6913440A4630
:100D90001A707B6901337B617B69092BF0D90E4B9B
:100DA0000A221A7000F014FB02E000BF00E000BF4E
:100DB0001837BD4680BD00BFB80000209800002055
:100DC0009C000020A0000020A4000020A80000201B
:100DD000B00000200C0100200801002080B500AF09
:100DE0001D4B5A781C4B9B785340DAB21A4BDB7878
:100DF0005340DAB2184B1B795340DAB2164B5B7989
:100E00005340DAB2144B9A7100F0BCFAFF2000F0A4
:100E1000C5FA114B5B78184600F0C0FA0E4B9B7870
:100E2000184600F0BBFA0C4BDB78184600F0B6FA17
:100E3000094B1B79184600F0B1FA074B5B7918464D
:100E400000F0ACFA044B9B79184600F0A7FA00F0CA
:100E50009FFA00BF80BD00BF1400002080B500AF26
:100E60001D4B5A781C4B9B785340DAB21A4BDB78F7
:100E70005340DAB2184B1B795340DAB2164B5B7908
:100E80005340DAB2144B9A7100F07CFAFF2000F064
:100E900085FA114B5B78184600F080FA0E4B9B7870
:100EA000184600F07BFA0C4BDB78184600F076FA17
:100EB000094B1B79184600F071FA074B5B7918460D
:100EC00000F06CFA044B9B79184600F067FA00F0CA
:100ED0005FFA00BF80BD00BF1400002080B500AFE6
:100EE00000F0D8FAC82000F013FB00F0DDFA1D4B2B
:100EF0005A781C4B9B785340DAB21A4BDB7853403C
:100F0000DAB2184B1B795340DAB2164B5B79534077
:100F1000DAB2144B9A7100F035FAFF2000F03EFA75
:100F2000104B5B78184600F039FA0E4B9B78184648
:100F300000F034FA0B4BDB78184600F02FFA094B1F
:100F40001B79184600F02AFA064B5B79184600F028
:100F500025FA044B9B79184600F020FA00F018FAA5
:100F600000BF80BD1400002080B485B000AF0346F0
:100F70000A46FB711346BB710023FB730023BB734E
:100F8000FB79303B162B61D801A252F823F000BF49
:100F9000ED0F0008F30F0008F90F0008FF0F00081D
:100FA000051000080B1000081110000817100008A9
:100FB0001D100008231000084D1000084D100008F7
:100FC0004D1000084D1000084D1000084D1000088D
:100FD0004D100008291000082F10000835100008D7
:100FE0003B10000841100008471000080023FB7365
:100FF0002DE00123FB732AE00223FB7327E0032388
:10100000FB7324E00423FB7321E00523FB731EE044
:101010000623FB731BE00723FB7318E00823FB7315
:1010200015E00923FB7312E00A23FB730FE00B2387
:10103000FB730CE00C23FB7309E00D23FB7306E04C
:101040000E23FB7303E00F23FB7300E000BFBB79AB
:10105000303B162B60D801A252F823F0B9100008DB
:10106000BF100008C5100008CB100008D110000800
:10107000D7100008DD100008E3100008E910000890
:10108000EF100008191100081911000819110008C3
:101090001911000819110008191100081911000888
:1010A000F5100008FB1000080111000807110008E6
:1010B0000D110008131100080023BB732DE001235C
:1010C000BB732AE00223BB7327E00323BB7324E036
:1010D0000423BB7321E00523BB731EE00623BB730F
:1010E0001BE00723BB7318E00823BB7315E009233B
:1010F000BB7312E00A23BB730FE00B23BB730CE03E
:101100000C23BB7309E00D23BB7306E00E23BB73F6
:1011100003E00F23BB7300E000BFFB7B1B015AB24F
:1011200097F90E3013435BB27B737B7B1846143701
:10113000BD4680BC704700BF80B487B000AF034697
:10114000B9607A60FB73FB7B1B09FB75FB7B03F0CB
:101150000F03BB75FB7D0F2B62D801A252F823F061
:10116000A1110008A9110008B1110008B911000867
:10117000C1110008C9110008D1110008D9110008D7
:10118000E1110008E9110008F1110008F911000847
:1011900001120008091200081112000819120008B3
:1011A000BB6830221A703CE0BB6831221A7038E00C
:1011B000BB6832221A7034E0BB6833221A7030E008
:1011C000BB6834221A702CE0BB6835221A7028E004
:1011D000BB6836221A7024E0BB6837221A7020E000
:1011E000BB6838221A701CE0BB6839221A7018E0FC
:1011F000BB6841221A7014E0BB6842221A7010E0EA
:10120000BB6843221A700CE0BB6844221A7008E0E5
:10121000BB6845221A7004E0BB6846221A7000E0E1
:1012200000BFBB7D0F2B63D801A252F823F000BF93
:101230007112000879120008811200088912000852
:101240009112000899120008A1120008A9120008C2
:10125000B1120008B9120008C1120008C912000832
:10126000D1120008D9120008E1120008E9120008A2
:101270007B6830221A703CE07B6831221A7038E0BB
:101280007B6832221A7034E07B6833221A7030E0B7
:101290007B6834221A702CE07B6835221A7028E0B3
:1012A0007B6836221A7024E07B6837221A7020E0AF
:1012B0007B6838221A701CE07B6839221A7018E0AB
:1012C0007B6841221A7014E07B6842221A7010E099
:1012D0007B6843221A700CE07B6844221A7008E095
:1012E0007B6845221A7004E07B6846221A7000E091
:1012F00000BF00BF1C37BD4680BC704780B485B0BE
:1013000000AF78600B46FB700023FB604FF6FF7365
:101310007B8125E07B685A1C7A601B789BB21B029C
:101320003B817A893B8953407B810023FB6014E039
:10133000B7F90A30002B09DA7B895B001BB283F412
:10134000815383F001031BB29BB202E07B895B00F7
:101350009BB27B81FB680133FB60FB68072BE7DDF9
:10136000FB785A1EFA70002BD4D17B8918461437AB
:10137000BD4680BC704780B400AF00231846BD4610
:1013800080BC704780B400AF00BFBD4680BC7047D2
:1013900080B400AF00BFBD4680BC704780B582B04E
:1013A00000AF0346FB7100BF8021084800F0F4FA4B
:1013B0000346002BF8D0FB799BB21946034800F096
:1013C000CBFA00BF0837BD4680BD00BF00380140E2
:1013D00080B582B000AF00237B600023FB70002348
:1013E000BB70FFF7CFFF3A20FFF7D8FF00237B60E9
:1013F00014E0124A7B6813441B78DBB2BA1CF91C58
:101400001846FFF799FEFB781846FFF7C7FFBB7831
:101410001846FFF7C3FF7B6801337B60084B1B78DE
:10142000DBB21A467B689A42E3DC0D20FFF7B6FF79
:10143000FFF7AEFF00BF0837BD4680BD0C0100209E
:101440000801002080B500AF01210248FFF7B2F883
:1014500000BF80BD0008014080B500AF01210248F7
:10146000FFF7B6F800BF80BD0008014080B500AFAF
:1014700002210248FFF79EF800BF80BD000801402E
:1014800080B500AF02210248FFF7A2F800BF80BD7F
:101490000008014080B500AF04210248FFF78AF838
:1014A00000BF80BD0008014080B500AF04210248A4
:1014B000FFF78EF800BF80BD0008014080B582B004
:1014C00000AF0346FB71FB791A4640210848FFF73D
:1014D0008DF8FB79002B0CBF01230023DBB21A46E9
:1014E00080210348FFF782F800BF0837BD4680BD62
:1014F0000008014080B400AF00231846BD4680BC00
:10150000704780B400AF00231846BD4680BC7047CA
:1015100080B588B000AF786007F10803184600F086
:101520002FF8FB68094AA2FB03235B0B7A6802FBD6
:1015300003F3FB6102E0FB69013BFB61FB69002BEC
:10154000F9D100BF2037BD4680BD00BF5917B7D1C4
:1015500080B500AF62B6084B1B68084AA2FB0323A4
:101560009B091846FFF784F8FFF7A4F800F03CFC4D
:10157000FEF792FEFEE700BF00000020D34D621090
:1015800080B489B000AF78600023FB610023BB61A9
:1015900000237B6100233B610023FB604A4B5B68B7
:1015A00003F00C03FB61FB69042B07D0082B09D067
:1015B000002B2FD17B68454A1A602FE07B68434A95
:1015C0001A602BE0404B5B6803F47013BB613E4B29
:1015D0005B6803F480337B61BB699B0C0233BB61A6
:1015E0007B69002B06D1BB69394A02FB03F27B6899
:1015F0001A6013E0344BDB6A03F00F030133FB6026
:10160000324AFB68B2FBF3F3BA6902FB03F27B6870
:101610001A6003E07B682D4A1A6000BF2A4B5B68A2
:1016200003F0F003FB61FB691B09FB61294AFB69BD
:1016300013441B78DBB23B617B681A683B69DA4074
:101640007B685A60204B5B6803F4E063FB61FB69D5
:101650001B0AFB611F4AFB6913441B78DBB23B6129
:101660007B685A683B69DA407B689A60164B5B6816
:1016700003F46053FB61FB69DB0AFB61154AFB69FC
:1016800013441B78DBB23B617B685A683B69DA40E4
:101690007B68DA600C4B5B6803F44043FB61FB69D9
:1016A0009B0BFB610C4AFB6913441B78DBB23B616B
:1016B0007B68DA683B69B2FBF3F27B681A6100BFB2
:1016C0002437BD4680BC70470010024000127A00EB
:1016D00000093D00280000203800002080B483B0BD
:1016E00000AF78600B46FB70FB78002B06D00949F1
:1016F000084B9A697B6813438B6106E00549054BEB
:101700009A697B68DB4313408B6100BF0C37BD4691
:1017100080BC70470010024080B58CB000AF78608C
:1017200039600023FB620023BB6200237B6200233D
:101730003B620023FB617B68FB617B681B8A9BB279
:10174000FB62FA6A4CF6FF731340FB623B68DB886E
:101750001A46FB6A1343FB62FB6A9AB27B681A82E1
:101760007B689B899BB2FB62FA6A4EF6F3131340C7
:10177000FB623B689A883B681B8913439AB23B68BB
:101780005B8913439BB21A46FB6A1343FB62FB6AF5
:101790009AB27B689A817B689B8A9BB2FB62FA6AE9
:1017A0004FF6FF431340FB623B689B891A46FB6A76
:1017B0001343FB62FB6A9AB27B689A8207F10803C3
:1017C0001846FFF7DDFEFB692E4A934202D17B6982
:1017D000BB6201E03B69BB627B689B899BB21BB229
:1017E000002B0CDABA6A13469B0013449A001A4481
:1017F0003B681B685B00B2FBF3F37B620BE0BA6AE9
:1018000013469B0013449A001A443B681B689B00D4
:10181000B2FBF3F37B627B6A1B4AA2FB03235B09E7
:101820001B01FB62FB6A1B09642202FB03F37A6A59
:10183000D31A3B627B689B899BB21BB2002B0CDAEC
:101840003B6ADB003233104AA2FB03235B0903F03F
:101850000703FA6A1343FB620BE03B6A1B01323356
:10186000094AA2FB03235B0903F00F03FA6A13433F
:10187000FB62FB6A9AB27B681A8100BF3037BD46B3
:1018800080BD00BF003801401F85EB5180B483B09C
:1018900000AF78600B46FB70FB78002B08D07B68AC
:1018A0009B899BB243F400539AB27B689A8107E00C
:1018B0007B689B899BB223F400539AB27B689A8120
:1018C00000BF0C37BD4680BC704780B487B000AF06
:1018D00078600B467B8013467B7000233B610023BE
:1018E000FB600023BB6000237B617B687B617B889E
:1018F000DBB25B09DBB23B617B8803F01F03FB605B
:101900000122FB6802FA03F3BB603B69012B03D1A0
:101910007B690C337B6109E03B69022B03D17B6956
:1019200010337B6102E07B6914337B617B78002B91
:1019300006D07B697A691168BA680A431A6006E0C2
:101940007B697A691168BA68D2430A401A6000BF9D
:101950001C37BD4680BC704780B483B000AF786050
:101960000B467B807B88C3F308039AB27B689A801E
:1019700000BF0C37BD4680BC704780B483B000AF59
:1019800078607B689B889BB2C3F308039BB21846C0
:101990000C37BD4680BC704780B485B000AF78601E
:1019A0000B467B800023FB737B681B889AB27B8885
:1019B00013409BB2002B02D00123FB7301E00023F4
:1019C000FB73FB7B18461437BD4680BC704780B460
:1019D00087B000AF78600B467B800023FB6000235C
:1019E0007B610023BB600023FB747B88DBB25B0957
:1019F000DBB2BB607B8803F01F037B6101227B6944
:101A000002FA03F37B61BB68012B07D17B689B89DA
:101A10009BB21A467B6913407B6111E0BB68022BC5
:101A200007D17B681B8A9BB21A467B6913407B6196
:101A300006E07B689B8A9BB21A467B6913407B61F8
:101A40007B881B0A9BB2FB600122FB6802FA03F34E
:101A5000FB607B681B889BB21A46FB681340FB60E7
:101A60007B69002B05D0FB68002B02D00123FB749F
:101A700001E00023FB74FB7C18461C37BD4680BC8C
:101A8000704780B485B000AF78600B467B80002340
:101A9000FB810023BB817B881B0AFB81FB89012220
:101AA00002FA03F3BB81BB89DB439AB27B681A80DD
:101AB00000BF1437BD4680BC7047000080B485B0BD
:101AC00000AF78600023FB60094B1B68FB60FB687C
:101AD00003F03803FB60FA687B681343FB60044A39
:101AE000FB68136000BF1437BD4680BC704700BF61
:101AF0000020024080B483B000AF7860084A084BF1
:101B00001B6823F0100313600549054B1A687B68B6
:101B100013430B6000BF0C37BD4680BC704700BF4D
:101B20000020024080B400AF044B054A5A60034BCA
:101B3000044A5A6000BFBD4680BC70470020024086
:101B400023016745AB89EFCD80B400AF044A044B55
:101B50001B6943F08003136100BFBD4680BC704722
:101B60000020024080B584B000AF78600423FB738E
:101B70004FF4302000F09CF80346FB73FB7B042BF2
:101B80001BD1104A0F4B1B6943F0020313610D4A2E
:101B90007B6853610B4A0B4B1B6943F04003136195
:101BA0004FF4302000F084F80346FB730549054BE1
:101BB0001A6941F6FD7313400B61FB7B1846103721
:101BC000BD4680BD0020024080B584B000AF786083
:101BD00039600423FB730023BB604FF4005000F016
:101BE00067F80346FB73FB7B042B30D11A4A1A4B70
:101BF0001B6943F0010313617B683A6892B21A8053
:101C00004FF4005000F054F80346FB73FB7B042BA9
:101C100016D17B680233BB60BB681A463B681B0C5D
:101C20009BB213804FF4005000F042F80346FB7360
:101C30000949094B1A6941F6FE7313400B6106E02E
:101C40000549054B1A6941F6FE7313400B61FB7B96
:101C500018461037BD4680BD0020024080B483B0D6
:101C600000AF0423FB71114BDB6803F00103012B70
:101C700002D10123FB7113E00C4BDB6803F004037A
:101C8000002B02D00223FB710AE0084BDB6803F053
:101C90001003002B02D00323FB7101E00423FB712E
:101CA000FB7918460C37BD4680BC704700200240C7
:101CB00080B584B000AF78600423FB73FFF7CEFFDC
:101CC0000346FB7306E0FFF7C9FF0346FB737B681F
:101CD000013B7B60FB7B012B02D17B68002BF2D1A7
:101CE0007B68002B01D10523FB73FB7B1846103763
:101CF000BD4680BD80B487B000AF786000237B61B3
:101D000000233B610F23FB607B68DB78002B3AD01C
:101D1000274BDB68DB431B0A03F007037B617B690E
:101D2000C3F104033B61FA687B6922FA03F3FB60A9
:101D30007B685B781A463B6902FA03F37B617B6838
:101D40009B781A46FB6813407A6913437B617B6971
:101D50001B017B61174A7B681B787969C9B2134400
:101D60000A4683F80023134A7B681B785B09DBB2C1
:101D700018467B681B7803F01F03012101FA03F367
:101D800042F820300FE00B497B681B785B09DBB21F
:101D900018467B681B7803F01F0301229A4000F16C
:101DA000200341F8232000BF1C37BD4680BC70478C
:101DB00000ED00E000E100E080B483B000AF034636
:101DC000FB71084997F907305B09FA7902F01F02A5
:101DD000012000FA02F241F8232000BF0C37BD4673
:101DE00080BC704700E100E080B586B000AF012103
:101DF00044F20400FFF772FC25233B7500237B753A
:101E00000023BB750123FB7507F114031846FFF788
:101E100071FF4FF400733B821823FB740323BB74E0
:101E200007F1100319461848FEF708FB4FF48063CA
:101E30003B820423FB7407F1100319461248FEF796
:101E4000FDFA4FF416533B600023BB800023FB8058
:101E500000233B810023BB810C237B813B46194639
:101E60000A48FFF759FC01210848FFF70FFD01223E
:101E700040F225510548FFF728FD2520FFF79CFF7C
:101E800000BF1837BD4680BD000801400038014042
:101E900000366E0100000000000000000102030493
:101EA00006070809FF000000000000000000000015
:101EB0000000000000000000000000000102030418
:0C1EC000010203040607080902040608DA
:0400000508000000EF
:00000001FF
