:020000040800F2
:100000004805002025010008850100088501000839
:100010008501000885010008850100080000000036
:100020000000000000000000000000008501000842
:10003000850100080000000085010008490B000848
:100040008501000885010008850100088501000878
:100050008501000885010008850100088501000868
:100060008501000885010008850100088501000858
:100070008501000885010008850100088501000848
:1000800085010008850100088501000800000000C6
:1000900000000000000000000000000085010008D2
:1000A0008501000885010008850100088501000818
:1000B0008501000885010008850100088501000808
:1000C00085010008850100088501000885010008F8
:1000D00085010008A10800088501000885010008C5
:1000E0008501000885010008850100080000000066
:1000F0000000000000000000000000000000000000
:1001000000000000000000000000000000000000EF
:1001100000000000000000008501000885010008C3
:100120005FF808F180B582B000AF114B7B60114BD6
:100130003B6007E03B681A1D3A607A68111D7960E0
:1001400012681A603B680C4A9342F3D30B480C497F
:100150004FF000028842B8BF40F8042BFADB00F0F1
:10016000C5F801F073FB00BF0837BD4680BD00BF76
:10017000D8200008000000203C0000203C000020A7
:100180004801002080B400AFFEE780B500AF012039
:1001900001F040FE012001F021FE00BF80BD000003
:1001A00080B485B000AF0E4BFB600E4BBB600023EC
:1001B000FB800CE0FB681A68BB681A60FB680433BC
:1001C000FB60BB680433BB60FB880133FB80FB88AA
:1001D000052BEFD900BF1437BD4680BC704700BF68
:1001E00000FC00086800002080B584B000AF01F07A
:1001F00029FE114801F046FE104BFB600E4BBB6020
:100200000023FB800FE0BA68FB681B6819461046A4
:1002100001F06AFEFB680433FB60BB680433BB601B
:10022000FB880133FB80FB88052BECD901F01CFE19
:1002300000BF1037BD4680BD00FC000868000020EC
:1002400080B500AFFFF7A1FFFFF7AAFF0C4B1B68BB
:100250000C4A13600C4B1B881A460A4B5A600B4B16
:100260001B68084A93600A4B1B68064AD360094B17
:100270001B68044A1361FFF7B7FF00BF80BD00BFD2
:1002800040000020680000204400002048000020BA
:100290004C0000205000002080B500AFFFF775FF34
:1002A000FFF77EFF0B4B1B680B4A1360094B5B6823
:1002B0009AB20A4B1A80074B9B68094A1360054B98
:1002C000DB68084A1360034B1B69074A136000BFD1
:1002D00080BD00BF680000204000002044000020D6
:1002E000480000204C0000205000002080B500AFE6
:1002F000174A174B1B6843F0010313601449144B52
:100300005A68144B13404B60114A114B1B6823F081
:10031000847323F4803313600D4A0D4B1B6823F460
:10032000802313600A4A0A4B5B6823F4FE03536080
:10033000074B4FF41F029A60054B0022DA6200F06F
:100340000DF8054B4FF000629A6000BF80BD00BF02
:10035000001002400000FFF800ED00E080B500AFA3
:1003600000F002F800BF80BD80B483B000AF00236E
:100370007B6000233B60304A2F4B1B6843F4803383
:1003800013602D4B1B6803F400333B607B68013323
:100390007B603B68002B03D17B68B3F5A06FF0D185
:1003A000254B1B6803F40033002B02D001233B6074
:1003B00001E000233B603B68012B37D11E4A1E4BF6
:1003C0005B6853601C4A1C4B5B6853601A4A1A4BAB
:1003D0005B685360184A184B5B6823F47C135360C6
:1003E000154A154B5B6843F498135360124A124B3D
:1003F0001B6843F08073136000BF0F4B1B6803F052
:100400000073002BF9D00C4A0B4B5B6823F00303FD
:100410005360094A084B5B6843F00203536000BF16
:10042000054B5B6803F00C03082BF9D100BF0C37B8
:10043000BD4680BC704700BF0010024080B489B048
:1004400000AF786039600023FB6100233B6100232B
:10045000BB610023FB6000237B610023BB603B6822
:10046000DB7803F00F03FB613B68DB7803F01003DC
:10047000002B05D03B689B781A46FB691343FB6150
:100480003B681B88DBB2002B44D07B681B687B6118
:100490000023BB6138E00122BB6902FA03F3FB6071
:1004A0003B681B881A46FB6813403B613A69FB684E
:1004B0009A4226D1BB699B00FB600F22FB6802FABF
:1004C00003F3BB60BB68DB437A6913407B61FA6965
:1004D000FB6802FA03F37A6913437B613B68DB78BC
:1004E000282B05D10122BB699A407B685A6108E03C
:1004F0003B68DB78482B04D10122BB699A407B68BA
:100500001A61BB690133BB61BB69072BC3D97B6827
:100510007A691A603B681B88FF2B46D97B685B6849
:100520007B610023BB613AE0BB690833012202FA18
:1005300003F3FB603B681B881A46FB6813403B6172
:100540003A69FB689A4227D1BB699B00FB600F2286
:10055000FB6802FA03F3BB60BB68DB437A691340B4
:100560007B61FA69FB6802FA03F37A6913437B61E2
:100570003B68DB78282B05D1BB69083301229A4000
:100580007B685A613B68DB78482B05D1BB6908332F
:1005900001229A407B681A61BB690133BB61BB6968
:1005A000072BC1D97B687A695A6000BF2437BD46E2
:1005B00080BC704780B483B000AF78607B689B6874
:1005C0009BB218460C37BD4680BC704780B483B0E0
:1005D00000AF78600B467B807A887B681A6100BF29
:1005E0000C37BD4680BC704780B483B000AF7860E4
:1005F0000B467B807A887B685A6100BF0C37BD460A
:1006000080BC704780B483B000AF0346FB710849DB
:1006100097F907305B09FA7902F01F02012000FA0E
:1006200002F241F8232000BF0C37BD4680BC704762
:1006300000E100E080B483B000AF03463960FB7195
:1006400097F90730002B0BDA0D49FB7903F00F0304
:10065000043B3A68D2B21201D2B20B441A7609E0D6
:10066000084997F907303A68D2B21201D2B20B4466
:1006700083F8002300BF0C37BD4680BC704700BF25
:1006800000ED00E000E100E080B582B000AF7860EE
:100690007B68B3F1807F01D3012311E00A4A7B68B4
:1006A00023F07F43013B53600F214FF0FF30FFF7F2
:1006B000C1FF054B00229A60034B07221A600023FA
:1006C00018460837BD4680BD10E000E080B500AF99
:1006D00002210248FFF77AFF00BF80BD000C0140F5
:1006E00080B500AF02210248FFF77EFF00BF80BD4A
:1006F000000C014080B500AF01210248FFF766FF02
:1007000000BF80BD0008014080B500AF0121024854
:10071000FFF76AFF00BF80BD0008014080B500AF51
:100720000448FFF747FF0346DBB203F04003DBB2A8
:10073000184680BD0008014080B500AF0448FFF7AF
:1007400039FF0346DBB203F00203DBB2184680BD7B
:100750000008014080B582B000AF00233B7114480F
:10076000FFF728FF3B796FF300033B711048FFF759
:1007700021FF3B796FF341033B710D48FFF71AFFEF
:100780003B796FF382033B710948FFF713FF3B7915
:100790006FF3C3033B710648FFF70CFF3B796FF320
:1007A00004133B713B7918460837BD4680BD00BF36
:1007B0000008014080B485B000AF78600B46FB7044
:1007C0000023FB604FF6FF737B8125E07B685A1C9A
:1007D0007A601B789BB21B023B817A893B8953402C
:1007E0007B810023FB6014E0B7F90A30002B09DAA3
:1007F0007B895B001BB283F4815383F001031BB23E
:100800009BB202E07B895B009BB27B81FB6801337A
:10081000FB60FB68072BE7DDFB785A1EFA70002BA4
:10082000D4D17B8918461437BD4680BC7047000080
:1008300080B588B000AF786007F10803184601F072
:100840001FF8FB68094AA2FB03235B0B7A6802FBD3
:1008500003F3FB6102E0FB69013BFB61FB69002BD9
:10086000F9D100BF2037BD4680BD00BF5917B7D1B1
:1008700080B500AF1420FFF7DBFF10210248FFF71F
:10088000B3FE00BF80BD00BF0008014080B500AFCF
:1008900010210248FFF79AFE00BF80BD000801400A
:1008A00080B582B000AF40F22551224801F01FFA16
:1008B0000346002B29D040F225511E4801F007FACB
:1008C0001C4801F0DAF90346FB71FB790A2B05D0CD
:1008D0003A2B09D1184B00221A8016E000F0D0F80C
:1008E000154B00221A8010E0134B1B88632B0BD88A
:1008F000114B1B881946114AFB7953540E4B1B8828
:1009000001339AB20C4B1A8000BF40F226610948AD
:1009100001F0EDF90346002B02D0074B00221A80AC
:1009200040F22661034801F03CFA00BF0837BD469B
:1009300080BD00BF003801403C0000208000002046
:1009400080B582B000AFFFF7F7FE0346FB71FFF7FB
:10095000E5FE0346BB71FB79002B02D0FFF7CAFE10
:1009600001E0FFF7D1FEBB79002B02D03E4B012204
:100970001A603D4B1B68032B6ED801A252F823F07E
:1009800091090008A3090008E50900082F0A0008DA
:10099000364B00221A6000F05DFE334B02221A60D3
:1009A0005EE0FFF7BBFE0346BB71BB79002B03D1B2
:1009B0002D4B00221A6053E02D4B1B881A462B4BFF
:1009C0001B689A4205DD294B1B680133274A1360D7
:1009D00046E0284B1B68184600F08EFE234B002291
:1009E0001A603DE0214B1B68214A128893FBF2F10B
:1009F00002FB01F29B1A002B04D11E4B1B68184608
:100A000000F07AFE194B1B681A461B4B1B689A4272
:100A100007D3164B00221A6000F0C6FE124B0322C9
:100A20001A60124B1B680133104A136018E00F4B19
:100A30001B681A46114B1B689A4207D30B4B0022C6
:100A40001A6000F007FE084B02221A60074B1B6871
:100A50000133064A136003E0034B00221A6000BF13
:100A600000BF0837BD4680BD58000020540000205C
:100A70004400002050000020480000204C000020CE
:100A800080B584B000AF0023FB602C4B1B88002B8B
:100A90004CD02A4B1B8803F001039BB2002B47D19B
:100AA0000023BB600023FB6017E0254AFB6813446A
:100AB0001878FB680133224AD35C194600F054FAD7
:100AC000034619461F4ABB6813440A461A70BB689E
:100AD0000133BB60FB680233FB60184B1B881A466E
:100AE000FB689A42E1DCBB689AB2144B1A80154B42
:100AF0007B607B68DB78FB70FB78032B1AD801A244
:100B000052F823F0270B0008150B00081B0B0008F8
:100B1000210B000800F04AF80DE000F0B5F80AE0FB
:100B200000F092F907E000F035F904E000BF02E0C0
:100B300000BF00E000BF1037BD4680BD3C00002074
:100B400080000020E400002080B500AF144B1B683B
:100B50000133134A1360124B1B68B3F5FA7F1CDD97
:100B60000F4B00221A600F4B1B6801330D4A1360B4
:100B70000D4B1B78002B0CBF01230023DBB21A4660
:100B8000094B1A70084B1B78002B04D0FFF79EFD11
:100B9000FFF7D6FE01E0FFF7A3FD00BF80BD00BF59
:100BA0005C000020600000206400002080B58AB056
:100BB00000AF00237B622D4B3B6206212B48FFF7E1
:100BC000F9FD0346FB833B6ADB889BB2FA8B9A42B2
:100BD00045D1FFF7BFFD03467B773B6A9B787A7F61
:100BE0009A423ED13B6A1B889BB23B803B6A9B7812
:100BF000BB703B6ADB78FB703B6A9B889BB2BB8017
:100C00001B4B1B68C7F806301A4B1B887B811A4B9D
:100C10001B68FB60194B1B683B61194B1B687B61B0
:100C20003B4618211846FFF7C5FD03463B830023CA
:100C30007B620BE03A467B6A134419780B4A7B6A65
:100C400013440A461A707B6A01337B627B6A192B54
:100C5000F0D90C4B1A221A8000F0C4FC02E000BF4D
:100C600000E000BF2837BD4680BD00BFE400002083
:100C70004000002044000020480000204C000020DC
:100C8000500000203C00002080B58AB000AF002357
:100C90007B62394B3B6218213748FFF78BFD0346D7
:100CA000FB833B6A1B8B9BB2FA8B9A425DD1FFF7A9
:100CB00051FD03467B773B6A9B787A7F9A4256D1F7
:100CC0003B6AD3F806302D4A13603B6A5B899AB2BF
:100CD0002B4B1A803B6ADB682A4A13603B6A1B690C
:100CE000294A13603B6A5B69284A1360FFF7A8FA38
:100CF0003B6A1B889BB23B803B6A9B78BB703B6A1C
:100D0000DB78FB703B6A9B889BB2BB801B4B1B68EC
:100D1000C7F806301A4B1B887B811A4B1B68FB6097
:100D2000194B1B683B61194B1B687B613B461821C3
:100D30001846FFF73FFD03463B8300237B620BE031
:100D40003A467B6A134419780B4A7B6A13440A4675
:100D50001A707B6A01337B627B6A192BF0D90C4BCA
:100D60001A221A8000F03EFC02E000BF00E000BF43
:100D70002837BD4680BD00BFE400002040000020B1
:100D800044000020480000204C00002050000020BB
:100D90003C00002080B586B000AF00237B61284B6B
:100DA0003B6108212648FFF705FD0346FB813B69AF
:100DB0001B899BB2FA899A423CD1FFF7CBFC0346D0
:100DC0007B733B699B787A7B9A4235D13B691B8860
:100DD0009BB23B803B699B78BB703B69DB78FB70C7
:100DE0003B699B889BB2BB803B69DB889BB2FB80E5
:100DF0003B4608211846FFF7DDFC03463B81114BBB
:100E00000A221A8000237B610BE03A467B69134477
:100E100019780B4A7B6913440A461A707B690133BF
:100E20007B61084B1B881A467B699A42EDDC00F017
:100E3000D9FB02E000BF00E000BF1837BD4680BD0F
:100E4000E40000203C00002080B58AB000AF002301
:100E50007B622E4B3B6208212C48FFF7ABFC03461C
:100E6000FB833B6A1B899BB2FA8B9A4247D1FFF7FF
:100E700071FC03467B773B6A9B787A7F9A4240D12C
:100E800000F052F83B6A1B889BB23B803B6A9B7820
:100E9000BB703B6ADB78FB703B6A9B889BB2BB8074
:100EA0001B4B1B68C7F806301A4B1B887B811A4BFB
:100EB0001B68FB60194B1B683B61194B1B687B610E
:100EC0003B4618211846FFF775FC03463B83002379
:100ED0007B620BE03A467B6A134419780B4A7B6AC3
:100EE00013440A461A707B6A01337B627B6A192BB2
:100EF000F0D90C4B1A221A8000F074FB02E000BFFC
:100F000000E000BF2837BD4680BD00BFE4000020E0
:100F10004000002044000020480000204C00002039
:100F2000500000203C00002080B500AF094B00229B
:100F30001A60094B05221A80084B14221A60084BCC
:100F40003C221A60074B3F221A60FFF779F900BF75
:100F500080BD00BF40000020440000204800002069
:100F60004C0000205000002080B485B000AF034644
:100F70000A46FB711346BB710023FB730023BB734E
:100F8000FB79303B362B00F2B38001A252F823F0FC
:100F90006D10000873100008791000087F10000819
:100FA000851000088B1000089110000897100008A9
:100FB0009D100008A3100008F1100008F1100008AF
:100FC000F1100008F1100008F1100008F1100008FD
:100FD000F1100008CD100008D3100008D910000847
:100FE000DF100008E5100008EB100008F110000801
:100FF000F1100008F1100008F1100008F1100008CD
:10100000F1100008F1100008F1100008F1100008BC
:10101000F1100008F1100008F1100008F1100008AC
:10102000F1100008F1100008F1100008F11000089C
:10103000F1100008F1100008F1100008F11000088C
:10104000F1100008F1100008F1100008F11000087C
:10105000F1100008A9100008AF100008B510000832
:10106000BB100008C1100008C71000080023FB7364
:101070003FE00123FB733CE00223FB7339E00323D1
:10108000FB7336E00423FB7333E00523FB7330E08E
:101090000623FB732DE00723FB732AE00823FB7371
:1010A00027E00923FB7324E00A23FB7321E00B23D1
:1010B000FB731EE00C23FB731BE00D23FB7318E096
:1010C0000E23FB7315E00F23FB7312E00A23FB735F
:1010D0000FE00B23FB730CE00C23FB7309E00D23E3
:1010E000FB7306E00E23FB7303E00F23FB7300E0AA
:1010F00000BFBB79303B362B00F2B48001A252F81E
:1011000023F000BFE1110008E7110008ED1100080D
:10111000F3110008F9110008FF110008051200087A
:101120000B120008111200081712000865120008BF
:1011300065120008651200086512000865120008B3
:1011400065120008651200084112000847120008E5
:101150004D12000853120008591200085F120008CF
:101160006512000865120008651200086512000883
:101170006512000865120008651200086512000873
:101180006512000865120008651200086512000863
:101190006512000865120008651200086512000853
:1011A0006512000865120008651200086512000843
:1011B0006512000865120008651200086512000833
:1011C00065120008651200081D12000823120008AD
:1011D000291200082F120008351200083B120008DF
:1011E0000023BB733FE00123BB733CE00223BB73CE
:1011F00039E00323BB7336E00423BB7333E00523DC
:10120000BB7330E00623BB732DE00723BB732AE0DA
:101210000823BB7327E00923BB7324E00A23BB73B5
:1012200021E00B23BB731EE00C23BB731BE00D23DB
:10123000BB7318E00E23BB7315E00F23BB7312E0E2
:101240000A23BB730FE00B23BB730CE00C23BB73AF
:1012500009E00D23BB7306E00E23BB7303E00F23ED
:10126000BB7300E000BFFB7B1B015AB297F90E3045
:1012700013435BB27B737B7B18461437BD4680BC3F
:10128000704700BF80B487B000AF0346B9607A6092
:10129000FB73FB7B1B09FB75FB7B03F00F03BB752B
:1012A000FB7D0F2B62D801A252F823F0ED1200084B
:1012B000F5120008FD120008051300080D130008C0
:1012C000151300081D130008251300082D1300082E
:1012D000351300083D130008451300084D1300089E
:1012E000551300085D13000865130008BB68302221
:1012F0001A703CE0BB6831221A7038E0BB683222B9
:101300001A7034E0BB6833221A7030E0BB683422B4
:101310001A702CE0BB6835221A7028E0BB683622B0
:101320001A7024E0BB6837221A7020E0BB683822AC
:101330001A701CE0BB6839221A7018E0BB684122A1
:101340001A7014E0BB6842221A7010E0BB68432296
:101350001A700CE0BB6844221A7008E0BB68452292
:101360001A7004E0BB6846221A7000E000BFBB7D23
:101370000F2B63D801A252F823F000BFBD13000861
:10138000C5130008CD130008D5130008DD130008AD
:10139000E5130008ED130008F5130008FD1300081D
:1013A000051400080D140008151400081D14000889
:1013B000251400082D140008351400087B6830221D
:1013C0001A703CE07B6831221A7038E07B68322268
:1013D0001A7034E07B6833221A7030E07B68342264
:1013E0001A702CE07B6835221A7028E07B68362260
:1013F0001A7024E07B6837221A7020E07B6838225C
:101400001A701CE07B6839221A7018E07B68412250
:101410001A7014E07B6842221A7010E07B68432245
:101420001A700CE07B6844221A7008E07B68452241
:101430001A7004E07B6846221A7000E000BF00BF0B
:101440001C37BD4680BC704780B582B000AF01211B
:10145000042000F0C3FA0121082000F0BFFA102395
:10146000BB801023FB710323BB713B1D194625482C
:10147000FEF7E4FF0223BB801023FB710323BB7143
:101480003B1D19462048FEF7D9FF2023BB801023BF
:10149000FB710323BB713B1D19461A48FEF7CEFFB3
:1014A0000123BB801023FB710323BB713B1D194635
:1014B0001448FEF7C3FF4023BB800423FB710323C2
:1014C000BB713B1D19460F48FEF7B8FF0223BB80D6
:1014D0000423FB710323BB713B1D19460948FEF72A
:1014E000ADFF4FF4CD43BB800423FB710323BB71DD
:1014F0003B1D19460348FEF7A1FF00BF0837BD4654
:1015000080BD00BF00080140000C014080B586B0DE
:1015100000AF01214FF4804000F060FA4FF40073F7
:10152000BB821823FB750323BB7507F1140319460F
:101530001D48FEF783FF4FF48063BB820423FB75D5
:1015400007F1140319461848FEF778FF4FF41653B5
:101550007B6000233B8100237B810023BB81002330
:101560003B820C23FB813B1D1946104800F054FAC6
:1015700001210E4800F00AFB25233B700123BB70BC
:101580000123FB703B46184600F044FD012240F267
:101590002551064800F019FB2520FFF733F800BF5E
:1015A0001837BD4680BD00BF00080140003801402B
:1015B00080B582B000AF0346FB7100BF80210848B0
:1015C00000F06AFB0346002BF8D0FB799BB219466A
:1015D000034800F041FB00BF0837BD4680BD00BF97
:1015E0000038014080B582B000AF00237B6000234B
:1015F000FB700023BB70FFF749F93A20FFF7D8FFD3
:1016000000237B6013E0114A7B6813441B78BA1CEB
:10161000F91C1846FFF736FEFB781846FFF7C8FF9F
:10162000BB781846FFF7C4FF7B6801337B60084B2B
:101630001B881A467B689A42E5DC0D20FFF7B8FF4D
:10164000FFF716F900BF0837BD4680BDE400002053
:101650003C00002080B500AF254B1B68DAB2254B5B
:101660005A70244B00229A70224B0722DA70214BC9
:1016700000221A711F4B3B225A711E4B5A781D4B88
:101680009B785340DAB21B4BDB785340DAB2194BEC
:101690001B795340DAB2174B5B795340DAB2154BE2
:1016A0009A71FFF7F3F8FF20FFF782FF114B5B7889
:1016B0001846FFF77DFF0F4B9B781846FFF778FF22
:1016C0000C4BDB781846FFF773FF0A4B1B79184663
:1016D000FFF76EFF074B5B791846FFF769FF054B75
:1016E0009B791846FFF764FFFFF7C2F800BF80BD83
:1016F000400000201400002080B582B000AF786068
:10170000274B1B68DAB2274B5A70264B00229A707F
:10171000244B0722DA70234B00221A717B68DAB25D
:10172000204B5A711F4B5A781E4B9B785340DAB2AC
:101730001C4BDB785340DAB21A4B1B795340DAB2B8
:10174000184B5B795340DAB2164B9A71FFF79EF84B
:10175000FF20FFF72DFF134B5B781846FFF728FF9C
:10176000104B9B781846FFF723FF0E4BDB7818468B
:10177000FFF71EFF0B4B1B791846FFF719FF094BAC
:101780005B791846FFF714FF064B9B791846FFF765
:101790000FFFFFF76DF800BF0837BD4680BD00BFE3
:1017A000400000201400002080B500AF254B1B68CE
:1017B000DAB2254B5A70244B00229A70224B232216
:1017C000DA70214B00221A711F4B00225A711E4BF6
:1017D0005A781D4B9B785340DAB21B4BDB78534051
:1017E000DAB2194B1B795340DAB2174B5B7953408D
:1017F000DAB2154B9A71FFF749F8FF20FFF7D8FED0
:10180000114B5B781846FFF7D3FE0F4B9B781846B9
:10181000FFF7CEFE0C4BDB781846FFF7C9FE0A4BEC
:101820001B791846FFF7C4FE074B5B791846FFF794
:10183000BFFE054B9B791846FFF7BAFEFFF718F875
:1018400000BF80BD400000201400002080B500AF24
:1018500062B6094B1B68094AA2FB03239B09184681
:10186000FEF712FFFFF7F0FDFFF750FEFEF714FD45
:10187000FEF7FEFFFEE700BF00000020D34D621020
:1018800080B489B000AF78600023FB610023BB61A6
:1018900000237B6100233B610023FB604A4B5B68B4
:1018A00003F00C03FB61FB69042B07D0082B09D064
:1018B000002B2FD17B68454A1A602FE07B68434A92
:1018C0001A602BE0404B5B6803F47013BB613E4B26
:1018D0005B6803F480337B61BB699B0C0233BB61A3
:1018E0007B69002B06D1BB69394A02FB03F27B6896
:1018F0001A6013E0344BDB6A03F00F030133FB6023
:10190000324AFB68B2FBF3F3BA6902FB03F27B686D
:101910001A6003E07B682D4A1A6000BF2A4B5B689F
:1019200003F0F003FB61FB691B09FB61294AFB69BA
:1019300013441B78DBB23B617B681A683B69DA4071
:101940007B685A60204B5B6803F4E063FB61FB69D2
:101950001B0AFB611F4AFB6913441B78DBB23B6126
:101960007B685A683B69DA407B689A60164B5B6813
:1019700003F46053FB61FB69DB0AFB61154AFB69F9
:1019800013441B78DBB23B617B685A683B69DA40E1
:101990007B68DA600C4B5B6803F44043FB61FB69D6
:1019A0009B0BFB610C4AFB6913441B78DBB23B6168
:1019B0007B68DA683B69B2FBF3F27B681A6100BFAF
:1019C0002437BD4680BC70470010024000127A00E8
:1019D00000093D00280000203800002080B483B0BA
:1019E00000AF78600B46FB70FB78002B06D00949EE
:1019F000084B9A697B6813438B6106E00549054BE8
:101A00009A697B68DB4313408B6100BF0C37BD468E
:101A100080BC70470010024080B58CB000AF786089
:101A200039600023FB620023BB6200237B6200233A
:101A30003B620023FB617B68FB617B681B8A9BB276
:101A4000FB62FA6A4CF6FF731340FB623B68DB886B
:101A50001A46FB6A1343FB62FB6A9AB27B681A82DE
:101A60007B689B899BB2FB62FA6A4EF6F3131340C4
:101A7000FB623B689A883B681B8913439AB23B68B8
:101A80005B8913439BB21A46FB6A1343FB62FB6AF2
:101A90009AB27B689A817B689B8A9BB2FB62FA6AE6
:101AA0004FF6FF431340FB623B689B891A46FB6A73
:101AB0001343FB62FB6A9AB27B689A8207F10803C0
:101AC0001846FFF7DDFEFB692E4A934202D17B697F
:101AD000BB6201E03B69BB627B689B899BB21BB226
:101AE000002B0CDABA6A13469B0013449A001A447E
:101AF0003B681B685B00B2FBF3F37B620BE0BA6AE6
:101B000013469B0013449A001A443B681B689B00D1
:101B1000B2FBF3F37B627B6A1B4AA2FB03235B09E4
:101B20001B01FB62FB6A1B09642202FB03F37A6A56
:101B3000D31A3B627B689B899BB21BB2002B0CDAE9
:101B40003B6ADB003233104AA2FB03235B0903F03C
:101B50000703FA6A1343FB620BE03B6A1B01323353
:101B6000094AA2FB03235B0903F00F03FA6A13433C
:101B7000FB62FB6A9AB27B681A8100BF3037BD46B0
:101B800080BD00BF003801401F85EB5180B483B099
:101B900000AF78600B46FB70FB78002B08D07B68A9
:101BA0009B899BB243F400539AB27B689A8107E009
:101BB0007B689B899BB223F400539AB27B689A811D
:101BC00000BF0C37BD4680BC704780B487B000AF03
:101BD00078600B467B8013467B7000233B610023BB
:101BE000FB600023BB6000237B617B687B617B889B
:101BF000DBB25B09DBB23B617B8803F01F03FB6058
:101C00000122FB6802FA03F3BB603B69012B03D19D
:101C10007B690C337B6109E03B69022B03D17B6953
:101C200010337B6102E07B6914337B617B78002B8E
:101C300006D07B697A691168BA680A431A6006E0BF
:101C40007B697A691168BA68D2430A401A6000BF9A
:101C50001C37BD4680BC704780B483B000AF78604D
:101C60000B467B807B88C3F308039AB27B689A801B
:101C700000BF0C37BD4680BC704780B483B000AF56
:101C800078607B689B889BB2C3F308039BB21846BD
:101C90000C37BD4680BC704780B485B000AF78601B
:101CA0000B467B800023FB737B681B889AB27B8882
:101CB00013409BB2002B02D00123FB7301E00023F1
:101CC000FB73FB7B18461437BD4680BC704780B45D
:101CD00083B000AF78600B467B807B88DB439AB291
:101CE0007B681A8000BF0C37BD4680BC704780B44B
:101CF00087B000AF78600B467B800023FB60002339
:101D00007B610023BB600023FB747B88DBB25B0933
:101D1000DBB2BB607B8803F01F037B6101227B6920
:101D200002FA03F37B61BB68012B07D17B689B89B7
:101D30009BB21A467B6913407B6111E0BB68022BA2
:101D400007D17B681B8A9BB21A467B6913407B6173
:101D500006E07B689B8A9BB21A467B6913407B61D5
:101D60007B881B0A9BB2FB600122FB6802FA03F32B
:101D7000FB607B681B889BB21A46FB681340FB60C4
:101D80007B69002B05D0FB68002B02D00123FB747C
:101D900001E00023FB74FB7C18461C37BD4680BC69
:101DA000704780B485B000AF78600B467B8000231D
:101DB000FB810023BB817B881B0AFB81FB890122FD
:101DC00002FA03F3BB81BB89DB439AB27B681A80BA
:101DD00000BF1437BD4680BC7047000080B485B09A
:101DE00000AF78600023FB60094B1B68FB60FB6859
:101DF00003F03803FB60FA687B681343FB60044A16
:101E0000FB68136000BF1437BD4680BC704700BF3D
:101E10000020024080B483B000AF7860084A084BCD
:101E20001B6823F0100313600549054B1A687B6893
:101E300013430B6000BF0C37BD4680BC704700BF2A
:101E40000020024080B400AF044B054A5A60034BA7
:101E5000044A5A6000BFBD4680BC70470020024063
:101E600023016745AB89EFCD80B400AF044A044B32
:101E70001B6943F08003136100BFBD4680BC7047FF
:101E80000020024080B584B000AF78600423FB736B
:101E90004FF4302000F09CF80346FB73FB7B042BCF
:101EA0001BD1104A0F4B1B6943F0020313610D4A0B
:101EB0007B6853610B4A0B4B1B6943F04003136172
:101EC0004FF4302000F084F80346FB730549054BBE
:101ED0001A6941F6FD7313400B61FB7B18461037FE
:101EE000BD4680BD0020024080B584B000AF786060
:101EF00039600423FB730023BB604FF4005000F0F3
:101F000067F80346FB73FB7B042B30D11A4A1A4B4C
:101F10001B6943F0010313617B683A6892B21A802F
:101F20004FF4005000F054F80346FB73FB7B042B86
:101F300016D17B680233BB60BB681A463B681B0C3A
:101F40009BB213804FF4005000F042F80346FB733D
:101F50000949094B1A6941F6FE7313400B6106E00B
:101F60000549054B1A6941F6FE7313400B61FB7B73
:101F700018461037BD4680BD0020024080B483B0B3
:101F800000AF0423FB71114BDB6803F00103012B4D
:101F900002D10123FB7113E00C4BDB6803F0040357
:101FA000002B02D00223FB710AE0084BDB6803F030
:101FB0001003002B02D00323FB7101E00423FB710B
:101FC000FB7918460C37BD4680BC704700200240A4
:101FD00080B584B000AF78600423FB73FFF7CEFFB9
:101FE0000346FB7306E0FFF7C9FF0346FB737B68FC
:101FF000013B7B60FB7B012B02D17B68002BF2D184
:102000007B68002B01D10523FB73FB7B184610373F
:10201000BD4680BD80B487B000AF786000237B618F
:1020200000233B610F23FB607B68DB78002B3AD0F9
:10203000274BDB68DB431B0A03F007037B617B69EB
:10204000C3F104033B61FA687B6922FA03F3FB6086
:102050007B685B781A463B6902FA03F37B617B6815
:102060009B781A46FB6813407A6913437B617B694E
:102070001B017B61174A7B681B787969C9B21344DD
:102080000A4683F80023134A7B681B785B09DBB29E
:1020900018467B681B7803F01F03012101FA03F344
:1020A00042F820300FE00B497B681B785B09DBB2FC
:1020B00018467B681B7803F01F0301229A4000F149
:1020C000200341F8232000BF1C37BD4680BC704769
:0820D00000ED00E000E100E07A
:1020D80000366E0100000000000000000102030449
:1020E80006070809FF0000000000000000000000CB
:1020F80000000000000000000000000001020304CE
:0C2108000102030406070809020406088F
:0400000508000000EF
:00000001FF
