:020000040800F2
:1000000000200020090800085508000855080008CD
:1000100000000000000000000000000000000000E0
:10002000000000000000000000000000550800086B
:1000300000000000000000005508000855070008F7
:10004000550800085508000855080008550800081C
:10005000550800085508000855080008550800080C
:1000600055080008550800085508000855080008FC
:1000700055080008550800085508000855080008EC
:100080005508000855080008000000005508000841
:1000900055080008550800085508000855080008CC
:1000A0005508000855080008550800089D05000877
:1000B0005508000800000000550800080000000076
:1000C0005FF808F180B588B000AF78600023FB616D
:1000D0000023BB6100237B6100233B610023FB60A5
:1000E0006A4B5B680C221340FB61FB69042B07D051
:1000F000082B09D0002B31D17B68654A1A6031E0AA
:100100007B68634A1A602DE0604B5A68F0239B03BA
:100110001340BB615D4B5A6880235B0213407B61D7
:10012000BB699B0C0233BB617B69002B05D1BB69AA
:10013000584A5A437B681A6014E0544BDB6A0F221A
:10014000134001333B613969514800F05DFF030002
:100150001A00BB695A437B681A6003E07B684C4A0B
:100160001A60C046494B5B68F0221340FB61FB6993
:100170001B09FB61484AFB69D3181B78DBB2FB60A3
:100180007B681A68FB68DA407B685A603F4B5A68A4
:10019000E023DB001340FB61FB691B0AFB613E4A65
:1001A000FB69D3181B78DBB2FB607B685A68FB687D
:1001B000DA407B689A60354B1A6B80235B001A40EB
:1001C00080235B009A4203D07B68344ADA6013E0F4
:1001D0002E4B5A688023DB011A408023DB019A42B0
:1001E00005D07B689B685A087B68DA6004E07B680E
:1001F0009B689A087B68DA60244B1B6B4022134093
:10020000402B03D07B68264A1A6103E07B6880227A
:1002100012021A611D4B1B6B10221340102B03D0CE
:100220007B681B4A5A6103E07B681A687B685A61E5
:10023000164B1B6B0322134004D17B689A687B68C2
:100240009A611EE0114B1B6B03221340012B04D15A
:100250007B681A687B689A6113E00C4B1B6B032266
:100260001340022B04D17B68802212029A6108E0BD
:10027000064B1B6B03221340032B02D17B68044AFD
:100280009A61C046BD4608B080BDC046001002401D
:1002900000127A0000093D0000000020809FD50078
:1002A0001280000080B582B000AF78600A00FB1CAD
:1002B0001A70FB1C1B78002B06D0094B084A5169A9
:1002C0007A680A435A6106E0054B054A5269796823
:1002D000C9430A405A61C046BD4602B080BDC0460F
:1002E0000010024080B582B000AF78600A00FB1CAD
:1002F0001A70FB1C1B78002B06D0094B084A916929
:100300007A680A439A6106E0054B054A9269796862
:10031000C9430A409A61C046BD4602B080BDC0468E
:100320000010024080B582B000AF0200FB1D1A70C1
:10033000064BFA1D127811001F220A40012191403C
:100340000A001A60C046BD4602B080BD00E100E070
:10035000B0B582B000AF02003960FB1D1A70FB1D02
:100360001B787F2B32D92F4CFB1D1B781A000F23D3
:100370001340083B99082B4AFB1D1B7818000F23DC
:100380000340083B9B0806339B00D31804331B68CB
:10039000FA1D1278100003220240D200FF20904084
:1003A0000200D2431A403B689B01FF201840FB1D0E
:1003B0001B781D0003232B40DB00984003001A43E9
:1003C0008B1D9B00E31804331A6027E0164CFB1DBD
:1003D0001B785BB29B081449FA1D127852B292083E
:1003E000C03292005258F91D0978080003210140DB
:1003F000C900FF2088400100C94311403A689201BA
:10040000FF201040FA1D1278150003222A40D20066
:10041000904002000A43C0339B001A51C046BD46BB
:1004200002B0B0BD00ED00E000E100E080B582B0B8
:1004300000AF78607B680E4A934201D9012312E035
:100440000C4B7A681202120A013A5A6001235B428D
:1004500003211800FFF77CFF064B00229A60054B32
:1004600007221A6000231800BD4602B080BDC046B6
:10047000FFFFFF0010E000E080B582B000AF8023F6
:100480001B0301211800FFF70DFF3B00C022920063
:100490001A603B0001221A713B0003225A713B0093
:1004A000044A1900100000F08DFAC046BD4602B0A3
:1004B00080BDC0460008004880B58AB000AF8023E8
:1004C0009B0201211800FFF7EDFE8023DB010121D3
:1004D0001800FFF707FF9023DB0501220921180010
:1004E00000F021FB9023DB0501220A21180000F017
:1004F0001AFB2423FB181B221A702423FB18012249
:100500005A702423FB1801229A702423FB18180028
:1005100000F024FD1C23FB18C022D2001A601C230B
:10052000FB1802221A711C23FB1803225A711C2388
:10053000FA189023DB051100180000F043FA3B1D68
:10054000962292011A603B1D00225A603B1D002238
:100550009A603B1D0022DA603B1D00225A613B1D60
:100560000C221A613B1D0B4A1900100000F02EFBF3
:10057000084B0121180000F0D9FB0749054B012267
:10058000180000F010FC1B20FFF7CCFEC046BD4653
:100590000AB080BD003801400501050080B582B079
:1005A00000AF284A284B1100180000F068FC031E19
:1005B00032D0244A244B1100180000F054FC224B86
:1005C000180000F0E2FB03001A00FB1D1A70FB1D6F
:1005D0001B780A2B05D03A2B09D11C4B00221A702C
:1005E0001AE000F099F8194B00221A7014E0174B2A
:1005F0001B78DBB24F2B0ED8144B1B78DBB21900E3
:10060000134BFA1D12785A54104B1B78DBB201338E
:10061000DAB20E4B1A70C0460E4A0B4B110018008E
:1006200000F02DFC031E02D00B4B00221A70094A69
:10063000054B1100180000F079FCC046BD4602B021
:1006400080BDC04605010500003801402A00002099
:100650002C000020060106007C00002080B582B03E
:1006600000AF0200FB1D1A70C046094B8021180024
:1006700000F0DBFB031EF8D0FB1D1B789BB2044A85
:100680001900100000F06FFBC046BD4602B080BDEF
:100690000038014080B582B000AF00237B603A2073
:1006A000FFF7DCFF00237B600AE00C4A7B68D3186D
:1006B0001B78DBB21800FFF7D1FF7B6801337B604A
:1006C000074B1B78DBB21A007B689A42EDDC0D20E9
:1006D000FFF7C4FFC046BD4602B080BD80000020C9
:1006E0007C00002080B500AF094B74221A70084BC3
:1006F00065225A70064B73229A70054B7422DA7089
:10070000044B04221A70FFF7C5FFC046BD4680BDEA
:10071000800000207C00002080B500AF0B4B7422CD
:100720001A700A4B65225A70084B73229A70074B55
:100730007422DA70054B32221A71054B05221A70A9
:10074000FFF7A8FFC046BD4680BDC0468000002020
:100750007C00002080B500AF1D4B1B685A1C1C4B51
:100760001A601B4B1A68FA235B009A422DDD184B66
:1007700000221A60174B1B785A425341DBB21A0011
:10078000144B1A70134B1B78002B10D080235B0086
:10079000114A1900100000F0A8F980239B000E4AAE
:1007A0001900100000F0B0F9FFF79CFF0DE0802366
:1007B0005B00094A1900100000F0A6F980239B0095
:1007C000054A1900100000F090F9C046BD4680BDF2
:1007D00024000020280000200008004880B500AF59
:1007E00062B6084B1A68FA239900100000F00CFC5E
:1007F00003001800FFF71AFEFFF73EFEFFF75CFE4E
:10080000FEE7C046100000200C488546002103E0AA
:100810000B4B5B58435004310A480B4B42189A4229
:10082000F6D30A4A02E0002313600432084B9A42CE
:10083000F9D300F011F8FFF7D1FFFEE70020002008
:1008400020110008000000202400002024000020C7
:10085000D0000020FEE7000080B500AF1B4B1B4A14
:10086000126801210A431A60184B184A5268184945
:100870000A405A60154B154A126816490A401A6018
:10088000124B124A126814490A401A600F4B0F4A61
:10089000526812490A405A600C4B0C4AD26A0F2126
:1008A0008A43DA62094B094A126B0D490A401A63FE
:1008B000064B064A526B01218A435A63034B0022BE
:1008C0009A6000F00FF8C046BD4680BD001002409F
:1008D0000CB8FFF8FFFFF6FEFFFFFBFFFFFFC0FFB6
:1008E000ACFEFFFF80B582B000AF00237B60002329
:1008F0003B60314B304A1268802149020A431A603A
:100900002D4B1A6880239B0213403B607B680133A8
:100910007B603B68002B04D17A68A023DB019A42FC
:10092000EED1254B1A6880239B02134002D001238D
:100930003B6001E000233B603B68012B38D11F4B3B
:1009400011221A601C4B1C4A52685A601A4B1A4AF0
:1009500052685A60184B184A526819490A405A603E
:10096000154B154A5268882149030A435A60124BB5
:10097000114A1268802149040A431A60C0460E4B8E
:100980001A6880239B041340F9D00B4B0A4A526823
:1009900003218A435A60084B074A526802210A43DE
:1009A0005A60C046044B5B680C221340082BF9D1F7
:1009B000C046BD4602B080BD00100240002002408B
:1009C000FFFFC0FF80B586B000AF786039600023BC
:1009D0007B6100233B610023FB6000237B617CE0A3
:1009E00001227B699A4013003B613B681B683A69AE
:1009F0001340FB60FA683B699A426BD13B681B79F4
:100A0000012B03D03B681B79022B34D17B689B6898
:100A10007A695200032191400A00D2431A407B6850
:100A20009A607B689A683B685B7919007B695B0018
:100A300099400B001A437B689A607B689B889BB245
:100A40007A6992B2110001228A4092B2D24392B2E4
:100A500013409AB27B689A807B689B889AB23B6805
:100A60009B7919007B699BB299400B009BB21343A1
:100A70009AB27B689A807B681B687A69520003216E
:100A800091400A00D2431A407B681A607B681A685A
:100A90003B681B7919007B695B0099400B001A4386
:100AA0007B681A607B68DB687A6992B25200032126
:100AB00091400A00D2431A407B68DA607B68DA68AA
:100AC0003B68DB7919007B695B0099400B001A4396
:100AD0007B68DA607B6901337B617B690F2B00D80F
:100AE0007EE7C046BD4606B080BD80B582B000AF8F
:100AF00078600A00BB1C1A80BB1C1A887B689A614C
:100B0000C046BD4602B080BD80B582B000AF7860FF
:100B10000A00BB1C1A807B68BA1C12881A85C04662
:100B2000BD4602B080BD80B584B000AF78600800DB
:100B30001100BB1C021C1A807B1C0A1C1A700023AB
:100B4000FB600023BB607B1C1A78BB1C1B88072141
:100B50000B409B009A401300FB60BB1C1B88DB080A
:100B60009BB21800BB1C1B88DB089BB21A007B6879
:100B700008329200D358BA1C128807210A4092000A
:100B80000F2191400A00D2431A4011007B680200F5
:100B900008329200D150BB1C1B88DB089BB21A00A4
:100BA0007B6808329200D258FB681343BB60BB1CC1
:100BB0001B88DB089BB21A007B6808329200B96878
:100BC000D150C046BD4604B080BD000080B58CB099
:100BD00000AF786039600023FB620023BB62002312
:100BE0007B627B681B68012293431A007B681A6052
:100BF0007B685B687B627B6A474A13407B623B6829
:100C00009B687A6A13437B627B687A6A5A607B6866
:100C10001B687B627B6A414A13407B623B685A686F
:100C20003B68DB681A433B681B6913437A6A1343CA
:100C30007B627B687A6A1A607B689B687B627B6AEE
:100C4000374A13407B623B685B697A6A13437B6275
:100C50007B687A6A9A600823FB181800FFF732FA5B
:100C60007B68304A934204D10823FB189B69BB621E
:100C700003E00823FB189B68BB627B681A6880232B
:100C80001B02134014D0BB6A5A003B681B68190052
:100C9000100000F0B9F90300FB62BB6A5A003B6820
:100CA0001B681900100000F035FA0B007B6210E0A1
:100CB0003B681B681900B86A00F0A6F90300FB62E4
:100CC0003B681A68BB6A1100180000F023FA0B0099
:100CD0007B623B681B685A087B6A9A4202D8FB6AAF
:100CE0000133FB627B681A6880231B0213400AD021
:100CF000FB6A5B08072213407B62FB6A0A4A1A40C0
:100D00007B6A1343FB62FB6A9AB27B689A81C04696
:100D1000BD460CB080BDC046FFCFFFFFF3E9FFFF2B
:100D2000FFFCFFFF00380140F0FF000080B582B0FB
:100D300000AF78600A00FB1C1A70FB1C1B78002BAC
:100D400006D07B681B6801221A437B681A6006E0A4
:100D50007B681B68012293431A007B681A60C046B7
:100D6000BD4602B080BD80B582B000AF78600A0099
:100D7000BB1C1A80BB1C1B88DB05DB0D9AB27B6891
:100D80001A85C046BD4602B080BD80B582B000AFB6
:100D900078607B689B8C9BB2DB05DB0D9BB21800F7
:100DA000BD4602B080BD80B588B000AFF860B960C4
:100DB000FB1D1A700023BB6100237B6100233B6194
:100DC0000023FB61FB68FB61BB689BB21B0A9BB203
:100DD000BB61BB68FF2213407B6101227B699A40A3
:100DE00013003B61BB69022B03D1FB690433FB6138
:100DF00005E0BB69032B02D1FB690833FB61FB1DD6
:100E00001B78002B06D0FB69FA6911683A690A431E
:100E10001A6006E0FB69FA6912683969C9430A4039
:100E20001A60C046BD4608B080BD80B584B000AF32
:100E3000786039600F23FB1800221A707B68DB6929
:100E40003A68134004D00F23FB1801221A7003E004
:100E50000F23FB1800221A700F23FB181B781800B1
:100E6000BD4604B080BD80B582B000AF7860396007
:100E70007B683A681A62C046BD4602B080BD80B544
:100E800086B000AF786039600023FB6000237B618F
:100E90000023BB601323FB1800221A703B689BB22F
:100EA0001B0A9BB2BB603B68FF2213407B6101229F
:100EB0007B699A4013007B61BB68012B05D17B687D
:100EC0001A687B6913407B610DE0BB68022B05D17A
:100ED0007B685A687B6913407B6104E07B689A6891
:100EE0007B6913407B613B681B0CFB600122FB6844
:100EF0009A401300FB607B68DA69FB681340FB6073
:100F00007B69002B07D0FB68002B04D01323FB1850
:100F100001221A7003E01323FB1800221A70132316
:100F2000FB181B781800BD4606B080BD80B584B0A4
:100F300000AF786039600023FB600023BB603B6832
:100F40001B0CFB600122FB689A401300BB607B68AE
:100F5000BA681A62C046BD4604B080BD80B584B090
:100F600000AF78600023FB607B689B78002B39D052
:100F7000244A7B681B789B08DBB2C0339B009B58DC
:100F8000FB607B681B781A0003231340DB00FF2201
:100F90009A401300DA43FB681340FB607B685B7880
:100FA0009B01FF221A407B681B78190003230B402A
:100FB000DB009A401300FA681343FB6011497B6819
:100FC0001B789B08DBB2C0339B00FA685A500D4B6C
:100FD0007A68127811001F220A40012191400A000C
:100FE0001A600AE007497B681B781A001F23134028
:100FF00001229A40130080228B50C046BD4604B0A7
:1010000080BDC04600E100E0002243088B4274D35B
:1010100003098B425FD3030A8B4244D3030B8B42F9
:1010200028D3030C8B420DD3FF22090212BA030C02
:101030008B4202D31212090265D0030B8B4219D3E3
:1010400000E0090AC30B8B4201D3CB03C01A524103
:10105000830B8B4201D38B03C01A5241430B8B424B
:1010600001D34B03C01A5241030B8B4201D30B0334
:10107000C01A5241C30A8B4201D3CB02C01A52415B
:10108000830A8B4201D38B02C01A5241430A8B421E
:1010900001D34B02C01A5241030A8B4201D30B0207
:1010A000C01A5241CDD2C3098B4201D3CB01C01A21
:1010B000524183098B4201D38B01C01A524143092B
:1010C0008B4201D34B01C01A524103098B4201D319
:1010D0000B01C01A5241C3088B4201D3CB00C01A86
:1010E000524183088B4201D38B00C01A52414308FE
:1010F0008B4201D34B00C01A5241411A00D2014623
:10110000524110467047FFE701B5002000F006F895
:1011100002BDC0460029F7D076E770477047C04649
:10112000000000000102030401020304060708098D
:10113000006CDC020000000000000000010203045B
:04114000060708098D
:0400000508000000EF
:00000001FF
