:020000040800F2
:10000000E0040020250100088501000885010008A2
:100010008501000885010008850100080000000036
:100020000000000000000000000000008501000842
:10003000850100080000000085010008590500083E
:100040008501000885010008850100088501000878
:100050008501000885010008850100088501000868
:100060008501000885010008850100088501000858
:100070008501000885010008850100088501000848
:1000800085010008850100088501000800000000C6
:1000900000000000000000000000000085010008D2
:1000A0008501000885010008850100088501000818
:1000B0008501000885010008850100088501000808
:1000C00085010008850100088501000885010008F8
:1000D00085010008710600088501000885010008F7
:1000E0008501000885010008850100080000000066
:1000F0000000000000000000000000000000000000
:1001000000000000000000000000000000000000EF
:1001100000000000000000008501000885010008C3
:100120005FF808F180B582B000AF114B7B60114BD6
:100130003B6007E03B681A1D3A607A68111D7960E0
:1001400012681A603B680C4A9342F3D30B480C497F
:100150004FF000028842B8BF40F8042BFADB00F0F1
:1001600015F800F05BFB00BF0837BD4680BD00BF3F
:10017000EA0D0008000000202800002028000020D0
:10018000E000002080B400AFFEE700BF80B500AF04
:10019000174A174B1B6843F0010313601449144BB3
:1001A0005A68144B13404B60114A114B1B6823F0E3
:1001B000847323F4803313600D4A0D4B1B6823F4C2
:1001C000802313600A4A0A4B5B6823F4FE035360E2
:1001D000074B4FF41F029A60054B0022DA6200F0D1
:1001E0000DF8054B4FF000629A6000BF80BD00BF64
:1001F000001002400000FFF800ED00E080B500AF05
:1002000000F002F800BF80BD80B483B000AF0023CF
:100210007B6000233B60304A2F4B1B6843F48033E4
:1002200013602D4B1B6803F400333B607B68013384
:100230007B603B68002B03D17B68B3F5A06FF0D1E6
:10024000254B1B6803F40033002B02D001233B60D5
:1002500001E000233B603B68012B37D11E4A1E4B57
:100260005B6853601C4A1C4B5B6853601A4A1A4B0C
:100270005B685360184A184B5B6823F47C13536027
:10028000154A154B5B6843F498135360124A124B9E
:100290001B6843F08073136000BF0F4B1B6803F0B3
:1002A0000073002BF9D00C4A0B4B5B6823F003035F
:1002B0005360094A084B5B6843F00203536000BF78
:1002C000054B5B6803F00C03082BF9D100BF0C371A
:1002D000BD4680BC704700BF0010024080B489B0AA
:1002E00000AF786039600023FB6100233B6100238D
:1002F000BB610023FB6000237B610023BB603B6884
:10030000DB7803F00F03FB613B68DB7803F010033D
:10031000002B05D03B689B781A46FB691343FB61B1
:100320003B681B88DBB2002B44D07B681B687B6179
:100330000023BB6138E00122BB6902FA03F3FB60D2
:100340003B681B881A46FB6813403B613A69FB68AF
:100350009A4226D1BB699B00FB600F22FB6802FA20
:1003600003F3BB60BB68DB437A6913407B61FA69C6
:10037000FB6802FA03F37A6913437B613B68DB781D
:10038000282B05D10122BB699A407B685A6108E09D
:100390003B68DB78482B04D10122BB699A407B681B
:1003A0001A61BB690133BB61BB69072BC3D97B6889
:1003B0007A691A603B681B88FF2B46D97B685B68AB
:1003C0007B610023BB613AE0BB690833012202FA7A
:1003D00003F3FB603B681B881A46FB6813403B61D4
:1003E0003A69FB689A4227D1BB699B00FB600F22E8
:1003F000FB6802FA03F3BB60BB68DB437A69134016
:100400007B61FA69FB6802FA03F37A6913437B6143
:100410003B68DB78282B05D1BB69083301229A4061
:100420007B685A613B68DB78482B05D1BB69083390
:1004300001229A407B681A61BB690133BB61BB69C9
:10044000072BC1D97B687A695A6000BF2437BD4643
:1004500080BC704780B483B000AF78600B467B806F
:100460007A887B681A6100BF0C37BD4680BC704734
:1004700080B483B000AF78600B467B807A887B685D
:100480005A6100BF0C37BD4680BC704780B483B052
:1004900000AF03463960FB7197F90730002B0BDA88
:1004A0000D49FB7903F00F03043B3A68D2B2120105
:1004B000D2B20B441A7609E0084997F907303A6836
:1004C000D2B21201D2B20B4483F8002300BF0C3722
:1004D000BD4680BC704700BF00ED00E000E100E0D9
:1004E00080B582B000AF78607B68B3F1807F01D3C4
:1004F000012311E00A4A7B6823F07F43013B5360EC
:100500000F214FF0FF30FFF7C1FF054B00229A602B
:10051000034B07221A60002318460837BD4680BDEA
:1005200010E000E080B582B000AF0121102000F0A3
:1005300045FA4FF44073BB801023FB710323BB715A
:100540003B1D19460348FFF7C9FE00BF0837BD46EB
:1005500080BD00BF0010014080B500AF184B1B6884
:100560000133174A1360164B1B68B3F57A7F25DDFC
:10057000134B00221A60134B1B78002B0CBF012376
:100580000023DBB21A460F4B1A700E4B1B78002B60
:100590000AD04FF480710C48FFF75CFF4FF40071F4
:1005A0000948FFF765FF09E04FF480710648FFF73F
:1005B0005FFF4FF400710448FFF74CFF00BF80BDA0
:1005C000280000202C0000200010014080B586B0DB
:1005D00000AF012144F2040000F0F0F925233B753F
:1005E00000237B750023BB750123FB7507F1140302
:1005F000184600F095FB4FF400733B821823FB7400
:100600000323BB7407F1100319461748FFF766FE72
:100610004FF480633B820423FB7407F110031946F7
:100620001148FFF75BFE4FF4E1333B600023BB80D2
:100630000023FB8000233B810023BB810C237B81B3
:100640003B461946094800F0D7F90121074800F058
:100650008DFA012240F22551044800F0A7FA00BFAC
:100660001837BD4680BD00BF00080140003801407A
:1006700080B500AF1B4B1B889BB203F02003002BFF
:100680002ED0184800F0ECFA0346DAB2164B1A7076
:10069000164B1B78DBB21A46134B1B78D9B2144B9E
:1006A0009954124B1B78DBB20133DAB20F4B1A703C
:1006B0000D4B1B78DBB20D2B07D00C4B1B78DBB23C
:1006C0004F2B05D900F018F802E00A4B01221A70EE
:1006D000054B1B78DBB29BB21946024800F0AEFA1C
:1006E00000BF80BD00380140DC000020DD0000209C
:1006F000300000202D00002080B400AF0E4B0022FF
:100700001A700DE00C4B1B78DBB21A460B4B002124
:100710009954094B1B78DBB20133DAB2064B1A70DD
:10072000054B1B78DBB24F2BECD9034B00221A7020
:1007300000BFBD4680BC7047DD00002030000020B7
:1007400080B582B000AF786010E07B685A1C7A6098
:100750001B789BB21946094800F070FA00BF40218F
:10076000064800F08DFA0346002BF8D07B681B7812
:10077000002BEAD100BF0837BD4680BD00380140DC
:1007800080B588B000AF786007F10803184600F024
:1007900067F8FB68094AA2FB03235B0B7A6802FB3C
:1007A00003F3FB6102E0FB69013BFB61FB69002B8A
:1007B000F9D100BF2037BD4680BD00BF5917B7D162
:1007C00080B500AF102000F093FA022000F074FA18
:1007D00000BF80BD80B485B000AF0E4BFB600E4BF8
:1007E000BB600023FB800CE0FB681A68BB681A60E2
:1007F000FB680433FB60BB680433BB60FB880133D8
:10080000FB80FB88022BEFD900BF1437BD4680BCAC
:10081000704700BF00FC0008D000002080B500AF8A
:1008200062B60C4B1B680C4AA2FB03239B091846BB
:10083000FFF756FEFFF776FEFFF7C8FEFFF7C0FF93
:10084000FFF7C8FF0548FFF77BFF4FF47A70FFF70B
:1008500097FFF7E700000020D34D6210E40D000879
:1008600080B489B000AF78600023FB610023BB61D6
:1008700000237B6100233B610023FB604A4B5B68E4
:1008800003F00C03FB61FB69042B07D0082B09D094
:10089000002B2FD17B68454A1A602FE07B68434AC2
:1008A0001A602BE0404B5B6803F47013BB613E4B56
:1008B0005B6803F480337B61BB699B0C0233BB61D3
:1008C0007B69002B06D1BB69394A02FB03F27B68C6
:1008D0001A6013E0344BDB6A03F00F030133FB6053
:1008E000324AFB68B2FBF3F3BA6902FB03F27B689E
:1008F0001A6003E07B682D4A1A6000BF2A4B5B68D0
:1009000003F0F003FB61FB691B09FB61294AFB69EA
:1009100013441B78DBB23B617B681A683B69DA40A1
:100920007B685A60204B5B6803F4E063FB61FB6902
:100930001B0AFB611F4AFB6913441B78DBB23B6156
:100940007B685A683B69DA407B689A60164B5B6843
:1009500003F46053FB61FB69DB0AFB61154AFB6929
:1009600013441B78DBB23B617B685A683B69DA4011
:100970007B68DA600C4B5B6803F44043FB61FB6906
:100980009B0BFB610C4AFB6913441B78DBB23B6198
:100990007B68DA683B69B2FBF3F27B681A6100BFDF
:1009A0002437BD4680BC70470010024000127A0018
:1009B00000093D00140000202400002080B483B012
:1009C00000AF78600B46FB70FB78002B06D009491E
:1009D000084B9A697B6813438B6106E00549054B18
:1009E0009A697B68DB4313408B6100BF0C37BD46BF
:1009F00080BC70470010024080B58CB000AF7860BA
:100A000039600023FB620023BB6200237B6200236A
:100A10003B620023FB617B68FB617B681B8A9BB2A6
:100A2000FB62FA6A4CF6FF731340FB623B68DB889B
:100A30001A46FB6A1343FB62FB6A9AB27B681A820E
:100A40007B689B899BB2FB62FA6A4EF6F3131340F4
:100A5000FB623B689A883B681B8913439AB23B68E8
:100A60005B8913439BB21A46FB6A1343FB62FB6A22
:100A70009AB27B689A817B689B8A9BB2FB62FA6A16
:100A80004FF6FF431340FB623B689B891A46FB6AA3
:100A90001343FB62FB6A9AB27B689A8207F10803F0
:100AA0001846FFF7DDFEFB692E4A934202D17B69AF
:100AB000BB6201E03B69BB627B689B899BB21BB256
:100AC000002B0CDABA6A13469B0013449A001A44AE
:100AD0003B681B685B00B2FBF3F37B620BE0BA6A16
:100AE00013469B0013449A001A443B681B689B0002
:100AF000B2FBF3F37B627B6A1B4AA2FB03235B0915
:100B00001B01FB62FB6A1B09642202FB03F37A6A86
:100B1000D31A3B627B689B899BB21BB2002B0CDA19
:100B20003B6ADB003233104AA2FB03235B0903F06C
:100B30000703FA6A1343FB620BE03B6A1B01323383
:100B4000094AA2FB03235B0903F00F03FA6A13436C
:100B5000FB62FB6A9AB27B681A8100BF3037BD46E0
:100B600080BD00BF003801401F85EB5180B483B0C9
:100B700000AF78600B46FB70FB78002B08D07B68D9
:100B80009B899BB243F400539AB27B689A8107E039
:100B90007B689B899BB223F400539AB27B689A814D
:100BA00000BF0C37BD4680BC704700BF80B487B023
:100BB00000AF78600B467B8013467B7000233B615F
:100BC0000023FB600023BB6000237B617B687B61AB
:100BD0007B88DBB25B09DBB23B617B8803F01F03E0
:100BE000FB600122FB6802FA03F3BB603B69012B47
:100BF00003D17B690C337B6109E03B69022B03D194
:100C00007B6910337B6102E07B6914337B617B7805
:100C1000002B06D07B697A691168BA680A431A60AA
:100C200006E07B697A691168BA68D2430A401A60A3
:100C300000BF1C37BD4680BC704700BF80B483B086
:100C400000AF78600B467B807B88C3F308039AB2C1
:100C50007B689A8000BF0C37BD4680BC704700BFE0
:100C600080B483B000AF78607B689B889BB2C3F38D
:100C700008039BB218460C37BD4680BC704700BFC6
:100C800080B485B000AF78600B467B800023FB7397
:100C90007B681B889AB27B8813409BB2002B02D0E2
:100CA0000123FB7301E00023FB73FB7B1846143721
:100CB000BD4680BC704700BF80B485B000AF78608F
:100CC0000023FB60094B1B68FB60FB6803F03803E3
:100CD000FB60FA687B681343FB60044AFB6813609F
:100CE00000BF1437BD4680BC704700BF00200240E3
:100CF00080B483B000AF7860084A084B1B6823F0CB
:100D0000100313600549054B1A687B6813430B6099
:100D100000BF0C37BD4680BC704700BF00200240BA
:100D200080B487B000AF786000237B6100233B6113
:100D30000F23FB607B68DB78002B3AD0274BDB6806
:100D4000DB4303F4E0631B0A7B617B69C3F10403AB
:100D50003B61FA687B6922FA03F3FB607B685B788E
:100D60001A463B6902FA03F37B617B689B781A465B
:100D7000FB6813407A6913437B617B691B017B61CC
:100D8000174A7B681B787969C9B213440A4683F80D
:100D90000023134A7B681B785B09DBB218467B682B
:100DA0001B7803F01F03012101FA03F342F82030FE
:100DB0000FE00B497B681B785B09DBB218467B6848
:100DC0001B7803F01F0301229A4000F1200341F831
:100DD000232000BF1C37BD4680BC704700ED00E0FB
:0A0DE00000E100E0746573740A007E
:100DEA0000366E010000000000000000010203044A
:100DFA0006070809000000000102030401020304B7
:080E0A000607080902040608AE
:0400000508000000EF
:00000001FF
