:020000040800F2
:10000000780F002071060008E1060008E1060008EC
:10001000E1060008E1060008E10600080000000013
:10002000000000000000000000000000E1060008E1
:10003000E106000800000000E1060008E1060008F3
:10004000E1060008E1060008E1060008E1060008F4
:10005000E1060008E1060008E1060008E1060008E4
:10006000E1060008E1060008E1060008850C00082A
:10007000E1060008E1060008E1060008E1060008C4
:10008000E1060008E1060008E1060008E1060008B4
:10009000E1060008E1060008E1060008E1060008A4
:1000A000E1060008E1060008E1060008E106000894
:1000B000E1060008E1060008E1060008E106000884
:1000C000E1060008E1060008E1060008E106000874
:1000D000E1060008E1060008E1060008E106000864
:1000E000E1060008E1060008E10600080000000043
:1000F0000000000000000000000000000000000000
:1001000000000000000000005FF808F180B485B036
:1001100000AF786039604FF00003FB817B681B887B
:10012000FB817A684FF43053C4F201039A421FD026
:100130007A684FF45053C4F201039A4218D07B6896
:10014000B3F1804F14D07A684FF48063C4F2000397
:100150009A420DD07A684FF40063C4F200039A42C9
:1001600006D07A684FF44063C4F200039A4208D183
:10017000FB8923F07003FB813B685A88FB8913439A
:10018000FB817A684FF48053C4F200039A420FD087
:100190007A684FF4A053C4F200039A4208D0FB8956
:1001A00023F44073FB813B68DA88FB891343FB81AE
:1001B0007B68FA891A803B689A887B689A853B68D5
:1001C0001A887B681A857A684FF43053C4F20103A9
:1001D0009A421BD07A684FF45053C4F201039A42FA
:1001E00014D07A684FF48043C4F201039A420DD0D0
:1001F0007A684FF48843C4F201039A4206D07A68C1
:100200004FF49043C4F201039A4204D13B681B7A35
:100210001A467B681A867B684FF001029A8207F1C2
:100220001407BD4680BC704780B485B000AF7860CD
:1002300039604FF000037B814FF00003FB814FF0EA
:100240000003BB817B681B8C9BB223F001039AB235
:100250007B681A847B681B8CFB817B689B88BB81D5
:100260007B681B8B7B817B8923F070037B817B897F
:1002700023F003037B813B681A887B8913437B81CE
:10028000FB8923F00203FB813B681A89FB89134336
:10029000FB813B685A88FB891343FB817A684FF4E2
:1002A0003053C4F201039A421BD07A684FF4505382
:1002B000C4F201039A4214D07A684FF48043C4F226
:1002C00001039A420DD07A684FF48843C4F20103C7
:1002D0009A4206D07A684FF49043C4F201039A42DE
:1002E00023D1FB8923F00803FB813B685A89FB89F2
:1002F0001343FB81FB8923F00403FB813B689A884D
:10030000FB891343FB81BB8923F48073BB81BB89C9
:1003100023F40073BB813B689A89BB891343BB817B
:100320003B68DA89BB891343BB817B68BA899A80B1
:100330007B687A891A833B68DA887B689A867B684F
:10034000FA891A8407F11407BD4680BC704700BFC4
:1003500080B483B000AF78600B46FB70FB78002B55
:1003600008D07B681B889BB243F001039AB27B687C
:100370001A8007E07B681B889BB223F001039AB2C6
:100380007B681A8007F10C07BD4680BC704700BF30
:1003900080B483B000AF786013460A467A807B70E1
:1003A0007B78002B08D07B689B899AB27B881343AB
:1003B0009AB27B689A810AE07B689B899AB27B88B3
:1003C0006FEA03039BB213409AB27B689A8107F1EC
:1003D0000C07BD4680BC704780B485B000AF786024
:1003E0000B467B804FF00003FB817B681B8BFB81FE
:1003F000FB8923F00803FB81FA897B881343FB8187
:100400007B68FA891A8307F11407BD4680BC7047E0
:1004100080B500AF4FF48053C4F202034FF4805212
:10042000C4F20202126842F001021A604FF48052D4
:10043000C4F202024FF48053C4F2020359684FF031
:100440000003CFF6FF030B4053604FF48053C4F218
:1004500002034FF48052C4F20202126822F0847246
:1004600022F480321A604FF48053C4F202034FF436
:100470008052C4F20202126822F480221A604FF401
:100480008053C4F202034FF48052C4F20202526855
:1004900022F4FE025A604FF48053C4F202034FF478
:1004A0001F029A6000F008F84FF46D43CEF200038B
:1004B0004FF000629A6080BD80B500AF00F002F896
:1004C00080BD00BF80B483B000AF4FF000037B60FD
:1004D0004FF000033B604FF48053C4F202034FF42B
:1004E0008052C4F20202126842F480321A604FF461
:1004F0008053C4F202031B6803F400333B607B6843
:1005000003F101037B603B68002B03D17B68B3F5EB
:10051000A06FECD14FF48053C4F202031B6803F4C4
:100520000033002B03D04FF001033B6002E04FF09B
:1005300000033B603B68012B40F094804FF4005374
:10054000C4F202034FF40052C4F20202126842F0F5
:1005500010021A604FF40053C4F202034FF4005229
:10056000C4F20202126822F003021A604FF4005330
:10057000C4F202034FF40052C4F20202126842F0C5
:1005800002021A604FF48053C4F202034FF4805207
:10059000C4F2020252685A604FF48053C4F202035C
:1005A0004FF48052C4F2020252685A604FF48053F2
:1005B000C4F202034FF48052C4F20202526842F4C1
:1005C00080625A604FF48053C4F202034FF48052A9
:1005D000C4F20202526822F47C125A604FF4805333
:1005E000C4F202034FF48052C4F20202526842F491
:1005F000E8125A604FF48053C4F202034FF4805261
:10060000C4F20202126842F080721A6000BF4FF416
:100610008053C4F202031B6803F00073002BF6D072
:100620004FF48053C4F202034FF48052C4F202022A
:10063000526822F003025A604FF48053C4F202035E
:100640004FF48052C4F20202526842F002025A6031
:1006500000BF4FF48053C4F202035B6803F00C0345
:10066000082BF6D107F10C07BD4680BC704700BFD0
:1006700080B582B000AF41F28443C0F600037B60D6
:1006800040F20003C2F200033B600BE07B681A6893
:100690003B681A603B6803F104033B607B6803F12D
:1006A00004037B603A6840F21403C2F200039A42EA
:1006B000ECD3094809494FF000028842B8BF40F81E
:1006C000042BFFF6FAAFFFF7A3FE00F0EBFB07F1F8
:1006D0000807BD4680BD000014000020780B0020F4
:1006E00080B400AFFEE700BF80B489B000AF78608F
:1006F00039604FF00003FB614FF000033B614FF0A6
:100700000003BB614FF00003FB604FF000037B610F
:100710004FF00003BB603B68DB7803F00F03FB6125
:100720003B68DB7803F01003002B04D03B689B7818
:10073000FA691343FB613B681B88DBB2002B4ED088
:100740007B681B687B614FF00003BB6141E0BB69C4
:100750004FF0010202FA03F3FB603B681B881A4664
:10076000FB6813403B613A69FB689A422DD1BB6933
:100770004FEA8303FB60FB684FF00F0202FA03F3BA
:10078000BB60BB686FEA03037A6913407B61FB6857
:10079000FA6902FA03F37A6913437B613B68DB78F9
:1007A000282B07D1BB694FF0010202FA03F27B68E4
:1007B0005A610AE03B68DB78482B06D1BB694FF0F1
:1007C000010202FA03F27B681A61BB6903F10103BB
:1007D000BB61BB69072BBAD97B687A691A603B6831
:1007E0001B88FF2B53D97B685B687B614FF000034C
:1007F000BB6146E0BB6903F108034FF0010202FA56
:1008000003F3FB603B681B881A46FB6813403B619F
:100810003A69FB689A4230D1BB694FEA8303FB60B7
:10082000FB684FF00F0202FA03F3BB60BB686FEA8C
:1008300003037A6913407B61FB68FA6902FA03F3E8
:100840007A6913437B613B68DB78282B08D1BB694D
:1008500003F108034FF0010202FA03F27B685A61C8
:100860003B68DB78482B08D1BB6903F108034FF0E4
:10087000010202FA03F27B681A61BB6903F101030A
:10088000BB61BB69072BB5D97B687A695A6007F1F0
:100890002407BD4680BC704780B483B000AF0346D8
:1008A000FB71FA7941F28433C0F600039B5C184671
:1008B00007F10C07BD4680BC704700BF80B584B00F
:1008C00000AFF860B9607A603B60BB6819683A684D
:1008D00013464FEA43039B184FEA031308464FF0B1
:1008E00000011A4600F0B8FCBB6819683A68134664
:1008F0004FEA43039B184FEA0313CA18BB681A60F8
:1009000007F11007BD4680BD80B586B000AF7860A6
:1009100039607B681B781846FFF7BEFF0346FB7300
:100920007B685B781846FFF7B7FF0346BB737B68AD
:100930009B781846FFF7B0FF03467B734FF08003A8
:10094000FB754FF000033B6138E0FA7BFB7D134001
:10095000DBB2002B02D04FF0150301E04FF009038A
:100960003A68396901F1080122F81130BA7BFB7D40
:100970001340DBB2002B02D04FF0150301E04FF023
:1009800009033A68396922F811307A7BFB7D1340FC
:10099000DBB2002B02D04FF0150301E04FF009034A
:1009A0003A68396901F1100122F81130FB7D4FEAF4
:1009B0005303FB753B6903F101033B613B69072B63
:1009C000C3DD07F11807BD4680BD00BF80B586B006
:1009D00000AFF860B9607A603B60FB681B687B61C0
:1009E000BB681B683B617B681A683B68D21A7B68EE
:1009F0001A600DE07A697B6903F103037B613B694F
:100A0000396901F13001396110461946FFF77CFF61
:100A10003B68002B0CBF00230123DBB23A6802F1D4
:100A2000FF323A60002BE5D1FB687A691A60BB6837
:100A30003A691A6007F11807BD4680BD90B589B0C4
:100A400000AFF860B9607A6040F21403C2F20003AC
:100A50001B68002B40F0838040F21403C2F20003B5
:100A60004FF001021A6040F65833C2F20003FA68F0
:100A70001A6040F65C33C2F20003BA681A6040F6AE
:100A80006033C2F200037A681A6040F21803C2F2BF
:100A900000033B61344BFB6107F110034FF0000092
:100AA00019464FF000024FF00203FFF707FF40F630
:100AB0005833C2F200031C6840F66033C2F20003F0
:100AC0001B68BB61FA693B69D31A4FEA23124AF6E5
:100AD000AB23CAF6AA2303FB02F37B617A69BB69E5
:100AE0009A4238BF134607F1100240F65C30C2F25A
:100AF0000000114640F66032C2F20002A0473A6997
:100B0000FB699A4213D2FA693B69D31A4FEA23125E
:100B10004AF6AB23CAF6AA2303FB02F307F110023D
:100B20004FF0000011464FF00002FFF7C7FE4FF0F4
:100B30000800C4F202004FF4B46100F0BFFA4FF4B1
:100B40000060C4F200004FF00101FFF701FC4FF01C
:100B50000800C4F202004FF0010100F075FA07F13D
:100B60002407BD4690BD00BF580B002090B585B04E
:100B700000AF7860396040F65833C2F200031B685A
:100B8000002B17D14FF40060C4F200004FF00001B9
:100B9000FFF7DEFB4FF00800C4F202004FF0000147
:100BA00000F052FA40F21403C2F200034FF00002C8
:100BB0001A6062E040F66033C2F200031B68002B4B
:100BC0001BD13A687B68D31A4FEA23124AF6AB234B
:100BD000CAF6AA2303FB02F307F104024FF0000058
:100BE00011464FF00002FFF769FE40F65833C2F29B
:100BF00000034FF000021A603FE040F65833C2F2A3
:100C000000031C6840F66033C2F200031B68FB60FF
:100C10003A687B68D31A4FEA23124AF6AB23CAF626
:100C2000AA2303FB02F3BB60BA68FB689A4238BF91
:100C3000134607F1040240F65C30C2F20000114690
:100C400040F66032C2F20002A0477A683B689A42DE
:100C500013D23A687B68D31A4FEA23124AF6AB23C1
:100C6000CAF6AA2303FB02F307F104024FF00000C7
:100C700011464FF00002FFF721FE07F11407BD46B1
:100C800090BD00BF80B500AF4FF0040000F024FA23
:100C90000346002B0AD04FF0040000F04DFA40F25A
:100CA0001800C2F200000949FFF760FF4FF0020090
:100CB00000F012FA0346002B07D04FF0020000F0BC
:100CC0003BFA02480249FFF751FF80BDB8050020FA
:100CD000580B002080B594B000AF4FF004004FF0E7
:100CE000010100F047F94FF008004FF0010100F05A
:100CF00017F94FF001004FF0010100F0E7F84FF055
:100D00004003A7F84C304FF0030387F84E304FF004
:100D1000180387F84F3007F14C034FF44060C4F2DA
:100D200001001946FFF7E0FC40F20003C2F20003A5
:100D30001A6849F68173C1F25E63A3FB02134FEA9E
:100D400053539BB203F1FF339BB2A7F840304FF0EF
:100D50000003A7F842304FF01D03A7F844304FF0CE
:100D60000003A7F8463007F140034FF40060C4F2D7
:100D700000001946FFF7CAF94FF060033B864FF0B9
:100D800001037B864FF00003FB864FF000033B8797
:100D900007F130034FF40060C4F200001946FFF77A
:100DA00043FA4FF40060C4F200004FF00801FFF76F
:100DB00013FB40F63403C4F200037B6040F21803D7
:100DC000C2F20003BB604FF01003FB604FF4B4634A
:100DD0003B614FF000037B614FF08003BB614FF438
:100DE0008073FB614FF480633B624FF020037B62B2
:100DF0004FF40053BB624FF00003FB6207F10403A2
:100E00004FF00800C4F20200194600F0DDF84FF47C
:100E10000060C4F200004FF400714FF00102FFF7D0
:100E2000B7FA4FF00B033B704FF000037B704FF0AD
:100E30000003BB704FF00103FB703B46184600F007
:100E400097F94FF00800C4F202004FF006014FF08E
:100E5000010200F015F907F15007BD4680BD00BF43
:100E600080B400AF40F21403C2F200031B68002BF1
:100E700014BF00230123DBB21846BD4680BC704777
:100E800080B582B000AF7860396040F6CD10C0F612
:100E9000000079683A68FFF7D1FD07F10807BD4601
:100EA00080BD00BF80B500AFFFF714FF00BFFFF7A4
:100EB000D7FF0346002BFAD040F66430C2F20000A0
:100EC0004FF00601FFF7DCFF00BFEFE780B483B00F
:100ED00000AF78600B46FB70FB78002B0CD04FF412
:100EE0008053C4F202034FF48052C4F202025169EB
:100EF0007A680A435A610DE04FF48053C4F202034A
:100F00004FF48052C4F2020251697A686FEA020219
:100F10000A405A6107F10C07BD4680BC704700BF0C
:100F200080B483B000AF78600B46FB70FB78002B79
:100F30000CD04FF48053C4F202034FF48052C4F239
:100F4000020291697A680A439A610DE04FF4805376
:100F5000C4F202034FF48052C4F2020291697A682B
:100F60006FEA02020A409A6107F10C07BD4680BC95
:100F7000704700BF80B483B000AF78600B46FB7051
:100F8000FB78002B0CD04FF48053C4F202034FF4D3
:100F90008052C4F20202D1697A680A43DA610DE034
:100FA0004FF48053C4F202034FF48052C4F20202A1
:100FB000D1697A686FEA02020A40DA6107F10C0728
:100FC000BD4680BC704700BF80B485B000AF78607C
:100FD00039604FF00003FB607B681B68FB60FB68B7
:100FE00023F4FF4323F07003FB603B689A683B687F
:100FF0001B6A1A433B681B691A433B685B691A43C7
:101000003B689B691A433B68DB691A433B685B6A30
:101010001A433B689B6A1343FA681343FB607B687F
:10102000FA681A603B68DA687B685A603B681A683D
:101030007B689A603B685A687B68DA6007F114073E
:10104000BD4680BC704700BF80B483B000AF7860FD
:101050000B46FB70FB78002B06D07B681B6843F0C7
:1010600001027B681A6006E07B681A684FF6FE731F
:1010700013407A68136007F10C07BD4680BC7047C7
:1010800080B485B000AFF860B9601346FB71FB799E
:10109000002B06D0FB681A68BB681A43FB681A600D
:1010A00007E0FB681A68BB686FEA03031A40FB6835
:1010B0001A6007F11407BD4680BC704780B483B046
:1010C00000AF78600B467B807A887B685A6007F1B6
:1010D0000C07BD4680BC704780B485B000AF786017
:1010E0004FF00003FB734FF00003BB607B6803F01D
:1010F0008053002B06D04FF48063C4F202031B68B8
:10110000BB6005E04FF00003C4F202031B68BB6044
:10111000BA687B681340002B03D04FF00103FB73C8
:1011200002E04FF00003FB73FB7B184607F1140746
:10113000BD4680BC704700BF80B483B000AF78600C
:101140007B6803F08053002B06D04FF48063C4F219
:1011500002037A685A6005E04FF00003C4F202030C
:101160007A685A6007F10C07BD4680BC704700BF23
:1011700080B487B000AF78604FF000037B614FF020
:1011800000033B614FF00F03FB607B68DB78002BB3
:1011900047D04FF46D43CEF20003DB686FEA0303E0
:1011A00003F4E0634FEA13237B617B69C3F104031B
:1011B0003B617B69FA6822FA03F3FB607B685B782A
:1011C0001A463B6902FA03F37B617B689B781A46F7
:1011D000FB6813407A6913437B617B694FEA031311
:1011E0007B614FF46143CEF200037A6812781146B6
:1011F0007A69D2B25B1883F800234FF46143CEF2D0
:1012000000037A6812784FEA5212D2B279680978EC
:1012100001F01F014FF0010000FA01F143F8221024
:1012200014E04FF46143CEF200037A6812784FEA7B
:101230005212D2B27968097801F01F014FF0010013
:1012400000FA01F102F1200243F8221007F11C0715
:10125000BD4680BC704700BFF0B48407034600F071
:101260008D80541E002A00F08780E507CEB211D48D
:101270001A4602F8016B13461546920710D0621EFB
:10128000002C79D003F8016B14469A071D4607D04D
:10129000013CEDE7034603F8016B9A071D46F7D1C1
:1012A000032C52D9CEB246EA06270F2C47EA074351
:1012B0002DD9A4F1100217460F2FC2F300162B6090
:1012C0006B60AB60EB6005F1100216D93EB1103FC8
:1012D000136053609360D36010320F2F0DD9203FFD
:1012E00002F11006136053609360D3601361536181
:1012F0009361D36120320F2FF1D8A4F1100222F0B4
:101300000F0204F00F041032032C15441DD9271FBF
:101310003E462A46032E42F8043BC7F380070DD908
:1013200027B1043E032E42F8043B07D9174647F87D
:10133000043B083E53603A1D032EF7D8231F23F0C9
:101340000302131D04F00304ED18ACB1C9B2EA4363
:101350002C1905F8011BA318A54203F001020BD0BC
:101360001AB105F8011BA54206D02B4603F8011B54
:1013700069705D1CA542F8D1F0BC70470546144663
:101380008EE700BF00000000000000000000000029
:101390000101010101010101020202020202030333
:1013A00003030404040405050505060606070707EC
:1013B0000808080909090A0A0B0B0B0C0C0D0D0E85
:1013C0000E0F0F10101111121213131414151516FD
:1013D00017171818191A1A1B1C1C1D1E1E1F202057
:1013E00021222323242526262728292A2A2B2C2D8F
:1013F0002E2F2F30313233343536373838393A3BA7
:101400003C3D3E3F4041424344454647494A4B4CA0
:101410004D4E4F5051525455565758595B5C5D5E76
:101420005F61626364666768696B6C6D6F7071732E
:1014300074757778797B7C7E7F80828385868889C6
:101440008B8C8E8F9192949597989A9B9D9EA0A23B
:10145000A3A5A6A8AAABADAFB0B2B4B5B7B9BABC94
:10146000BEC0C1C3C5C7C8CACCCECFD1D3D5D7D9CA
:10147000DADCDEE0E2E4E6E8E9EBEDEFF1F3F5F7E4
:04148000F9FBFDFF78
:1014840000A24A040000000000000000010203045E
:041494000607080936
:0400000508000000EF
:00000001FF
