:020000040800F2
:1000000000100020BD160008091700080917000895
:1000100000000000000000000000000000000000E0
:1000200000000000000000000000000009170008A8
:100030000000000000000000091700086109000826
:100040000917000809170008091700080917000810
:100050000917000809170008091700080917000800
:1000600009170008091700080917000809170008F0
:1000700009170008091700080917000809170008E0
:1000800009170008091700080000000009170008F8
:1000900009170008091700080917000809170008C0
:1000A000091700080917000809170008C506000805
:1000B00009170008000000000917000800000000F0
:1000C0005FF808F180B588B000AF78600023FB616D
:1000D0000023BB6100237B6100233B610023FB60A5
:1000E0006A4B5B680C221340FB61FB69042B07D051
:1000F000082B09D0002B31D17B68654A1A6031E0AA
:100100007B68634A1A602DE0604B5A68F0239B03BA
:100110001340BB615D4B5A6880235B0213407B61D7
:10012000BB699B0C0233BB617B69002B05D1BB69AA
:10013000584A5A437B681A6014E0544BDB6A0F221A
:10014000134001333B613969514801F0C1FE03009E
:100150001A00BB695A437B681A6003E07B684C4A0B
:100160001A60C046494B5B68F0221340FB61FB6993
:100170001B09FB61484AFB69D3181B78DBB2FB60A3
:100180007B681A68FB68DA407B685A603F4B5A68A4
:10019000E023DB001340FB61FB691B0AFB613E4A65
:1001A000FB69D3181B78DBB2FB607B685A68FB687D
:1001B000DA407B689A60354B1A6B80235B001A40EB
:1001C00080235B009A4203D07B68344ADA6013E0F4
:1001D0002E4B5A688023DB011A408023DB019A42B0
:1001E00005D07B689B685A087B68DA6004E07B680E
:1001F0009B689A087B68DA60244B1B6B4022134093
:10020000402B03D07B68264A1A6103E07B6880227A
:1002100012021A611D4B1B6B10221340102B03D0CE
:100220007B681B4A5A6103E07B681A687B685A61E5
:10023000164B1B6B0322134004D17B689A687B68C2
:100240009A611EE0114B1B6B03221340012B04D15A
:100250007B681A687B689A6113E00C4B1B6B032266
:100260001340022B04D17B68802212029A6108E0BD
:10027000064B1B6B03221340032B02D17B68044AFD
:100280009A61C046BD4608B080BDC046001002401D
:1002900000127A0000093D0000000020809FD50078
:1002A0001280000080B582B000AF78600A00FB1CAD
:1002B0001A70FB1C1B78002B06D0094B084A5169A9
:1002C0007A680A435A6106E0054B054A5269796823
:1002D000C9430A405A61C046BD4602B080BDC0460F
:1002E0000010024080B582B000AF78600A00FB1CAD
:1002F0001A70FB1C1B78002B06D0094B084A916929
:100300007A680A439A6106E0054B054A9269796862
:10031000C9430A409A61C046BD4602B080BDC0468E
:100320000010024080B582B000AF0200FB1D1A70C1
:10033000064BFA1D127811001F220A40012191403C
:100340000A001A60C046BD4602B080BD00E100E070
:10035000B0B582B000AF02003960FB1D1A70FB1D02
:100360001B787F2B32D92F4CFB1D1B781A000F23D3
:100370001340083B99082B4AFB1D1B7818000F23DC
:100380000340083B9B0806339B00D31804331B68CB
:10039000FA1D1278100003220240D200FF20904084
:1003A0000200D2431A403B689B01FF201840FB1D0E
:1003B0001B781D0003232B40DB00984003001A43E9
:1003C0008B1D9B00E31804331A6027E0164CFB1DBD
:1003D0001B785BB29B081449FA1D127852B292083E
:1003E000C03292005258F91D0978080003210140DB
:1003F000C900FF2088400100C94311403A689201BA
:10040000FF201040FA1D1278150003222A40D20066
:10041000904002000A43C0339B001A51C046BD46BB
:1004200002B0B0BD00ED00E000E100E080B582B0B8
:1004300000AF78607B680E4A934201D9012312E035
:100440000C4B7A681202120A013A5A6001235B428D
:1004500003211800FFF77CFF064B00229A60054B32
:1004600007221A6000231800BD4602B080BDC046B6
:10047000FFFFFF0010E000E080B500AF034B02215A
:10048000180001F097FAC046BD4680BD0004004840
:1004900080B500AF034B0221180001F09AFAC04664
:1004A000BD4680BD0004004880B500AF9023DB0549
:1004B0000121180001F07EFAC046BD4680BD80B51E
:1004C00000AF9023DB050121180001F082FAC0463D
:1004D000BD4680BD80B500AF9023DB05180001F05C
:1004E0005EFA0300DBB240221340DBB21800BD46C7
:1004F00080BD80B500AF9023DB05180001F04FFAF6
:100500000300DBB202221340DBB21800BD4680BDFF
:1005100080B582B000AF3B1D00221A709023DB052E
:10052000180001F03CFA0300DBB21A1C012313404F
:10053000DAB23B1D01210A4010001A7801218A43DA
:10054000111C021C0A431A709023DB05180001F0ED
:1005500026FA3B1D1A7802218A431A709023DB0584
:10056000180001F01CFA3B1D1A7804218A431A7006
:100570009023DB05180001F012FA3B1D1A780821C0
:100580008A431A709023DB05180001F008FA3B1D1E
:100590001A7810218A431A703B1D1B781800BD463B
:1005A00002B080BD80B584B000AF78600A00FB1C4B
:1005B0001A700023FB600A23FB18012252421A80A2
:1005C00033E07B685A1C7A601B789AB20823FB18C8
:1005D00012021A800A23FB180A22B9180822BA1834
:1005E000098812884A401A800023FB601AE00A2317
:1005F000FB1800229B5E002B09DA0A23FB181B88DC
:100600005B001BB2104A53401BB29BB204E00A23AA
:10061000FB181B88DB189BB20A22BA181380FB68F0
:100620000133FB60FB68072BE1DDFB1C1B78FA1C28
:10063000591E1170002BC4D10A23FB181B88180007
:10064000BD4604B080BDC0462110000080B58AB010
:1006500000AF78600823FB181800FFF733FD08236C
:10066000FB185B680949180001F032FC03001A000E
:100670007B6853437B6202E07B6A013B7B627B6A5F
:10068000002BF9D1C046BD460AB080BD102700003E
:1006900080B500AF1420FFF7D9FF9023DB051021B0
:1006A000180001F096F9C046BD4680BD80B500AF88
:1006B0009023DB051021180001F07CF9C046BD46EF
:1006C00080BD000080B582B000AF264A264B1100E5
:1006D000180001F038FB031E2FD0224A224B1100D4
:1006E000180001F024FB204B180001F0B2FA0300BF
:1006F0001A00FB1D1A70FB1D1B780A2B05D03A2B24
:1007000009D11A4B00221A8017E000F0C7F8174BE6
:1007100000221A8011E0154B1B88632B0CD8134B59
:100720001B881900124BFA1D12785A540F4B1B8864
:1007300001339AB20D4B1A80C0460E4A0A4B110083
:10074000180001F000FB031E02D0084B00221A80A3
:10075000084A054B1100180001F04CFBC046BD468D
:1007600002B080BD050105000038014038000020BE
:10077000680000200601060090B583B000AFFC1DA4
:10078000FFF7B7FE03002370BC1DFFF7A3FE0300B5
:100790002370FB1D1B78002B02D0FFF785FE01E0C4
:1007A000FFF78DFEBB1D1B78002B03D0364B0122BB
:1007B0001A6002E0344B00221A60334B1B68012B95
:1007C00011D002DC002B05D056E0022B1ED0032BEB
:1007D0003DD051E02D4B00221A6000F05BFE2A4B09
:1007E00002221A604CE02A4B1B881A00274B1B6818
:1007F0009A4205DD254B1B685A1C244B1A603FE0CA
:1008000000F0F0FE214B00221A6039E01F4B1A68FD
:100810001F4B1B881900100001F0CAFC0B1E01D1F0
:1008200000F0E0FE194B1B681A001A4B1B689A4235
:1008300007D3164B00221A6000F080FE124B0322F1
:100840001A60124B1B685A1C104B1A6018E00F4BB1
:100850001B681A00104B1B689A4207D30B4B0022EF
:100860001A6000F017FE084B02221A60074B1B6843
:100870005A1C064B1A6003E0034B00221A60C04664
:10088000C046BD4603B090BD580000205400002073
:1008900040000020440000204800002080B584B0C3
:1008A00000AF0023FB602B4B1B88002B4CD0294B47
:1008B0001B88012213409BB2002B47D10023BB6051
:1008C0000023FB6017E0244AFB68D3181878FB6804
:1008D0000133214AD35C190000F0EEFA030019003D
:1008E0001E4ABB68D3180A1C1A70BB680133BB6070
:1008F000FB680233FB60174B1B881A00FB689A42A7
:10090000E1DCBB689AB2134B1A80144B7B60FB1C72
:100910007A68D2781A70FB1C1B78012B08D002DC95
:10092000002B0ED013E0022B05D0032B06D00EE0D7
:1009300000F048F80BE000F0E5F808E000F048FAB5
:1009400005E000F0CFF902E0C04600E0C046BD4639
:1009500004B080BD3800002068000020CC000020DA
:1009600080B500AF144B1B685A1C134B1A60124B16
:100970001A68FA235B009A421ADD0F4B00221A60B4
:100980000E4B1B685A1C0D4B1A600D4B1B785A42BC
:100990005341DBB21A000A4B1A70094B1B78002B2B
:1009A00004D0FFF769FDFFF7E7FE01E0FFF770FDF8
:1009B000C046BD4680BDC0465C00002060000020EF
:1009C0006400002090B58DB000AF0023FB62454B62
:1009D000BB622623FC18434B06211800FFF7E2FDFB
:1009E00003002380BB6A9A79DB791B0213439BB215
:1009F0002622BA1812889A426ED12523FC18FFF7D6
:100A000087FD03002370BB6A9B782522BA181278F1
:100A10009A4263D1BB6A1A785B781B0213439AB27D
:100A20003B1D1A80BB6A9A783B1D9A70BB6ADA78C4
:100A30003B1DDA70BB6A1A795B791B0213439AB2C9
:100A40003B1D9A80284B1A683B1D063311040C0C81
:100A5000198800200140081C211C01431980100C3A
:100A60005A8800210A40111C021C0A435A801F4B5D
:100A70001A883B1D5A811E4B1A683B1DDA601D4BBC
:100A80001A683B1D1A611C4B1A683B1D5A611B4BAF
:100A90001A683B1D9A613B1D1C211800FFF782FD5F
:100AA00003001A003B1D9A830023FB620BE03A1DF2
:100AB000FB6AD31819780B4AFB6AD3180A1C1A7000
:100AC000FB6A0133FB62FB6A1D2BF0D90C4B1E2223
:100AD0001A8000F0A3FC02E0C04600E0C046BD461C
:100AE0000DB090BDCC0000203C0000204000002054
:100AF00044000020480000204C000020500000204E
:100B00003800002090B58DB000AF0023FB626D4B24
:100B1000BB622623FC186B4B1C211800FFF742FD1B
:100B200003002380BB6A1A7F5B7F1B0213439BB2C7
:100B30002622BA1812889A4200D0BDE02523FC185C
:100B4000FFF7E6FC03002370BB6A9B782522BA18E6
:100B500012789A4200D0B1E0BB6A9A79D979090239
:100B60000A43197A09040A435B7A1B0613431A00E5
:100B7000554B1A60BB6A9A7ADB7A1B0213439AB20E
:100B8000524B1A80BB6A1A7B597B09020A43997B34
:100B900009040A43DB7B1B0613431A004C4B1A6003
:100BA000BB6A1A7C597C09020A43997C09040A43EE
:100BB000DB7C1B0613431A00464B1A60BB6A1A7D86
:100BC000597D09020A43997D09040A43DB7D1B060E
:100BD00013431A00404B1A60BB6A1A7E597E090201
:100BE0000A43997E09040A43DB7E1B0613431A005D
:100BF0003A4B1A60BB6A1A785B781B0213439AB2AD
:100C00003B1D1A80BB6A9A783B1D9A70BB6ADA78E2
:100C10003B1DDA70BB6A1A795B791B0213439AB2E7
:100C20003B1D9A80284B1A683B1D063311040C0C9F
:100C3000198800200140081C211C01431980100C58
:100C40005A8800210A40111C021C0A435A801F4B7B
:100C50001A883B1D5A811E4B1A683B1DDA601D4BDA
:100C60001A683B1D1A611C4B1A683B1D5A611B4BCD
:100C70001A683B1D9A613B1D1C211800FFF792FC6E
:100C800003001A003B1D9A830023FB620BE03A1D10
:100C9000FB6AD31819780B4AFB6AD3180A1C1A701E
:100CA000FB6A0133FB62FB6A1D2BF0D90C4B1E2241
:100CB0001A8000F0B3FB02E0C04600E0C046BD462B
:100CC0000DB090BDCC0000203C0000204000002072
:100CD00044000020480000204C000020500000206C
:100CE0003800002090B587B000AF00237B61364B01
:100CF0003B610E23FC18344B08211800FFF752FC0F
:100D0000030023803B691A7A5B7A1B0213439BB270
:100D10000E22BA1812889A4250D10D23FC18FFF700
:100D2000F7FB030023703B699B780D22BA181278F9
:100D30009A4245D13B691A785B781B0213439AB2F9
:100D40003B001A803B699A783B009A703B69DA78DD
:100D50003B00DA703B691A795B791B0213439AB244
:100D60003B009A803B699A79DB791B0213439AB264
:100D70003B00DA803B0008211800FFF713FC03005A
:100D80001A003B001A81114B0A221A8000237B6152
:100D90000BE03A007B69D31819780B4A7B69D318AA
:100DA0000A1C1A707B6901337B61084B1B881A008F
:100DB0007B699A42EDDC00F031FB02E0C04600E0C6
:100DC000C046BD4607B090BDCC00002038000020D2
:100DD00090B587B000AF00237B61354B3B610E239C
:100DE000FC18334B08211800FFF7DCFB03002380BD
:100DF0003B691A7A5B7A1B0213439BB20E22BA1824
:100E000012889A424DD10D23FC18FFF781FB030095
:100E100023703B699B780D22BA1812789A4242D10E
:100E20003B691A785B781B0213439AB23B001A8025
:100E30003B699A783B009A703B69DA783B00DA703C
:100E40003B691A795B791B0213439AB23B009A8083
:100E50003B699A79DB791B0213439AB23B00DA8033
:100E60003B0008211800FFF79DFB03001A003B0020
:100E70001A8100237B610BE03A007B69D318197853
:100E80000B4A7B69D3180A1C1A707B6901337B619A
:100E90007B69092BF0D9074B0A221A8000F0BEFAB1
:100EA00002E0C04600E0C046BD4607B090BDC04667
:100EB000CC0000203800002080B584B000AF0200D4
:100EC000FB1D1A70BB1D0A1C1A700F23FB18002291
:100ED0001A700E23FB1800221A70FB1D1B78303B82
:100EE000162B54D89A00624BD3181B689F460F23C9
:100EF000FB1800221A704BE00F23FB1801221A7016
:100F000046E00F23FB1802221A7041E00F23FB1862
:100F100003221A703CE00F23FB1804221A7037E0FA
:100F20000F23FB1805221A7032E00F23FB1806224C
:100F30001A702DE00F23FB1807221A7028E00F23E8
:100F4000FB1808221A7023E00F23FB1809221A70DD
:100F50001EE00F23FB180A221A7019E00F23FB185A
:100F60000B221A7014E00F23FB180C221A700FE0EA
:100F70000F23FB180D221A700AE00F23FB180E2214
:100F80001A7005E00F23FB180F221A7000E0C0460C
:100F9000BB1D1B78303B162B54D89A00354BD31809
:100FA0001B689F460E23FB1800221A704BE00E238D
:100FB000FB1801221A7046E00E23FB1802221A7059
:100FC00041E00E23FB1803221A703CE00E23FB18AD
:100FD00004221A7037E00E23FB1805221A7032E043
:100FE0000E23FB1806221A702DE00E23FB18072291
:100FF0001A7028E00E23FB1808221A7023E00E2333
:10100000FB1809221A701EE00E23FB180A221A7020
:1010100019E00E23FB180B221A7014E00E23FB18A4
:101020000C221A700FE00E23FB180D221A700AE032
:101030000E23FB180E221A7005E00E23FB180F2258
:101040001A7000E0C0460F23FB181B781B015AB230
:101050000E23FB181B785BB213435AB20D23FB1807
:101060001A700D23FB181B781800BD4604B080BD14
:10107000BC2100081822000880B586B000AFB96016
:101080007A600F23FB18021C1A701723FB180F221B
:10109000BA18127812091A701623FB180F22BA1800
:1010A00012780F210A401A701723FB181B780F2B98
:1010B00044D89A00494BD3181B689F46BB6830221E
:1010C0001A703CE0BB6831221A7038E0BB683222EB
:1010D0001A7034E0BB6833221A7030E0BB683422E7
:1010E0001A702CE0BB6835221A7028E0BB683622E3
:1010F0001A7024E0BB6837221A7020E0BB683822DF
:101100001A701CE0BB6839221A7018E0BB684122D3
:101110001A7014E0BB6842221A7010E0BB684322C8
:101120001A700CE0BB6844221A7008E0BB684522C4
:101130001A7004E0BB6846221A7000E0C04616230D
:10114000FB181B780F2B44D89A00254BD3181B682B
:101150009F467B6830221A703CE07B6831221A700F
:1011600038E07B6832221A7034E07B6833221A70D0
:1011700030E07B6834221A702CE07B6835221A70CC
:1011800028E07B6836221A7024E07B6837221A70C8
:1011900020E07B6838221A701CE07B6839221A70C4
:1011A00018E07B6841221A7014E07B6842221A70B2
:1011B00010E07B6843221A700CE07B6844221A70AE
:1011C00008E07B6845221A7004E07B6846221A70AA
:1011D00000E0C046C046BD4606B080BD742200088F
:1011E000B422000880B582B000AF80239B020121A9
:1011F0001800FFF757F88023DB0201211800FFF7E2
:1012000051F83B00C022D2001A603B0002221A7142
:101210003B0000229A713B000122DA713B0003225D
:101220005A713A009023DB051100180000F024FBEE
:101230009023DB0501220921180000F0D9FB90233F
:10124000DB0501220A21180000F0D2FB3B0010222E
:101250001A603B0001221A713B0003225A713A00C6
:101260009023DB051100180000F006FB3B00022272
:101270001A603B0001221A713B0003225A713B00A5
:10128000314A1900100000F0F7FA3B0020221A60E2
:101290003B0001221A713B0003225A713A0090234D
:1012A000DB051100180000F0E7FA3B0001221A608C
:1012B0003B0001221A713B0003225A713A0090232D
:1012C000DB051100180000F0D7FA3B0040221A603D
:1012D0003B0000221A713B0003225A713B0001229D
:1012E000DA713A009023DB051100180000F0C4FA0F
:1012F0003B0002221A603B0000221A713B000322CD
:101300005A713B000122DA713A009023DB0511008B
:10131000180000F0B1FA3B00CD22D2011A603B0068
:1013200000221A713B0003225A713B000122DA713C
:101330003A009023DB051100180000F09DFAC0462A
:10134000BD4602B080BDC0460004004880B588B0EC
:1013500000AF8023DB0101211800FEF7C3FF082343
:10136000FB18962292011A600823FB1800225A608B
:101370000823FB1800229A600823FB180022DA6079
:101380000823FB1800225A610823FB180C221A615B
:101390000823FB18114A1900100000F07BFB0F4BCB
:1013A0000121180000F026FC3B1D1B221A703B1D7A
:1013B00001225A703B1D01229A703B1D180000F05B
:1013C00031FD0749054B0122180000F050FC1B209D
:1013D000FEF7A8FFC046BD4608B080BD00380140FA
:1013E0000501050080B582B000AF0200FB1D1A7038
:1013F000C046094B8021180000F07BFC031EF8D08A
:10140000FB1D1B789BB2044A1900100000F00FFC72
:10141000C046BD4602B080BD0038014080B582B0F4
:1014200000AF00237B60FB1C00221A70BB1C002253
:101430001A70FFF73BF93A20FFF7D4FF00237B60D7
:1014400015E0124A7B68D3181B78BA1CF91C1800E7
:10145000FFF712FEFB1C1B781800FFF7C3FFBB1C35
:101460001B781800FFF7BEFF7B6801337B60084BD9
:101470001B881A007B689A42E3DC0D20FFF7B2FF5D
:10148000FFF706F9C046BD4602B080BDCC00002083
:101490003800002080B500AF264B1B68DAB2264B1F
:1014A0005A70254B00229A70234B0722DA70224B88
:1014B00000221A71204B3B225A711F4B5A781E4B47
:1014C0009B785340DAB21C4BDB785340DAB21A4BAC
:1014D0001B795340DAB2184B5B795340DAB2164BA2
:1014E0009A71FFF7E3F8FF20FFF77CFF124B5B7860
:1014F0001800FFF777FF104B9B781800FFF772FF7B
:101500000D4BDB781800FFF76DFF0B4B1B791800B4
:10151000FFF768FF084B5B791800FFF763FF064B86
:101520009B791800FFF75EFFFFF7B2F8C046BD4693
:1015300080BDC0463C0000201000002080B500AFF8
:10154000264B1B68DAB2264B5A70254B00229A7044
:10155000234B0722DA70224B00221A71204B3A22C9
:101560005A711F4B5A781E4B9B785340DAB21C4B72
:10157000DB785340DAB21A4B1B795340DAB2184B7E
:101580005B795340DAB2164B9A71FFF78FF8FF2060
:10159000FFF728FF124B5B781800FFF723FF104B73
:1015A0009B781800FFF71EFF0D4BDB781800FFF744
:1015B00019FF0B4B1B791800FFF714FF084B5B79E1
:1015C0001800FFF70FFF064B9B791800FFF70AFF83
:1015D000FFF75EF8C046BD4680BDC0463C00002017
:1015E0001000002080B500AF264B1B68DAB2264BF6
:1015F0005A70254B00229A70234B0722DA70224B37
:1016000000221A71204B3F225A711F4B5A781E4BF1
:101610009B785340DAB21C4BDB785340DAB21A4B5A
:101620001B795340DAB2184B5B795340DAB2164B50
:101630009A71FFF73BF8FF20FFF7D4FE124B5B785F
:101640001800FFF7CFFE104B9B781800FFF7CAFE7B
:101650000D4BDB781800FFF7C5FE0B4B1B7918000C
:10166000FFF7C0FE084B5B791800FFF7BBFE064B87
:101670009B791800FFF7B6FEFFF70AF8C046BD4693
:1016800080BDC0463C0000201000002080B500AFA7
:1016900062B6094B1A68FA239900100000F018FC92
:1016A00003001800FEF7C2FEFFF79CFDFFF74EFE99
:1016B000FEF7EEFFFEE7C046240000200C488546FA
:1016C000002103E00B4B5B58435004310A480B4B9D
:1016D00042189A42F6D30A4A02E000231360043209
:1016E000084B9A42F9D300F011F8FFF7CFFFFEE75D
:1016F00000100020F4220008000000203800002024
:101700003800002030010020FEE7000080B500AF67
:101710001B4B1B4A126801210A431A60184B184AD6
:10172000526818490A405A60154B154A1268164902
:101730000A401A60124B124A126814490A401A6091
:101740000F4B0F4A526812490A405A600C4B0C4A20
:10175000D26A0F218A43DA62094B094A126B0D499A
:101760000A401A63064B064A526B01218A435A63A8
:10177000034B00229A6000F00FF8C046BD4680BDC2
:10178000001002400CB8FF08FFFFF6FEFFFFFBFF52
:10179000FFFFC0FFACFEFFFF80B582B000AF0023AB
:1017A0007B6000233B60314B304A12688021490244
:1017B0000A431A602D4B1A6880239B0213403B603A
:1017C0007B6801337B603B68002B04D17A68A023DF
:1017D000DB019A42EED1254B1A6880239B0213400D
:1017E00002D001233B6001E000233B603B68012BFA
:1017F00038D11F4B11221A601C4B1C4A52685A6088
:101800001A4B1A4A52685A60184B184A52681949BA
:101810000A405A60154B154A5268882149030A4309
:101820005A60124B114A1268802149040A431A6017
:10183000C0460E4B1A6880239B041340F9D00B4B13
:101840000A4A526803218A435A60084B074A526881
:1018500002210A435A60C046044B5B680C221340C5
:10186000082BF9D1C046BD4602B080BD0010024031
:1018700000200240FFFFC0FF80B586B000AF786057
:10188000396000237B6100233B610023FB60002360
:101890007B617CE001227B699A4013003B613B68DD
:1018A0001B683A691340FB60FA683B699A426BD146
:1018B0003B681B79012B03D03B681B79022B34D189
:1018C0007B689B687A695200032191400A00D243E9
:1018D0001A407B689A607B689A683B685B7919005C
:1018E0007B695B0099400B001A437B689A607B68B8
:1018F0009B889BB27A6992B2110001228A4092B20F
:10190000D24392B213409AB27B689A807B689B88DC
:101910009AB23B689B7919007B699BB299400B0096
:101920009BB213439AB27B689A807B681B687A6982
:101930005200032191400A00D2431A407B681A608A
:101940007B681A683B681B7919007B695B009940CA
:101950000B001A437B681A607B68DB687A6992B275
:101960005200032191400A00D2431A407B68DA609A
:101970007B68DA683B68DB7919007B695B0099401A
:101980000B001A437B68DA607B6901337B617B69FA
:101990000F2B00D87EE7C046BD4606B080BD80B59F
:1019A00082B000AF78607B681B8A9BB21800BD468E
:1019B00002B080BD80B582B000AF78600A00BB1C69
:1019C0001A80BB1C1A887B689A61C046BD4602B06B
:1019D00080BD80B582B000AF78600A00BB1C1A8061
:1019E0007B68BA1C12881A85C046BD4602B080BD0D
:1019F00080B584B000AF786008001100BB1C021CE9
:101A00001A807B1C0A1C1A700023FB600023BB6039
:101A10007B1C1A78BB1C1B8807210B409B009A403B
:101A20001300FB60BB1C1B88DB089BB21800BB1CAF
:101A30001B88DB089BB21A007B6808329200D358DF
:101A4000BA1C128807210A4092000F2191400A0017
:101A5000D2431A4011007B68020008329200D15034
:101A6000BB1C1B88DB089BB21A007B680832920003
:101A7000D258FB681343BB60BB1C1B88DB089BB2BE
:101A80001A007B6808329200B968D150C046BD4642
:101A900004B080BD80B58CB000AF786039600023A1
:101AA000FB620023BB6200237B627B681B68012210
:101AB00093431A007B681A607B685B687B627B6A71
:101AC000474A13407B623B689B687A6A13437B6298
:101AD0007B687A6A5A607B681B687B627B6A414AD2
:101AE00013407B623B685A683B68DB681A433B687B
:101AF0001B6913437A6A13437B627B687A6A1A60B4
:101B00007B689B687B627B6A374A13407B623B68D9
:101B10005B697A6A13437B627B687A6A9A600823FE
:101B2000FB181800FEF7CEFA7B68304A934204D1C6
:101B30000823FB189B69BB6203E00823FB189B6822
:101B4000BB627B681A6880231B02134014D0BB6AF7
:101B50005A003B681B681900100000F0B9F9030037
:101B6000FB62BB6A5A003B681B681900100000F05A
:101B700035FA0B007B6210E03B681B681900B86AFD
:101B800000F0A6F90300FB623B681A68BB6A11000B
:101B9000180000F023FA0B007B623B681B685A08B0
:101BA0007B6A9A4202D8FB6A0133FB627B681A683F
:101BB00080231B0213400AD0FB6A5B0807221340F4
:101BC0007B62FB6A0A4A1A407B6A1343FB62FB6A28
:101BD0009AB27B689A81C046BD460CB080BDC046B3
:101BE000FFCFFFFFF3E9FFFFFFFCFFFF00380140DD
:101BF000F0FF000080B582B000AF78600A00FB1CE7
:101C00001A70FB1C1B78002B06D07B681B68012216
:101C10001A437B681A6006E07B681B6801229343C5
:101C20001A007B681A60C046BD4602B080BD80B510
:101C300082B000AF78600A00BB1C1A80BB1C1B88F6
:101C4000DB05DB0D9AB27B681A85C046BD4602B043
:101C500080BD80B582B000AF78607B689B8C9BB202
:101C6000DB05DB0D9BB21800BD4602B080BD80B520
:101C700088B000AFF860B960FB1D1A700023BB612B
:101C800000237B6100233B610023FB61FB68FB6158
:101C9000BB689BB21B0A9BB2BB61BB68FF221340AF
:101CA0007B6101227B699A4013003B61BB69022B77
:101CB00003D1FB690433FB6105E0BB69032B02D14F
:101CC000FB690833FB61FB1D1B78002B06D0FB6909
:101CD000FA6911683A690A431A6006E0FB69FA6911
:101CE00012683969C9430A401A60C046BD4608B047
:101CF00080BD80B584B000AF786039600F23FB18D9
:101D000000221A707B68DB693A68134004D00F2305
:101D1000FB1801221A7003E00F23FB1800221A702F
:101D20000F23FB181B781800BD4604B080BD80B59A
:101D300082B000AF786039607B683A681A62C0464A
:101D4000BD4602B080BD80B586B000AF7860396016
:101D50000023FB6000237B610023BB601323FB187F
:101D600000221A703B689BB21B0A9BB2BB603B68A7
:101D7000FF2213407B6101227B699A4013007B6143
:101D8000BB68012B05D17B681A687B6913407B61B6
:101D90000DE0BB68022B05D17B685A687B69134054
:101DA0007B6104E07B689A687B6913407B613B68D8
:101DB0001B0CFB600122FB689A401300FB607B68F0
:101DC000DA69FB681340FB607B69002B07D0FB6876
:101DD000002B04D01323FB1801221A7003E01323F5
:101DE000FB1800221A701323FB181B781800BD463D
:101DF00006B080BD80B584B000AF78603960002344
:101E0000FB600023BB603B681B0CFB600122FB688E
:101E10009A401300BB607B68BA681A62C046BD4630
:101E200004B080BD80B584B000AF78600023FB6053
:101E30007B689B78002B39D0244A7B681B789B08F1
:101E4000DBB2C0339B009B58FB607B681B781A0099
:101E500003231340DB00FF229A401300DA43FB68A0
:101E60001340FB607B685B789B01FF221A407B6814
:101E70001B78190003230B40DB009A401300FA681B
:101E80001343FB6011497B681B789B08DBB2C033AE
:101E90009B00FA685A500D4B7A68127811001F2285
:101EA0000A40012191400A001A600AE007497B6854
:101EB0001B781A001F23134001229A40130080222E
:101EC0008B50C046BD4604B080BDC04600E100E076
:101ED000002243088B4274D303098B425FD3030A69
:101EE0008B4244D3030B8B4228D3030C8B420DD37C
:101EF000FF22090212BA030C8B4202D3121209020A
:101F000065D0030B8B4219D300E0090AC30B8B4247
:101F100001D3CB03C01A5241830B8B4201D38B03F5
:101F2000C01A5241430B8B4201D34B03C01A52419A
:101F3000030B8B4201D30B03C01A5241C30A8B42DD
:101F400001D3CB02C01A5241830A8B4201D38B02C8
:101F5000C01A5241430A8B4201D34B02C01A52416C
:101F6000030A8B4201D30B02C01A5241CDD2C309DE
:101F70008B4201D3CB01C01A524183098B4201D35A
:101F80008B01C01A524143098B4201D34B01C01A45
:101F9000524103098B4201D30B01C01A5241C308BD
:101FA0008B4201D3CB00C01A524183088B4201D32C
:101FB0008B00C01A524143088B4201D34B00C01A18
:101FC0005241411A00D20146524110467047FFE784
:101FD00001B5002000F0F0F802BDC0460029F7D09E
:101FE00076E7704703460B437FD4002243088B42B9
:101FF00074D303098B425FD3030A8B4244D3030B90
:102000008B4228D3030C8B420DD3FF22090212BA54
:10201000030C8B4202D31212090265D0030B8B42D0
:1020200019D300E0090AC30B8B4201D3CB03C01ABA
:102030005241830B8B4201D38B03C01A5241430B95
:102040008B4201D34B03C01A5241030B8B4201D385
:102050000B03C01A5241C30A8B4201D3CB02C01AF0
:102060005241830A8B4201D38B02C01A5241430A68
:102070008B4201D34B02C01A5241030A8B4201D357
:102080000B02C01A5241CDD2C3098B4201D3CB01FE
:10209000C01A524183098B4201D38B01C01A5241AD
:1020A00043098B4201D34B01C01A524103098B42B1
:1020B00001D30B01C01A5241C3088B4201D3CB009C
:1020C000C01A524183088B4201D38B00C01A52417F
:1020D00043088B4201D34B00C01A5241411A00D22F
:1020E00001465241104670475DE0CA0F00D0494298
:1020F000031000D34042534000229C4603098B4208
:102100002DD3030A8B4212D3FC22890112BA030A8F
:102110008B420CD3890192118B4208D38901921111
:102120008B4204D389013AD0921100E08909C30996
:102130008B4201D3CB01C01A524183098B4201D398
:102140008B01C01A524143098B4201D34B01C01A83
:10215000524103098B4201D30B01C01A5241C308FB
:102160008B4201D3CB00C01A524183088B4201D36A
:102170008B00C01A5241D9D243088B4201D34B0085
:10218000C01A5241411A00D20146634652415B10C7
:10219000104601D34042002B00D5494270476346A8
:1021A0005B1000D3404201B5002000F005F802BDED
:1021B0000029F8D016E770477047C046EE0E0008B9
:1021C000F80E0008020F00080C0F0008160F000898
:1021D000200F00082A0F0008340F00083E0F0008E7
:1021E000480F00088E0F00088E0F00088E0F0008A1
:1021F0008E0F00088E0F00088E0F00088E0F00084B
:10220000520F00085C0F0008660F0008700F0008EE
:102210007A0F0008840F0008A40F0008AE0F000812
:10222000B80F0008C20F0008CC0F0008D60F000836
:10223000E00F0008EA0F0008F40F0008FE0F000886
:10224000441000084410000844100008441000081E
:10225000441000084410000844100008081000084A
:10226000121000081C10000826100008301000088A
:102270003A100008BC100008C4100008CC10000878
:10228000D4100008DC100008E4100008EC1000086E
:10229000F4100008FC100008041100080C110008DC
:1022A000141100081C110008241100082C1100084A
:1022B00034110008521100085A1100086211000878
:1022C0006A110008721100087A11000882110008D2
:1022D0008A110008921100089A110008A211000842
:1022E000AA110008B2110008BA110008C2110008B2
:0422F000CA11000807
:1022F40000000000010203040102030406070809A8
:10230400FF000000000000000000000000000000CA
:1023140000000000006CDC0200000000000000006F
:08232400010203040607080989
:0400000508000000EF
:00000001FF
