:020000040800F2
:10000000D0050020B1100008D9200008DD2000082C
:10001000E1200008E5200008E920000800000000B9
:10002000000000000000000000000000ED200008BB
:10003000F120000800000000F5200008F920000869
:10004000AD100008AD100008AD100008AD1000089C
:10005000AD100008AD100008AD100008AD1000088C
:10006000AD100008AD100008AD100008AD1000087C
:10007000AD100008AD100008AD100008AD1000086C
:10008000AD100008AD100008AD100008AD1000085C
:10009000FD200008AD100008AD100008AD100008EC
:1000A000AD100008AD100008AD100008AD1000083C
:1000B000AD100008AD100008AD100008AD1000082C
:1000C000AD100008AD100008AD100008AD1000081C
:1000D000AD100008AD100008AD100008AD1000080C
:1000E000AD100008AD10000801210008000000005C
:1000F0000000000000000000000000000000000000
:1001000000000000000000005FF808F108B538B1F9
:10011000064B186801688847054A10680A3008BD10
:10012000034B012219680A8208BD00BFC4010020E8
:10013000C801002008B538B1064B186881688847A7
:10014000054A10680C3008BD034B012219680A8269
:1001500008BD00BFC4010020C801002008B5002868
:100160003BD0234B234800211A680180137813F0F9
:100170007F0312D1537A03F02002D1B259BB027827
:1001800003F04003D9B211B342F0010303701A48DF
:1001900001680A699047174808BD012B16D0022B49
:1001A00013D1517901F00F02930003F1804202F55F
:1001B000B84311F0800F196814D101F44052B2F520
:1001C000805FE4D101210170E1E7084608BD22F01B
:1001D00001020270DBE70222D2E7054B0222196816
:1001E0000A8208BD01F03003102BD0D1EAE700BF2E
:1001F000C801002014010020C40100202DE9F041B5
:10020000274E3468238A277A23B9042F2AD0A58A57
:10021000042703E0A58AAB42FAD902279D4228BFF2
:100220001D46A169284688478046002000F0E6FE6A
:100230002A460146404601F0BDFF2946002000F055
:10024000FDFE208A628A431B2382AD181548164B97
:10025000658230214FF44052346801801A80277241
:10026000BDE8F081114A1178012906D00D48102708
:10027000078007272772BDE8F08145F65041C4F298
:100280000001086843F2020180B2C2F20001411885
:10029000480004490360302008801370DFE700BF86
:1002A000C80100201801002016010020FC000020D9
:1002B00038B5314B1B68187810F07F0003D0022846
:1002C00006D0022038BD5A7A22F02001597238BD7A
:1002D0005A88002AF6D119790029F3D15A7922F0E7
:1002E0008000840004F1804101F5B844110656BF36
:1002F0002168256801F44055204948BF05F03005C4
:1003000009788842DDD2002DDBD09B7A002BD8D033
:1003100002F08002D1B251B1236803F03002102AFA
:100320001DD01749086843699847002038BD2368E5
:1003300003F44052B2F5805FF3D1C8B9114991F886
:100340002C1000F08BFE20684BF68F73034083F473
:10035000405242F4004141F080002060E1E7C4B225
:10036000204600F013FE2046302100F089FDD8E73A
:1003700000F0FAFDE7E700BFC8010020BC00002044
:10038000C40100206800002038B5204B19684B7963
:1003900023F08002900000F1804404F5B8401C0670
:1003A00056BF0468056804F44055194C48BF05F071
:1003B00030052478A24201D3022038BD4A88002AA1
:1003C000FAD1002DF8D0897A0029F5D003F0800306
:1003D000D9B2026879B148F6BF71114081F01002BC
:1003E00042F4004343F0800101600A4802689369C7
:1003F0009847002038BD4BF68F73134083F480512B
:1004000041F4004242F080030360EEE7C80100209F
:10041000BC000020C4010020054B1B685A8A10B1A3
:1004200008688018704789888A1A1A82704700BF46
:10043000C8010020F0B545F650438E4DC4F20003CC
:100440001A682C6843F2040091B2C2F20000227ACA
:100450000E187300092A83B01E685AD0B0B241004A
:1004600001F1804606F5C0463278227073786370D9
:10047000B08800F015FE608030892C6800F010FE16
:10048000A080B0892C680121E0802172002845D02D
:100490006178062900F08C80002959D16388002BEF
:1004A00000F09A80744E336808461969884703281B
:1004B0002B685DD01A8A4FF6FF718A4258D0022805
:1004C0000CD05AB193F900100029C0F2BB8003226E
:1004D0001A726A4B4FF44050188001E008201872DD
:1004E0006749002091F82C1000F0B8FD2868017AC7
:1004F000082906D1614B4FF480521A80614A1020BE
:100500001080B1F1090CDCF1000151EB0C0003B0DB
:10051000F0BDE088012121720028B9D123786678E6
:1005200013F07F0227D0012A00F0B680022A00F0E3
:100530000681514F3C68304663699847032800F0B4
:1005400035812C68002800F0CB8008202072C7E796
:10055000082953D120784306A4D14B4A0020A26138
:10056000608290472B684FF6FF701A8A8242A8D1AA
:1005700009211972B4E7092E00F0FE80052E00F063
:10058000CD80032E00F0E680012ED2D1E278012A40
:10059000CFD1A0880028CCD1637A03F02004E1B247
:1005A0000029C6D0FFF784FE002800F09880C0E73D
:1005B000267873067FF476AFA2782F4E012A00F0DA
:1005C000EF80022A00F0A480032A7FF46CAF306829
:1005D000426A002AC2D166E7606820F47F42B2F521
:1005E000003F7FF45FAF237813F07F0040F0E2809C
:1005F000A388002B7FF456AF244AAFE70A297FF483
:1006000051AF267806F07F02012A7FF44BAFA37A20
:10061000002B3FF447AF6388002B7FF443AF606843
:10062000154E20F47F42B2F5803F7FF43CAF326834
:100630001946607993699847002840F0F6802C6845
:10064000134A8BE7D9880191019882425CD88A428B
:10065000094908D2086890F82C00824280F0CD80C9
:100660000C4A00201070096891F82C209A82FFF73C
:10067000C5FD35E7C8010020A001002016010020BB
:1006800068000020180100200D0100085D0100082D
:1006900035010008FC0000200B2E7FF44AAF644FA8
:1006A000E1783B6860799C69A04729688A7A002ACA
:1006B0003FF440AF00287FF43DAF087900287FF475
:1006C00039AF8B78002B7FF435AF5A4C2168CA685C
:1006D0009047594803685C79D978DC7219732C68A3
:1006E00045F65043C4F20003186843F2020182B297
:1006F000C2F20001531858000021504A0160302313
:10070000062013802072EBE6019849491882AAE777
:1007100033681A6A002A7FF421AFC4E694F90330E3
:10072000002BFFF612AFA17800297FF40EAFA2884C
:10073000002A7FF40AAFA07A0028D1D005E7012E65
:100740003FF430AF032E7FF4F4AEFFF71DFE002818
:10075000C5D0EEE6E278012A7FF4EBAEA08800284F
:100760007FF4E7AE637A334A43F020011068617288
:10077000C469A0472C68B3E73149E3784A789A42C4
:10078000FFF4D7AEA07800287FF4D3AEA18800296B
:100790007FF4CFAE274AA37211684C68A0479EE74A
:1007A0003268D269002A7FF4D9AE7CE62C68092031
:1007B000207295E601282BD002287FF473AE63796E
:1007C00003F00F02960006F1804000F5B8401E06C7
:1007D00056BF0068066800F44056194848BF06F046
:1007E000300600788242BFF45DAE13F0700F7FF4E4
:1007F00059AE002E7FF400AF54E692FBF0F400FBFC
:100800001422002A7FF42FAF0E4A012010702AE72D
:10081000074E607933689A69904730B92C68A07A9E
:1008200000287FF4E9AE61783DE6296849783AE628
:10083000A0010020C4010020C801002018010020F0
:10084000BC000020FC000020F8B5444C23681A7A54
:10085000022A25D0042A23D0062A17D0082018728D
:100860003F4B002093F82C1000F0F8FB2168087A29
:10087000082806D13B4B4FF480521A803A4A102187
:100880001180B0F1090358425841F8BD5978052943
:100890000BD036490A689068804723680820DEE755
:1008A000FFF7ACFC2368187AD9E71A785106F0D123
:1008B0002F4E93F803E03678002E43D04FF4B84221
:1008C000C4F20002136840F60F70184040F4004173
:1008D00041F0800111600122701E45F604439642EA
:1008E00000F00100C4F200032CD978B1196840F679
:1008F0000F720A4042F4004040F081010222196068
:10090000964245F60843C4F200031BD91F6842F41F
:10091000004540F60F7045F08005384045EA000775
:10092000194641F8047B5F68013242F4004540F605
:100930000F7045F0800538402843013258600B1D88
:100940009642E3D80B4945F64C430A684EF08000C6
:10095000C4F200031860136A98479AE7C8010020A0
:10096000680000201601002018010020A0010020CE
:10097000BC000020C4010020F8B53E4D2C68237A4D
:10098000022B07D0042B05D0032B1DD0052B1BD029
:10099000072B22D00822384B2272002093F82C100B
:1009A00000F05CFB2968087A082806D1334B4FF425
:1009B00080521A80324A10211180B0F1090CDCF10A
:1009C000000050EB0C00F8BDA169208A11B358B9A2
:1009D000A48A002C45D02A4A2EE02A480168CA6819
:1009E00090472C680822D6E7A68A864228BF06468A
:1009F00030468847638A0746208AF118821B228284
:100A00006182002000F00AFB32460146384601F0C0
:100A10000DFC208A0028DBD00020184B01464FF443
:100A200040521A8000F00AFB238AA18A144A30201F
:100A30009942108015D9C3B92C68062145F6504358
:100A40002172C4F20003186843F2020381B2C2F2B9
:100A50000003C81843000021196030201080227A5A
:100A600099E72C680322227295E72C6805222272EE
:100A700091E700BFC8010020680000201601002097
:100A800018010020A0010020F0B4284B1E78002E91
:100A900043D04FF4B842C4F20002146840F60F711C
:100AA000214041F4004343F0800111600122741E93
:100AB00045F60443964204F00104C4F200032CD925
:100AC0007CB1196840F60F720A4042F4004141F0CF
:100AD00081021A60022245F608439642C4F20003DE
:100AE0001BD91F6842F4004540F60F7445F080059D
:100AF0003C4045EA0407194641F8047B5F6801322F
:100B000042F4004540F60F7445F080053C402C430C
:100B100001325C600B1D9642E3D845F64C4340F031
:100B20008000C4F200031860F0BC7047BC000020D5
:100B3000704700BF2DE9F04FDFF8A4A183B045F660
:100B4000444B0023DFF89C91634DADF80630C4F2AE
:100B5000000BD046DBF800004FF4B84482B2030427
:100B6000AAF8002040F1AC80B8F80030C4F20004CC
:100B700003F00F02900000F18040584E4BF6BF7119
:100B8000554F134600F5B84089F80020002A34D1AB
:100B9000226890B228802B8803F0300232802888A7
:100BA00000F440532B802268114081F4005181F001
:100BB000200040F4004343F080022260B8F80010A7
:100BC00001F0100083B2002B4AD0226891B2ADF838
:100BD0000610BDF8060000F400639AB2002A72D134
:100BE000BDF8061008B20028B4DA226840F68F7308
:100BF00013402360FFF7C0FE39E00468A1B2ADF8EE
:100C00000610BDF8062014B2002C1BDBBDF8061040
:100C100001F0800293B2002B9CD099F8004048F676
:100C20000F73A00000F1804101F5B8421068013C4B
:100C30000340136040F2E003C2F2000353F82410B3
:100C4000884787E7016840F68F720A40026040F2E9
:100C5000C400013BC2F2000050F82340A047D5E792
:100C6000226848F60F7313402360FFF7EDFD2168FB
:100C700038884BF6BF7300F4805290B20B4008B135
:100C800083F48053398801F4005290B208B183F4A0
:100C90000053318801F0100290B208B183F01003C4
:100CA000318801F0200290B208B183F0200343F4B0
:100CB00000414FF4B84241F08000C4F200021060DD
:100CC00003B0BDE8F08F216840F68F7008402060C7
:100CD000FFF7B0FBCBE700BF160100201801002092
:100CE000CE010020A40100204FF48053C4F202037F
:100CF0001968002241F0010018605968CFF6FF0220
:100D00000A405A601A68002122F0847020F4803270
:100D10001A60186882B020F480221A6058681A4657
:100D200020F4FE0058604FF41F009860009101917C
:100D3000196841F48030186003E00098B0F5A06FA6
:100D400009D0136803F4003101910098431C00930B
:100D500001990029F1D04FF48052C4F202021368C5
:100D600013F400310DD001200190019A012A0CD01A
:100D70004FF46D40CEF200004FF00062826002B08E
:100D800070470191019A012AF2D14FF40052C4F246
:100D9000020211684FF4805341F010001060116896
:100DA000C4F2020321F0030010601068194640F0FD
:100DB000020010605A685A60586858605A6842F4D5
:100DC000806058605A6822F47C1058605A6842F477
:100DD000E81058601A6842F0807018600A684FF492
:100DE00080539201C4F20203F8D55968184621F0E5
:100DF00003025A60596841F002025A60436803F0E6
:100E00000C010829FAD1B3E740F20003C2F2000353
:100E10005870D970704700BF1F280BD90B4A1018A3
:100E200010F8203C1A060CD40020094A01435170E6
:100E3000D37070470A2802D000231846F5E728230C
:100E4000F2E703F07F030220EFE700BFF42400087D
:100E5000000000204FF6F87345F650420340C4F2FC
:100E600000021360704700BF800000F1804202F56D
:100E7000B842106848F68F13034019431160704759
:100E8000800000F1804202F5B84210B401F0100079
:100E9000146848F6BF7380B2234068B99BB201F072
:100EA000200188B208B183F0200343F4004141F0EF
:100EB0008000106010BC704783F01003EFE700BFA4
:100EC000800000F1804202F5B84210B401F4805075
:100ED00014684BF68F7380B2234068B99BB201F45B
:100EE000005188B208B183F4005343F4004141F04B
:100EF0008000106010BC704783F48053EFE700BFA0
:100F0000800000F1804202F5B840016848F6BF73E6
:100F10000B4083F0300242F4004141F08003036053
:100F2000704700BF800000F1804202F5B8400168C0
:100F30004BF68F730B4083F4405242F4004141F072
:100F400080030360704700BF800000F1804202F51B
:100F5000B840016840F60F630B4043F4004242F092
:100F600080010160704700BF800000F1804303F5FD
:100F7000B8400268510408D5016840F60F730B4071
:100F800043F4404242F0800101607047800000F16C
:100F9000804303F5B8431A68500608D5196840F62F
:100FA0000F70084040F4004242F0C00119607047E1
:100FB00045F65043C4F200031A684FF6FE7392B22E
:100FC00002EBC00000F1005202F5405042000B401D
:100FD0001360704745F65043C4F200031A6843F2A9
:100FE000040392B202EBC000C2F20003C3184FF632
:100FF000FE7258000A400260704700BF45F6504339
:10100000C4F2000319688AB202EBC00000F1005379
:1010100003F540514A001088704700BF45F6504321
:10102000C4F200031A6843F2040193B203EBC00058
:10103000C2F20001421851000888704745F650433B
:10104000C4F200031A6843F2020392B202EBC0003A
:10105000C2F20003C3185A001160704745F65043AE
:10106000C4F200031A6843F2060392B202EBC00016
:10107000C2F20003C3185B003E2909D94A09C90618
:1010800001D1501E82B2910241F4004018607047B5
:101090004A08C80748BF013291021960704700BF73
:1010A000C3B2000A40EA0320704700BFFEE700BF5A
:1010B0001849194B70B599421BD2DA1C0C1D151B2F
:1010C000164825F00302161D05680423B3420D607F
:1010D000C2F380020DD022B142680823B3422260DD
:1010E00007D01D581A1D5D5084580833B3428C50E8
:1010F000F7D10B480B494FF000028842B8BF40F8C7
:10110000042BFFF6FAAFFFF7EFFDBDE8704000F0EB
:101110003DBE00BF00000020FC0000203C2600086F
:10112000FC000020D001002000B5202083B0012168
:1011300000F030FF4FF400734FF4A050032201A9D8
:10114000ADF80430C4F2010014238DF806208DF8A8
:10115000073000F049F94FF4802000F08DFF40F295
:101160002811C2F200014FF480220A6008230122F4
:1011700008464B718A7100F041FF03B000BD00BF0B
:10118000002008B500F000FF4FF400000121BDE889
:10119000084000F00DBF00BF054B987A20B9054903
:1011A00001220A60FFF7A0BD024B05201860F9E795
:1011B000A80100200401002010B54FF4A06082B007
:1011C00000F0B0FF0124142301A8022100228DF8B1
:1011D00004308DF805108DF806208DF8074000F0DA
:1011E000ABFF2A2301A88DF804308DF8054000F0EC
:1011F000A3FF02B010BD00BF38B94FF4A050C4F235
:1012000001004FF4007100F0DDBA4FF4A050C4F2B9
:1012100001004FF4007100F0D7BA00BF4FF2E8723E
:101220004FF2F073C1F6FF72C1F6FF7310681A68CF
:101230004FF2EC71C1F6FF71821810B4096801D148
:1012400010BC7047140F092C664B66D91201373455
:10125000100F9C7000240928DC70624C66D937306E
:1012600012012071100F002409285C715D4C66D9B1
:1012700037301201A071100F00240928DC71594C7D
:1012800066D9373012012072100F002409285C72D1
:10129000544C66D937301201A072100F002409286F
:1012A000DC72504C66D9373012012073100F0024C5
:1012B00009285C734B4C66D93730C2F30362A073C4
:1012C0000020092AD873474866D8303202740A0FC2
:1012D0000020092A5874434866D9373209018274BC
:1012E0000A0F0020092AD8743E4866D9373209010E
:1012F00002750A0F0020092A58753A4866D9373214
:10130000C1F30361827500220929DA75354866D870
:10131000303101760021597692E712013034100FF6
:101320009C7000240928DC702E4C98D830301201B3
:101330002071100F002409285C712A4C98D8303095
:101340001201A071100F00240928DC71254C98D8D7
:10135000303012012072100F002409285C72214CD9
:1013600098D830301201A072100F00240928DC72C6
:101370001C4C98D8303012012073100F002409281B
:101380005C73184C98D83030C2F30362A07300200D
:10139000092AD873134898D9373202740A0F0020EB
:1013A000092A58740F4898D83032090182740A0FFC
:1013B0000020092AD8740B4898D8303209010275E8
:1013C0000A0F0020092A5875064898D83032C1F310
:1013D0000361827500220929DA75024898D93731EC
:1013E000017697E70C000020CA7830B4D30648BFD6
:1013F0008B7802F00F0448BF1C430B8813F0FF0FDB
:101400003BD0482A016800F0A180282A00F007811B
:1014100013F0010F1CBF21F00F01214313F0020F45
:101420001CBF21F0F00141EA041113F0040F1CBFAE
:1014300021F4706141EA042113F0080F1CBF21F46C
:10144000704141EA043113F0100F1CBF21F47021E8
:1014500041EA044113F0200F1CBF21F4700141EA5E
:10146000045113F0400F1CBF21F0706141EA046188
:1014700013F0800F40F09F800160FF2B31D9482A84
:10148000416830D0282A00F09980DA0544BF21F065
:101490000F0121439A0544BF21F0F00141EA0411F4
:1014A0005A0544BF21F4706141EA04211A0544BF82
:1014B00021F4704141EA0431DA0444BF21F470217F
:1014C00041EA04419A0444BF21F4700141EA045105
:1014D0005A0444BF21F0706141EA04611B0467D4DF
:1014E000416030BC704703F4807292B2002A40F031
:1014F000D68003F4007292B2002A40F0CA8003F44E
:10150000806292B2002A40F0BE8003F4006292B280
:10151000002A40F0B28003F4805292B2002A40F0D8
:10152000C98003F4005292B2002A40F0BD8003F457
:10153000804292B2002A40F0C38003F400439AB282
:10154000002ACDD064F31F710261C9E713F00105D1
:1015500040F0328103F00205ADB2002D40F026814B
:1015600003F00405ADB2002D40F01A8103F0080528
:10157000ADB2002D40F00E8103F01005ADB2002D8C
:1015800040F0028103F02005ADB2002D40F0F6805E
:1015900003F04005ADB2002D40F0EA8003F0800575
:1015A000ADB2002D3FF468AF64F31F71056163E7CE
:1015B00064F31F7194E764F31F715DE703F48072B5
:1015C00092B2002A40F0A68003F4007292B2002A80
:1015D00040F09A8003F4806292B2002A40F08E803C
:1015E00003F4006292B2002A40F0828003F4805239
:1015F00092B2002A76D103F4005292B2002A6BD143
:1016000003F4804292B2002A60D103F400439AB2FC
:10161000002A3FF465AF64F31F71426160E713F085
:10162000010540F09A8003F00205ADB2002D40F0B4
:101630008E8003F00405ADB2002D40F0828003F0EF
:101640000805ADB2002D76D103F01005ADB2002D26
:101650006BD103F02005ADB2002D60D103F0400541
:10166000ADB2002D7ED103F08005ADB2002D3FF468
:1016700003AF64F31F714561FEE621F4704141EA56
:101680000431026147E721F4706141EA04210261FB
:101690003BE721F0F00141EA041102612FE721F05C
:1016A0000F012143026124E721F4700141EA045152
:1016B00002613CE721F4702141EA0441026130E714
:1016C00021F0706141EA0461026136E721F0706146
:1016D00041EA0461426198E721F4700141EA045152
:1016E00042618DE721F4702141EA0441426182E7C1
:1016F00021F4704141EA0431426177E721F47061DD
:1017000041EA042142616BE721F0F00141EA041152
:1017100042615FE721F00F012143426154E721F468
:10172000700141EA0451456198E721F4702141EAD2
:10173000044145618DE721F4704141EA043145617E
:1017400082E721F4706141EA0421456177E721F0E5
:10175000F00141EA041145616BE721F00F012143DB
:10176000456160E721F0706141EA046145617AE713
:1017700021F0706141EA046105610FE721F4700115
:1017800041EA0451056103E721F4702141EA044173
:101790000561F7E621F4704141EA04310561EBE6A9
:1017A00021F4706141EA04210561DFE621F0F001D6
:1017B00041EA04110561D3E621F00F0121430561DF
:1017C000C8E600BF0161704741617047034B987ADA
:1017D00010B1034905220A60704700BFA80100202C
:1017E0000401002040F20413C2F2000304221A6034
:1017F000704700BF034B1A78032A02D15878024978
:10180000087170473401002020010020704700BF9C
:10181000164B062810B51A6806D0117801F07F0221
:10182000212A10D0022010BD107800F07F0101297C
:10183000F8D150790028F5D19278222A14D0212AA3
:10184000F0D10B4906E003280CD00928EAD1094C55
:10185000094920701B680024204699615C828847F2
:10186000204610BD0549F5E70549F3E7C80100200A
:10187000E9180008FD00002085180008D1180008AC
:10188000F518000808B103487047034B4022196857
:101890000A82704734010020C8010020074B1968F4
:1018A0000A7802F07F03212B01D0022070470B2819
:1018B000FBD1C978024A002011607047C80100209E
:1018C0003001002009B1022070470028FBD1704789
:1018D00008B103487047034B012219680A82704718
:1018E00030010020C801002040F22801C2F20001AE
:1018F000FEF792BD0149FEF78FBD00BF300000200A
:10190000054B1968CA78042A04D8044B03EBC201BA
:10191000FEF782BD00207047C8010020380000207B
:101920000149FEF779BD00BF580000200149FEF7CC
:1019300073BD00BF6000002040F2C81342F2F052B5
:10194000C0F60002C2F20003D179186810B5002475
:1019500041728472C4722046FFF77CFA20464FF42D
:101960000071FFF781FA20461021FFF789FA20461F
:101970001821FFF72FFB58212046FFF719FB2046BF
:10198000FFF7E2FA40F22803C2F2000393F86C106A
:101990002046FFF763FB2046FFF7C4FA01204FF40F
:1019A000C061FFF761FA01204FF48071FFF700FB7F
:1019B00001204FF4A071FFF70DFB01204021FFF73C
:1019C0003DFB01200221FFF749FB01204FF440516C
:1019D000FFF776FA20210120FFF752FA2046FFF7A1
:1019E00053F840F20410C2F200000122026010BD60
:1019F00010B5FFF713FC40F2C813C2F200031868D9
:101A00000024847200F008F800F03CFB40F204115E
:101A1000C2F200010C6010BD38B50120FFF7ECFBED
:101A200045F6444545F6404340F2CC12C4F200036B
:101A300000214FF4E0540120C4F20005C2F200027C
:101A4000186019600846296014801C6038BD00BF0A
:101A5000F0B4002182B045F640434FF4B842019102
:101A6000C4F20003C4F20002186814686049A5B209
:101A700045F604460D60C4F20006376845F6084294
:101A8000BCB24C60C4F20002156845F60C46AFB219
:101A90008F60C4F20006346845F61042A5B2CD60EE
:101AA000C4F20002166845F61447B4B20C61C4F2E1
:101AB00000073D6845F61842AEB24E61C4F200021E
:101AC000176845F61C45BCB28C61C4F200052E684F
:101AD00082B24FF6FE7442F480620440B7B244F41E
:101AE000806542F0010645F64440CF61C4F2000033
:101AF0001A601E601D60026845F644435205C4F238
:101B00000003F8D54FF6FF30186008684FF4B8426C
:101B100080B2C4F200021060486845F6044280B208
:101B2000C4F200021060886845F6084280B2C4F230
:101B300000021060C86845F60C4280B2C4F2000290
:101B40001060086945F6104280B2C4F200021060CD
:101B5000486945F6144280B2C4F2000210608869F8
:101B600045F6184280B2C4F200021060C86945F61A
:101B7000404245F61C41C4F2000280B2C4F20001AA
:101B800044F481640860146011684FF4E0408CB242
:101B900044F004011160C4F2000004684FF46D4188
:101BA00001940468CEF2000124F0030444F001041F
:101BB00004600C6944F004040C611C6814F4805F38
:101BC00010D04EF6FF741C6014684FF6F773234074
:101BD0001360019A0260086920F004030B6102B0EF
:101BE000F0BC704730BF0A6922F004000861F6E7D4
:101BF0007C01002038B54FF44063C4F20103DA6879
:101C0000384C072822F08001D96018BF2070207856
:101C1000052819D8DFE800F01B22363B460363781D
:101C20005A1ED1B26170637883B945F64042C4F25E
:101C3000000210684FF6EF7101401160294A2A49ED
:101C4000062010700B6038BD0621217038BD264B70
:101C50001868002834D00522227038BD45F640456A
:101C6000C4F200052A684FF6FB7111402960FFF7A6
:101C700093FA1D494FF43F43042001222B6020704A
:101C80000A6038BD022303206370207038BD62787B
:101C9000511ECBB2637060780028D7D1114904225D
:101CA0000A7038BD45F64043C4F20003186882B29A
:101CB00042F0100119600A2005232370607038BDBE
:101CC00045F64045C4F2000529684FF6FB730B400A
:101CD0002B60FFF761FA4FF43F4006222860227024
:101CE00038BD00BF780100200001002010B540F28F
:101CF000A81240F2C814C2F20002C2F2000422602C
:101D00000224147240F2A01040F2680340F2C411A1
:101D100040F29802C2F20003C2F20000C2F20001D7
:101D2000C2F2000203600A601868804710BD00BF5D
:101D300010B500F089F84FF4803000F0A5F800F0FD
:101D4000BFF80128044600D0FEE7002000F0FCF8B0
:101D5000002000F00DF94FF4806000F0FFF84FF420
:101D600080304FF4E01100F0CBF8204600F0D4F8BA
:101D7000392000F02BF90028FAD0022000F0D2F828
:101D800000F0DAF80828FBD110BD00BF2DE9F041C2
:101D900082B0FFF7C9F9FFF7CBFFFFF70DFAFFF7A6
:101DA000EFF9FFF7A3FF244D244C00272B68052BE8
:101DB000FCD120780028F9D0214E16F8010F00211F
:101DC000FFF72AF881201F49092200F071F901204C
:101DD0002770FFF795F821780029FCD000200146F4
:101DE000FFF712F809228120164900F061F9134A21
:101DF00001201770FFF784F82378002BFCD096F8A9
:101E00000180B8F1000FD8D101266946FF230522D1
:101E100081208DF800608DF801808DF804808DF8A8
:101E200002608DF8033000F043F90449304681F830
:101E30000080FFF765F8B9E704010020C100002029
:101E40002F260008000000204FF48053C4F2020344
:101E50001968002241F0010018605968CFF6FF02AE
:101E60000A405A601A6822F0847020F480311960A8
:101E70001A6822F48020186059684FF41F0021F47A
:101E8000FE025A60986070474FF48053C4F2020318
:101E90001A68B0F5803F22F4803119601A6822F484
:101EA0008021196007D0B0F5802F03D1186840F465
:101EB000A0221A607047196841F48030186070479A
:101EC00082B04FF4805200230193C4F202021068E2
:101ED00083030CD5019A511C0191019B4FF480534F
:101EE000C4F202031868C0F3404002B07047019981
:101EF0004B1C01930198B0F5A06FE8D1EEE700BF4D
:101F00004FF48053C4F202035A6822F47C12104347
:101F100001435960704700BF6023C4F24223186038
:101F2000704700BF4FF48053C4F202035A6822F096
:101F300003010843586070474FF48053C4F2020312
:101F4000586800F00C0070474FF48053C4F202034D
:101F50005A6822F0F0010843586070474FF48053EC
:101F6000C4F202035A6822F4E061084358607047E3
:101F70004FF48053C4F202035A6822F4605141EADC
:101F8000C0005860704700BFD823C4F242231860D5
:101F9000704700BF4FF48053C4F202039A6919B925
:101FA00022EA00009861704710439861704700BFB3
:101FB0004FF48053C4F20203DA6919B922EA00002F
:101FC000D86170471043D861704700BF4309012BA7
:101FD0000ED04FF48051022BC4F202010CBF096AEB
:101FE000496A00F01F0021FA00F303F00100704776
:101FF0004FF48052C4F202021168F2E7837930B4E0
:102000003BB34FF48063C4F2010301681D68CC4305
:1020100025401D605D6802792C4002F180455C60BE
:1020200005F5823215684479294311600268986881
:10203000D14308409860D868102C01EA0001D960AB
:1020400013D004F1804303F5823421680A432260EF
:1020500009E00279016802F1804000F582331A68D4
:1020600022EA01021A6030BC7047986810439860F9
:10207000D9680A43DA60F6E74FF48063C4F20103DB
:102080005861704710B440F2CC1345F6444445F60D
:1020900040424FF43F410020C4F20004C2F200036A
:1020A000C4F2000220601980116010BC704700BFAC
:1020B00070B500F07F0528460E4694B2FEF79EFFED
:1020C00022460146304600F075F828462146FEF7C4
:1020D000B5FF002070BD00BF704700BFFEE700BF26
:1020E000FEE700BFFEE700BFFEE700BF704700BF8E
:1020F000704700BF704700BF704700BF00F0BEB818
:102100004FF48020FFF7B8BF01204FF44051FEF795
:10211000D7BE00BF40F2C103C2F2000301221A7011
:10212000704700BF40F0BF604FF46D4340F4003192
:10213000CEF20003D9607047C37830B47BB9007821
:10214000012100F01F0201FA02F140094FF461433E
:10215000CEF20003203043F8201030BC70474FF41B
:102160006D44CEF20004E5684478EA43C2F30223EA
:102170000F2525FA03F2C3F1040104FA01F485786E
:10218000037802EA050121430A0103F16043D1B259
:1021900003F5614282F800130078012100F01F036B
:1021A00001FA03F14FF46143CEF20003420943F810
:1021B0002210D2E701F1005101F54051531C4A00B1
:1021C000591030B42FD04578023010F8024C013944
:1021D00044EA052322F8043B0B46043201F00101D6
:1021E000023003B359B110F8014C10F8021C023050
:1021F00041EA042122F8041C0432013B13D010F8F8
:10220000021C10F8014C41EA042422F8044C4478E2
:10221000023010F8021C023041EA042122F8041BAB
:102220000432023BEBD130BC704700BF01F10051DA
:1022300001F5405301325900521030B41CD00B68E4
:10224000013A20F8023B1346023002F001029BB132
:1022500032B151F8042F20F8022C0230013B0BD090
:102260000C1D4D688968024620F8025C22F8021BAA
:10227000901C211D023BF3D130BC704745F644430E
:10228000C4F20003186830B5944C81B2944D21809B
:1022900022882B8889B01A4002F4004081B20029BC
:1022A00071D1228802F48060034260D1218801F458
:1022B0000052134206D045F64440C4F200004DF6E9
:1022C000FF710160228802F48050034243D12288CA
:1022D00002F40060034212D0824B197821B1824A85
:1022E0001068052800F0EF800220FFF783FC45F618
:1022F0004440C4F200004FF2FF712B880160228835
:1023000002F4007003420BD045F64441774AC4F210
:1023100000014FF6FF5008601178481CC1B21170DF
:10232000228802F48070034213D045F64443C4F27D
:10233000000345F648424FF6FF61C4F200021960FF
:102340001068020423D4694B00225A600720FFF76B
:1023500051FC09B030BD45F64443C4F200034EF6CB
:10236000FF7119600020FFF745FC2B88AFE7604A3A
:1023700045F64443C4F200034FF6FF31196050683C
:1023800080472B8892E7FEF7D5FB2B8889E7574AD1
:102390005168481C506051680329D7D945F640411F
:1023A000C4F2000108680007D0D40C684FF4B840AC
:1023B000A4B29460C4F20000046845F60440A4B2DC
:1023C0000094C4F20000046845F60840A4B20194E9
:1023D000C4F20000046845F60C40A4B20294C4F2B2
:1023E0000000046845F61040A4B20394C4F2000053
:1023F000046845F61440A4B20494C4F200000468D2
:1024000045F61840A4B20594C4F20000046845F6ED
:102410001C40A4B20694C4F20000006880B2079089
:10242000906840F001009060906880B20860906809
:1024300020F001009060906880B20860186845F64E
:1024400044414005C4F20001F8D54FF6FF330B605C
:1024500000984FF4B84381B2C4F2000319600198A8
:1024600045F6044381B2C4F200031960029845F6B0
:10247000084381B2C4F200031960039845F60C4387
:1024800081B2C4F200031960049845F6104381B28A
:10249000C4F200031960059845F6144381B2C4F2F2
:1024A00000031960069845F6184381B2C4F2000390
:1024B0001960079845F61C4381B2C4F2000300205E
:1024C0001960506042E74FF44063C4F20103D968D9
:1024D00041F08002DA60FFF7BBFA08E7CE01002086
:1024E000CC010020C00000200401002008010020D1
:1024F000680000202C9EB4A0A1A2A434A6A7A5AE7B
:10250000362D3738271E1F20212223242526B333BA
:10251000B62EB7B89F8485868788898A8B8C8D8EE6
:102520008F909192939495969798999A9B9C9D2FB2
:102530003130A3AD350405060708090A0B0C0D0E52
:102540000F101112131415161718191A1B1C1DAF92
:10255000B1B0B50016035200480049004400200005
:10256000530054004D003300320000000A035200B3
:1025700061004A006100000004030904050109022A
:10258000A1010901A100850105091901290315000F
:1025900025019503750181029501750581010501EC
:1025A000093009311581257F750895028106C0C063
:1025B0000906A1018502050719E029E71500250193
:1025C00075019508810295017508810195057501D0
:1025D00005081901290591029501750391019506D8
:1025E0007508150025650507190029658100C000DB
:1025F00009022900010100E0320904000002030081
:102600000000092101010001227300070581034038
:102610000020070501034000200000001201000215
:102620000000004083041057000101020301000074
:0C26300048454C4C4F21212100000000C7
:10263C000200000000000000000000001A0352001D
:10264C0048002D0030003000300031000000000048
:10265C000000000000000000022600080900000035
:10266C007C25000873000000782500080400000099
:10267C006C2500080A000000542500081600000014
:10268C000C0000201A000000F025000829000000B2
:10269C001C26000812000000F11900083919000866
:1026AC00F51700080D180008111800089D180008EF
:1026BC00C51800082D190008211900080119000877
:1026CC000000000040000000310B0008CD1700088E
:1026DC00310B0008310B0008310B0008310B0008DE
:1026EC00310B0008310B0008E5170008020100004F
:1026FC000101000009210008310B0008310B000812
:10270C00310B0008310B0008310B0008310B0008AD
:10271C0015210008310B0008310B0008310B0008A3
:0C272C00310B0008310B0008310B0008D5
:0400000508000000EF
:00000001FF
