:020000040800F2
:100000002404002091030008FD030008FD030008FC
:10001000FD030008FD030008FD03000800000000C8
:10002000000000000000000000000000FD030008C8
:10003000FD03000800000000FD030008FD030008A8
:10004000FD030008FD030008FD030008FD03000890
:10005000FD030008FD030008FD030008FD03000880
:10006000FD030008FD030008FD030008FD03000870
:10007000FD030008FD030008FD030008FD03000860
:10008000FD030008FD030008FD030008FD03000850
:10009000FD030008FD030008FD030008FD03000840
:1000A000FD030008FD030008FD030008FD03000830
:1000B000FD030008FD030008FD030008FD03000820
:1000C000FD030008FD030008FD030008FD03000810
:1000D000FD030008FD030008FD030008FD03000800
:1000E000FD030008FD030008FD030008FD030008F0
:1000F000FD030008FD030008FD030008FD030008E0
:10010000FD030008FD030008FD030008FD030008CF
:10011000FD030008FD030008FD030008FD030008BF
:10012000FD030008FD030008FD030008FD030008AF
:100130005FF808F180B500AF4FF48053C4F20203BA
:100140004FF48052C4F20202126842F001021A60B7
:100150004FF48052C4F202024FF48053C4F20203FF
:100160005B6819464FF00003CFF6FF030B40536066
:100170004FF48053C4F202034FF48052C4F20202DF
:10018000126822F0847222F480321A604FF4805395
:10019000C4F202034FF48052C4F20202126822F445
:1001A00080221A604FF48053C4F202034FF480524D
:1001B000C4F20202526822F4FE025A604FF48053E5
:1001C000C4F202034FF41F029A6000F009F84FF4E2
:1001D0006D43CEF200034FF000629A6080BD00BF15
:1001E00080B500AF00F002F880BD00BF80B483B0DE
:1001F00000AF4FF000037B604FF000033B604FF413
:100200008053C4F202034FF48052C4F20202126817
:1002100042F480321A604FF48053C4F202031B6828
:1002200003F400333B607B6803F101037B603B68B0
:10023000002B03D17B68B3F5A06FECD14FF4805352
:10024000C4F202031B6803F40033002B03D04FF009
:1002500001033B6002E04FF000033B603B68012B71
:1002600040F090804FF40053C4F202034FF4005268
:10027000C4F20202126842F010021A604FF40053F6
:10028000C4F202034FF40052C4F20202126822F0D8
:1002900003021A604FF40053C4F202034FF40052F9
:1002A000C4F2020212681A604FF48053C4F20203CF
:1002B0004FF48052C4F2020252685A604FF48053E5
:1002C000C4F202034FF48052C4F2020252685A6030
:1002D0004FF48053C4F202034FF48052C4F202027E
:1002E00052685A604FF48053C4F202034FF48052B4
:1002F000C4F20202526822F47C125A604FF4805316
:10030000C4F202034FF48052C4F20202526842F473
:1003100098125A604FF48053C4F202034FF4805293
:10032000C4F20202126842F080721A6000BF4FF4F9
:100330008053C4F202031B6803F00073002BF6D055
:100340004FF48053C4F202034FF48052C4F202020D
:10035000526822F003025A604FF48053C4F2020341
:100360004FF48052C4F20202526842F002025A6014
:1003700000BF4FF48053C4F202035B6803F00C0328
:10038000082BF6D107F10C07BD4680BC704700BFB3
:1003900080B582B000AF40F6BC73C0F600037B604E
:1003A00040F20003C2F200033B600BE07B681A6876
:1003B0003B681A603B6803F104033B607B6803F110
:1003C00004037B603A6840F21003C2F200039A42D1
:1003D000ECD3084808494FF000028842B8BF40F803
:1003E000042BFADBFFF7A6FE00F0A2FC07F10807DA
:1003F000BD4680BD100000202400002080B400AF66
:10040000FEE700BF80B483B000AF13460246FA7126
:100410000A46BA717B7140F21D03C2F200034FF02D
:1004200000021A7040F21E03C2F200034FF00002F5
:100430001A7040F21D03C2F20003FA791A70BB79F8
:10044000002B0DD140F21E03C2F200031B7843F0D3
:100450000603DAB240F21E03C2F200031A7032E061
:10046000BB79012B0DD140F21E03C2F200031B78B1
:1004700043F00403DAB240F21E03C2F200031A7022
:1004800021E0BB79022B0DD140F21E03C2F2000322
:100490001B7843F00203DAB240F21E03C2F20003FB
:1004A0001A7010E0BB79032B0AD140F21E03C2F28E
:1004B00000031A7840F21E03C2F200031A7002E031
:1004C0004FF0000334E07B79002B0DD140F21E0386
:1004D000C2F200031B7843F00803DAB240F21E03B5
:1004E000C2F200031A7021E07B79012B0AD140F29D
:1004F0001E03C2F200031A7840F21E03C2F2000388
:100500001A7013E07B79032B0DD140F21E03C2F267
:1005100000031B7843F02003DAB240F21E03C2F25C
:1005200000031A7002E04FF0000301E04FF00103F6
:10053000184607F10C07BD4680BC704780B582B0F5
:1005400000AF00F095F94FF020004FF0020100F0ED
:10055000C1F84FF0300040F20001C2F200014FF04C
:10056000050200F001F94FF02A0040F20801C2F242
:1005700000014FF0050200F0F7F84FF021004FF0B6
:10058000010100F0A7F84FF022004FF0010100F048
:10059000A1F84FF024004FF01A0100F09BF84FF043
:1005A00025004FF0780100F095F84FF0050000F0BD
:1005B00077F80346FB714FF026004FF0070100F07B
:1005C00089F84FF020004FF00E0100F083F800F0A2
:1005D00043F907F10807BD4680BD00BF80B584B070
:1005E00000AF786000F044F94FF0070000F058F8D1
:1005F0000346FB734FF020004FF0070100F06AF84C
:100600004FF0E1004FF0FF0100F064F84FF0A00060
:1006100079684FF0050200F0A7F84FF020004FF086
:100620000E0100F057F800F017F94FF0230000F02A
:10063000F9F900F01DF900BF4FF44060C4F2010069
:100640004FF4005100F0ECFA0346002BF4D14FF0C8
:10065000070000F025F80346FB73FB7B4FF02700F3
:10066000194600F037F8FB7B03F01003002B08D08D
:100670004FF0E1004FF0FF0100F02CF84FF01003B5
:1006800009E0FB7B03F02003002B02D04FF0200396
:1006900001E04FF0FF03184607F11007BD4680BD8B
:1006A00080B584B000AF0346FB7100F0C9F8FB7958
:1006B000184600F085F84FF0000000F081F803467E
:1006C000FB7300F0B1F8FB7B184607F11007BD463D
:1006D00080BD00BF80B584B000AF02460B46FA7102
:1006E000BB7100F0ADF8FB79184600F069F80346DD
:1006F000FB73BB79184600F063F800F095F8FB7BBC
:10070000184607F11007BD4680BD00BF90B585B003
:1007100000AF396013460246FA71BB7100F090F8E1
:10072000FB79184600F04CF80346BB604FF000031D
:10073000FB600CE03A68FB68D4184FF0000000F052
:100740003FF803462370FB6803F10103FB60BA79AD
:10075000FB689A42EED800F067F8BB68DBB2184637
:1007600007F11407BD4690BD80B584B000AF396075
:1007700013460246FA71BB7100F062F8FB79184625
:1007800000F01EF80346BB604FF00003FB600AE078
:100790003A68FB68D3181B78184600F011F8FB681C
:1007A00003F10103FB60BA79FB689A42F0D800F0CC
:1007B0003BF8BB68DBB2184607F11007BD4680BDA9
:1007C00080B582B000AF0346FB7100BF4FF44050CC
:1007D000C4F201004FF0020100F08AFB0346002B37
:1007E000F4D0FB799BB24FF44050C4F2010019469B
:1007F00000F062FB00BF4FF44050C4F201004FF024
:10080000010100F075FB0346002BF4D04FF440507B
:10081000C4F2010000F05EFB0346DBB2184607F1AC
:100820000807BD4680BD00BF80B500AF4FF44060F3
:10083000C4F201004FF4004100F010FA80BD00BF87
:1008400080B500AF4FF44060C4F201004FF40041A6
:1008500000F012FA80BD00BF80B500AF4FF44060D9
:10086000C4F201004FF4804100F0F8F980BD00BFF0
:1008700080B500AF4FF44060C4F201004FF48041F6
:1008800000F0FAF980BD00BF80B586B000AF4FF030
:1008900005004FF0010100F07FFA4FF480504FF057
:1008A000010100F079FA4FF0A003BB824FF018036A
:1008B000FB754FF00303BB7507F114034FF40060A1
:1008C000C4F20100194600F0D3F84FF04003BB8298
:1008D0004FF00403FB754FF00303BB7507F11403DE
:1008E0004FF40060C4F20100194600F0C1F84FF067
:1008F0001003BB814FF000033B804FF482737B8079
:100900004FF00003BB804FF00003FB804FF000036B
:100910003B814FF400737B814FF00003FB814FF06C
:1009200007033B823B464FF44050C4F20100194696
:1009300000F05EFA4FF008004FF0010100F02CFAD1
:100940004FF44043BB824FF01003FB754FF003039D
:10095000BB7507F114034FF44060C4F2010019465F
:1009600000F086F84FF40053BB824FF04803FB754C
:1009700007F114034FF44060C4F20100194600F07F
:1009800077F84FF44050C4F201004FF0010100F03D
:1009900073FA07F11807BD4680BD00BF80B584B06B
:1009A00000AF40F6B473C0F6000307F108011A4621
:1009B0004FF00503084611461A4600F0B9FA07F150
:1009C00008034FF0300019464FF00502FFF7CCFE48
:1009D0003B464FF0100019464FF00502FFF796FE18
:1009E0004FF00003FB730BE0FB7B07F11002D31801
:1009F00013F8103CA92B07D1FB7B03F10103FB7318
:100A0000FB7B042BF0D900E000BFFB7B052B02D061
:100A10004FF0010301E04FF00003184607F1100703
:100A2000BD4680BD80B485B000AF78600FE04FF068
:100A30000203FB6000BFFB68002B0CBF00230123F7
:100A4000DBB2FA6802F1FF32FA60002BF3D17B6867
:100A5000002B0CBF00230123DBB27A6802F1FF32C6
:100A60007A60002BE3D107F11407BD4680BC7047C4
:100A700080B489B000AF786039604FF00003FB614B
:100A80004FF000033B614FF00003BB614FF00003E8
:100A9000FB604FF000037B614FF00003BB603B68DD
:100AA000DB7803F00F03FB613B68DB7803F0100396
:100AB000002B04D03B689B78FA691343FB613B68C9
:100AC0001B88DBB2002B4ED07B681B687B614FF02C
:100AD0000003BB6141E0BB694FF0010202FA03F37E
:100AE000FB603B681B881A46FB6813403B613A6910
:100AF000FB689A422DD1BB694FEA8303FB60FB6818
:100B00004FF00F0202FA03F3BB60BB686FEA030306
:100B10007A6913407B61FB68FA6902FA03F37A6928
:100B200013437B613B68DB78282B07D1BB694FF00F
:100B3000010202FA03F27B685A610AE03B68DB7843
:100B4000482B06D1BB694FF0010202FA03F27B6821
:100B50001A61BB6903F10103BB61BB69072BBAD9F9
:100B60007B687A691A603B681B88FF2B53D97B68C6
:100B70005B687B614FF00003BB6146E0BB6903F13A
:100B800008034FF0010202FA03F3FB603B681B8885
:100B90001A46FB6813403B613A69FB689A4230D1C0
:100BA000BB694FEA8303FB60FB684FF00F0202FA58
:100BB00003F3BB60BB686FEA03037A6913407B6190
:100BC000FB68FA6902FA03F37A6913437B613B68B5
:100BD000DB78282B08D1BB6903F108034FF0010231
:100BE00002FA03F27B685A613B68DB78482B08D134
:100BF000BB6903F108034FF0010202FA03F27B68BC
:100C00001A61BB6903F10103BB61BB69072BB5D94D
:100C10007B687A695A6007F12407BD4680BC70473B
:100C200080B485B000AF78600B467B804FF0000346
:100C3000FB737B689B681A467B881340002B03D0AC
:100C40004FF00103FB7302E04FF00003FB73FB7BEB
:100C5000184607F11407BD4680BC704780B483B0C6
:100C600000AF78600B467B807A887B681A6107F159
:100C70000C07BD4680BC704780B483B000AF78607D
:100C80000B467B807A887B685A6107F10C07BD466A
:100C900080BC704780B582B000AF4FF000033B606E
:100CA0004FF000033B7140F22003C2F200031B78B7
:100CB000002B1CD140F22003C2F200034FF00102CE
:100CC0001A704FF000033B703B461846FFF786FC56
:100CD0000346FB714FF48050C4F201004FF40071E1
:100CE000FFF7BCFF4FF47A70FFF79CFE1BE040F269
:100CF0002003C2F200034FF000021A704FF001030C
:100D00003B703B461846FFF769FC0346FB714FF406
:100D10008050C4F201004FF40071FFF7ADFF4FF4B3
:100D20007A70FFF77FFE07F10807BD4680BD00BF60
:100D300080B582B000AF4FF010004FF0010100F01D
:100D40002BF8FFF7A1FD4FF40073BB804FF00303B6
:100D5000BB714FF01003FB7107F104034FF4805097
:100D6000C4F201001946FFF783FEFFF717FE0346A2
:100D7000002B03D14FF4FA70FFF754FE4FF0280018
:100D80004FF000014FF00102FFF73CFBFFF7D6FBED
:100D9000FFF780FFFCE700BF80B483B000AF78604E
:100DA0000B46FB70FB78002B0DD04FF48053C4F240
:100DB00002034FF48052C4F20202926911467A682B
:100DC0000A439A610EE04FF48053C4F202034FF4D9
:100DD0008052C4F20202926911467A686FEA0202F6
:100DE0000A409A6107F10C07BD4680BC704700BFFE
:100DF00080B485B000AF786039604FF00003FB81AC
:100E00007B681B88FB81FB8903F44153FB813B68B2
:100E10001A883B685B8813439AB23B689B881343EC
:100E20009AB23B68DB8813439AB23B681B89134331
:100E30009AB23B685B8913439AB23B689B89134320
:100E40009AB23B68DB8913439AB2FB891343FB8157
:100E50007B68FA891A807B689B8B9BB223F40063C2
:100E60009AB27B689A833B681A8A7B681A8207F178
:100E70001407BD4680BC704780B483B000AF786073
:100E80000B46FB70FB78002B08D07B681B889BB25D
:100E900043F040039AB27B681A8007E07B681B88A6
:100EA0009BB223F040039AB27B681A8007F10C07CB
:100EB000BD4680BC704700BF80B483B000AF78608F
:100EC0000B467B807B687A889A8107F10C07BD46C8
:100ED00080BC704780B483B000AF78607B689B892A
:100EE0009BB2184607F10C07BD4680BC704700BF97
:100EF00080B485B000AF78600B467B804FF0000374
:100F0000FB737B681B899AB27B8813409BB2002BD2
:100F100003D04FF00103FB7302E04FF00003FB73BB
:100F2000FB7B184607F11407BD4680BC704700BF25
:100F30000F2AF0B43AD941EA00039B0738D10C4696
:100F4000034615462668103D1E6066685E60A6680A
:100F50009E60E6681034DE6010330F2DF2D8A2F1E7
:100F6000100424F00F0402F00F021034032A00EBE7
:100F70000403214411D90E461D46144656F8047B3D
:100F8000043C032C45F8047BF8D8141F24F0030418
:100F9000043402F0030209191B192AB111F8014B9C
:100FA000013A03F8014BF9D1F0BC70470346F4E76E
:0C0FB0000346F3E7A9A9A9A9A9000000C5
:100FBC00E7E7E7E7E7000000E7E7E7E7E70000001F
:0400000508000000EF
:00000001FF
