:020000040800F2
:100000005404002085020008E5020008E50200080B
:10001000E5020008E5020008E50200080000000013
:10002000000000000000000000000000E5020008E1
:10003000E502000800000000E5020008E5020008F3
:10004000E5020008E5020008E5020008E5020008F4
:10005000E5020008E5020008E5020008E5020008E4
:10006000E5020008E5020008E5020008E5020008D4
:10007000E5020008E5020008E5020008E5020008C4
:10008000E5020008E5020008E5020008E5020008B4
:10009000E5020008E5020008E5020008E5020008A4
:1000A000E5020008E5020008E5020008E502000894
:1000B000E5020008E5020008E5020008E502000884
:1000C000E5020008E5020008E5020008E502000874
:1000D000E5020008E5020008E5020008E502000864
:1000E000E5020008E5020008E5020008E502000854
:1000F000E5020008E5020008E5020008E502000844
:10010000E5020008E5020008E5020008E502000833
:10011000E5020008E5020008E5020008E502000823
:10012000E5020008E5020008E5020008E502000813
:100130005FF808F180B500AF174A174B1B6843F012
:10014000010313601449144B5A68144B13404B605D
:10015000114A114B1B6823F0847323F4803313601E
:100160000D4A0D4B1B6823F4802313600A4A0A4B87
:100170005B6823F4FE035360074B4FF41F029A6041
:10018000054B0022DA6200F00DF8054B4FF00062DB
:100190009A6000BF80BD00BF001002400000FFF861
:1001A00000ED00E080B500AF00F002F800BF80BDB8
:1001B00080B483B000AF00237B6000233B60304AF3
:1001C0002F4B1B6843F4803313602D4B1B6803F4E3
:1001D00000333B607B6801337B603B68002B03D1BD
:1001E0007B68B3F5A06FF0D1254B1B6803F4003397
:1001F000002B02D001233B6001E000233B603B6801
:10020000012B37D11E4A1E4B5B6853601C4A1C4BA6
:100210005B6853601A4A1A4B5B685360184A184B64
:100220005B6823F47C135360154A154B5B6843F4F9
:1002300098135360124A124B1B6843F0807313608B
:1002400000BF0F4B1B6803F00073002BF9D00C4A62
:100250000B4B5B6823F003035360094A084B5B6850
:1002600043F00203536000BF054B5B6803F00C03CF
:10027000082BF9D100BF0C37BD4680BC704700BFCA
:100280000010024080B582B000AF114B7B60114B73
:100290003B6007E03B681A1D3A607A68111D79607F
:1002A00012681A603B680C4A9342F3D30B480C491E
:1002B0004FF000028842B8BF40F8042BFADBFFF78A
:1002C00039FF00F019FB00BF0837BD4680BD00BFF5
:1002D000C00A0008000000201000002010000020CC
:1002E0005400002080B400AFFEE700BF90B482B09D
:1002F00000AF0446084611461A462346FB710346E2
:10030000BB710B467B7113463B710A4AFB79137034
:10031000084ABB795370074A7B799370054A3B7949
:10032000D370044A3B7C137100BF0837BD4690BCB4
:10033000704700BF0000002080B483B000AF0346C8
:10034000FB710B46BB7113467B712D4B00221A705B
:100350002C4B00221A702A4AFB791370BB79002BB0
:1003600007D1284B1B7843F00603DAB2254B1A70ED
:100370001FE0BB79012B07D1224B1B7843F004030C
:10038000DAB2204B1A7014E0BB79022B07D11D4B57
:100390001B7843F00203DAB21A4B1A7009E0BB79FA
:1003A000032B04D1174B1A78164B1A7001E0002367
:1003B00020E07B79002B07D1124B1B7843F0080318
:1003C000DAB2104B1A7014E07B79012B04D10D4B7B
:1003D0001A780C4B1A700CE07B79032B07D1094B70
:1003E0001B7843F02003DAB2064B1A7001E00023B9
:1003F00000E0012318460C37BD4680BC704700BFA3
:10040000500000205100002080B582B000AF3B4674
:1004100000221A601A713B4605221946102000F08E
:1004200089F8052215492A2000F0AEF80021212084
:1004300000F064F80121222000F060F81A21242045
:1004400000F05CF80E4B1B781946252000F056F89A
:100450001421312000F052F80A4B1B78194626204F
:1004600000F04CF80321202000F048F8C82000F0EC
:1004700053F900BF0837BD4680BD00BF080000200B
:10048000500000205100002080B584B000AF78609B
:100490000023FB73072000F019F80346BB73BB7BF6
:1004A00003F04003002B06D014227968612000F08D
:1004B00041F80123FB73BB7B1946272000F01EF88F
:1004C000FB7B18461037BD4680BD00BF80B584B0A9
:1004D00000AF0346FB7100F0B1F8FB79184600F05D
:1004E0007DF8002000F07AF80346FB7300F09CF8DA
:1004F000FB7B18461037BD4680BD00BF80B584B079
:1005000000AF03460A46FB711346BB7100F096F834
:10051000FB79184600F062F80346FB73BB79184676
:1005200000F05CF800F080F8FB7B18461037BD4601
:1005300080BD00BF90B585B000AF03463960FB7148
:100540001346BB7100F07AF8FB79184600F046F8C4
:100550000346BB600023FB600AE03A68FB68D418DE
:10056000002000F03BF803462370FB680133FB607A
:10057000BA79FB689A42F0D800F056F8BB68DBB253
:1005800018461437BD4690BD80B584B000AF034611
:100590003960FB711346BB7100F050F8FB791846C7
:1005A00000F01CF80346BB600023FB600AE03B68D8
:1005B0001B78184600F012F83B6801333B60FB687B
:1005C0000133FB60BA79FB689A42F0D800F02CF84E
:1005D000BB68DBB218461037BD4680BD80B582B01F
:1005E00000AF0346FB7100BF02210E4800F04CFA39
:1005F0000346002BF8D0FB799BB21946094800F05E
:1006000029FA00BF0121074800F03EFA0346002BFB
:10061000F8D0044800F02CFA0346DBB2184608373D
:10062000BD4680BD0038004080B500AF04210248BF
:1006300000F046F900BF80BD0008014080B500AF62
:100640000421024800F04AF900BF80BD00080140C3
:1006500080B586B000AF0121052000F079F90121B5
:100660004FF4805000F074F9A023BB821823FB756F
:100670000123BB7507F114031946254800F064F8FF
:100680004023BB820423FB750123BB7507F11403D0
:1006900019461F4800F058F83023BB8100233B80E7
:1006A0004FF482737B800023BB800023FB800023F8
:1006B0003B814FF400737B810023FB8107233B8246
:1006C0003B461946134800F061F90121042000F06F
:1006D0003FF90C23BB821023FB750323BB7507F185
:1006E000140319460A4800F02FF80223BB8248235E
:1006F000FB7507F114031946054800F025F80121A0
:10070000044800F087F900BF1837BD4680BD00BF20
:10071000000801400030014080B485B000AF78602F
:1007200007E00223FB6000BFFB685A1EFA60002B43
:10073000FAD17B685A1E7A60002BF2D100BF1437C1
:10074000BD4680BC704700BF80B489B000AF786000
:1007500039600023FB6100233B610023BB61002360
:10076000FB6000237B610023BB603B68DB7803F008
:100770000F03FB613B68DB7803F01003002B05D00F
:100780003B689B781A46FB691343FB613B681B88F7
:10079000DBB2002B44D07B681B687B610023BB610C
:1007A00038E00122BB6902FA03F3FB603B681B8857
:1007B0001A46FB6813403B613A69FB689A4226D1AE
:1007C000BB699B00FB600F22FB6802FA03F3BB606E
:1007D000BB68DB437A6913407B61FA69FB6802FA04
:1007E00003F37A6913437B613B68DB78282B05D1DF
:1007F0000122BB699A407B685A6108E03B68DB785C
:10080000482B04D10122BB699A407B681A61BB69FD
:100810000133BB61BB69072BC3D97B687A691A6056
:100820003B681B88FF2B46D97B685B687B61002394
:10083000BB613AE0BB690833012202FA03F3FB60B3
:100840003B681B881A46FB6813403B613A69FB68AA
:100850009A4227D1BB699B00FB600F22FB6802FA1A
:1008600003F3BB60BB68DB437A6913407B61FA69C1
:10087000FB6802FA03F37A6913437B613B68DB7818
:10088000282B05D1BB69083301229A407B685A6145
:100890003B68DB78482B05D1BB69083301229A40BD
:1008A0007B681A61BB690133BB61BB69072BC1D986
:1008B0007B687A695A6000BF2437BD4680BC7047A8
:1008C00080B483B000AF78600B467B807A887B6809
:1008D0001A6100BF0C37BD4680BC704780B483B03E
:1008E00000AF78600B467B807A887B685A6100BFD6
:1008F0000C37BD4680BC704780B58AB002AF124B42
:10090000FB610121102000F023F8FFF7A1FE012375
:1009100000931023102243213420FFF7E7FC01222B
:1009200000215020FFF708FDFFF76EFD07F10803D7
:100930001846FFF7A9FD054BFB6100BFFB695A1E76
:10094000FA61002BFAD1F1E7A086010080969800A9
:1009500080B483B000AF78600B46FB70FB78002B4F
:1009600006D00949084B9A697B6813438B6106E0FE
:100970000549054B9A697B68DB4313408B6100BFD7
:100980000C37BD4680BC70470010024080B485B073
:1009900000AF786039600023FB817B681B88FB8196
:1009A000FB8903F44153FB813B681A883B685B88F1
:1009B00013439AB23B689B8813439AB23B68DB8827
:1009C00013439AB23B681B8913439AB23B685B8915
:1009D00013439AB23B689B8913439AB23B68DB8905
:1009E00013439AB2FB891343FB817B68FA891A800F
:1009F0007B689B8B9BB223F400639AB27B689A83DB
:100A00003B681A8A7B681A8200BF1437BD4680BCD7
:100A1000704700BF80B483B000AF78600B46FB70B6
:100A2000FB78002B08D07B681B889BB243F0400307
:100A30009AB27B681A8007E07B681B889BB223F020
:100A400040039AB27B681A8000BF0C37BD4680BC59
:100A5000704700BF80B483B000AF78600B467B80E6
:100A60007B687A889A8100BF0C37BD4680BC70478E
:100A700080B483B000AF78607B689B899BB21846D6
:100A80000C37BD4680BC704780B485B000AF78603D
:100A90000B467B800023FB737B681B899AB27B88A3
:100AA00013409BB2002B02D00123FB7301E0002313
:100AB000FB73FB7B18461437BD4680BC704700BFF4
:100AC000E7E7E7E7E7000000E7E7E7E7E700000020
:0400000508000000EF
:00000001FF
