:020000040800F2
:1000000000100020F12000083D2100083D210008DB
:1000100000000000000000000000000000000000E0
:100020000000000000000000000000003D2100086A
:1000300000000000000000003D2100083120000801
:100040003D2100083D2100083D2100083D21000818
:100050003D2100083D210008C51100082D0D0008B4
:100060003D2100083D2100083D2100083D210008F8
:100070003D2100083D2100083D2100083D210008E8
:100080003D2100083D210008000000003D2100083E
:100090003D210008650D0008011300083D210008FE
:1000A0003D2100083D2100083D21000849080008C5
:1000B00015120008000000003D21000800000000AB
:1000C0005FF808F180B500AF1A4B1A4A1268012197
:1000D0000A431A60174B174A526817490A405A6078
:1000E000144B144A126815490A401A60114B114A00
:1000F000126813490A401A600E4B0E4A52681149A1
:100100000A405A600B4B0B4AD26A0F218A43DA62CB
:10011000084B084A126B0C490A401A63054B054A02
:10012000526B01218A435A63024B00229A60C046F7
:10013000BD4680BD001002400CB8FF08FFFFF6FE70
:10014000FFFFFBFFFFFFC0FFACFEFFFF80B582B0EB
:1001500000AF0200FB1D1A70054B00221A70044A02
:10016000FB1D1B781370C046BD4602B080BDC04663
:100170000210024090B583B000AF00233B60FB1D2E
:1001800000221A70BB1D00221A70BC1D112000F045
:10019000AFF9030023703B6801333B603A68A0234A
:1001A000DB019A4203D0BB1D1B78002BEDD0112040
:1001B00000F09EF9031E03D0FB1D01221A7002E01D
:1001C000FB1D00221A70FB1D1B781800BD4603B0F2
:1001D00090BD000080B582B000AF78603960094BF7
:1001E000084A526808490A405A60064B054A516855
:1001F00078683A6802430A435A60C046BD4602B076
:1002000080BDC04600100240FFFFC2FF80B582B033
:1002100000AF0200FB1D1A70FB1D1B78002B07D0DE
:10022000084B084A1268802149040A431A6005E015
:10023000044B044A126804490A401A60C046BD468D
:1002400002B080BD00100240FFFFFFFE80B584B009
:1002500000AF78600023FB60084B5B68FB60FB68C5
:1002600003229343FB60FA687B681343FB60034BF4
:10027000FA685A60C046BD4604B080BD0010024016
:1002800080B500AF044B5B68DBB20C221340DBB2DD
:100290001800BD4680BDC0460010024080B584B045
:1002A00000AF78600023FB60084B5B68FB60FB6875
:1002B000F0229343FB60FA687B681343FB60034BB7
:1002C000FA685A60C046BD4604B080BD00100240C6
:1002D00080B588B000AF78600023FB610023BB616C
:1002E00000237B6100233B610023FB606A4B5B685A
:1002F0000C221340FB61FB69042B07D0082B09D0AB
:10030000002B31D17B68654A1A6031E07B68634A13
:100310001A602DE0604B5A68F0239B031340BB61C9
:100320005D4B5A6880235B0213407B61BB699B0C69
:100330000233BB617B69002B05D1BB69584A5A4324
:100340007B681A6014E0544BDB6A0F2213400133C0
:100350003B613969514801F0A9FF03001A00BB69EC
:100360005A437B681A6003E07B684C4A1A60C046B7
:10037000494B5B68F0221340FB61FB691B09FB6181
:10038000484AFB69D3181B78DBB2FB607B681A68AC
:10039000FB68DA407B685A603F4B5A68E023DB0019
:1003A0001340FB61FB691B0AFB613E4AFB69D318E2
:1003B0001B78DBB2FB607B685A68FB68DA407B68BD
:1003C0009A60354B1A6B80235B001A4080235B00D8
:1003D0009A4203D07B68344ADA6013E02E4B5A68A5
:1003E0008023DB011A408023DB019A4205D07B6821
:1003F0009B685A087B68DA6004E07B689B689A080F
:100400007B68DA60244B1B6B40221340402B03D0E7
:100410007B68264A1A6103E07B68802212021A6117
:100420001D4B1B6B10221340102B03D07B681B4A03
:100430005A6103E07B681A687B685A61164B1B6B34
:100440000322134004D17B689A687B689A611EE09E
:10045000114B1B6B03221340012B04D17B681A68DC
:100460007B689A6113E00C4B1B6B03221340022B39
:1004700004D17B68802212029A6108E0064B1B6B54
:1004800003221340032B02D17B68044A9A61C046C1
:10049000BD4608B080BDC0460010024000127A0080
:1004A00000093D0000000020809FD5001280000060
:1004B00080B582B000AF78600A00FB1C1A70FB1C8C
:1004C0001B78002B06D0094B084A91697A680A43C9
:1004D0009A6106E0054B054A92697968C9430A406A
:1004E0009A61C046BD4602B080BDC04600100240C1
:1004F00080B586B000AF0200FB1D1A700023FB60C0
:1005000000237B611323FB1800221A70FB1D1B784C
:100510005B09DBB2FB60FB68002B03D1184B1B6847
:100520007B6110E0FB68012B03D1154B1B6A7B61DB
:1005300009E0FB68022B03D1114B5B6A7B6102E08F
:100540000F4B5B6B7B61FB1D1B781F221340FB6015
:100550007A69FB68DA4013000122134004D01323A8
:10056000FB1801221A7003E01323FB1800221A70F3
:100570001323FB181B781800BD4606B080BDC0468B
:100580000010024080B582B000AF0200FB1D1A705F
:10059000064BFA1D127811001F220A4001219140DA
:1005A0000A001A60C046BD4602B080BD00E100E00E
:1005B000B0B582B000AF02003960FB1D1A70FB1DA0
:1005C0001B787F2B32D92F4CFB1D1B781A000F2371
:1005D0001340083B99082B4AFB1D1B7818000F237A
:1005E0000340083B9B0806339B00D31804331B6869
:1005F000FA1D1278100003220240D200FF20904022
:100600000200D2431A403B689B01FF201840FB1DAB
:100610001B781D0003232B40DB00984003001A4386
:100620008B1D9B00E31804331A6027E0164CFB1D5A
:100630001B785BB29B081449FA1D127852B29208DB
:10064000C03292005258F91D097808000321014078
:10065000C900FF2088400100C94311403A68920157
:10066000FF201040FA1D1278150003222A40D20004
:10067000904002000A43C0339B001A51C046BD4659
:1006800002B0B0BD00ED00E000E100E080B582B056
:1006900000AF78607B680E4A934201D9012312E0D3
:1006A0000C4B7A681202120A013A5A6001235B422B
:1006B00003211800FFF77CFF064B00229A60054BD0
:1006C00007221A6000231800BD4602B080BDC04654
:1006D000FFFFFF0010E000E080B582B000AFFFF741
:1006E000F1FC0120FFF732FDFFF744FD03001A0083
:1006F000BB1D1A80BB1D1B88012B1CD10020FFF7DE
:10070000CDFD80235A0380235B0211001800FFF700
:1007100061FD0120FFF77AFDC0461920FFF7E8FED2
:10072000031EFAD00220FFF791FDC046FFF7A8FD97
:100730000300082BFAD1C046BD4602B080BD0000C0
:1007400080B58AB000AF78600823FB181800FFF767
:10075000BFFD0823FB185B680949180001F0A6FDDE
:1007600003001A007B6853437B6202E07B6A013B13
:100770007B627B6A002BF9D1C046BD460AB080BDC2
:100780001027000080B582B000AF78600A00BB1C63
:100790001A800E4B0D4A92698021C9010A439A6161
:1007A0000B4B0C4A9A810A4B094A12682C210A43C6
:1007B0001A60074B064A126801210A431A601B207F
:1007C000FFF7E0FEC046BD4602B080BD001002400B
:1007D000003801404103000080B582B000AF020044
:1007E000FB1D1A70C046074BDB6940221340FAD04C
:1007F000044AFB1D1B789BB21385C046BD4602B060
:1008000080BDC0460038014080B582B000AF78603E
:100810007B68DBB21800FFF7DFFF7B681B12DBB2DF
:100820001800FFF7D9FF7B681B14DBB21800FFF735
:10083000D3FF7B681B16DBB21800FFF7CDFFC04665
:10084000BD4602B080BD000080B582B000AF384B1D
:10085000DB692022134067D0364BDB78AA2B50D1BE
:10086000344B9B78BB2B4CD1334B1B68304A928C5A
:1008700092B2D1B2314AD1542F4B1B685A1C2E4B25
:100880001A602C4B5B781A002A4B1B781B02D3187A
:10089000012B21D100237B6013E0284A7B68D31809
:1008A0001978274A7B68D3180A1C1A70224B1B68D8
:1008B0009BB2013B9BB21AB2224B1A807B68013378
:1008C0007B601D4B1B687A689A42E6DB194B00225D
:1008D000DA70194B00221A60164B5B78002B09D195
:1008E000144B1B78013BDAB2124B1A70114BFF22EA
:1008F0005A7019E00F4B5B78013BDAB20D4B5A701E
:1009000012E00C4B9A780B4BDA700A4B5A78094B71
:100910009A70084B1A78074B5A70054B9B8C9BB208
:10092000DAB2044B1A70FFE7C046BD4602B080BD84
:10093000003801407C070020700700206000002084
:100940006C0100205400002080B500AF044B054A24
:100950005A60034B044A5A60C046BD4680BDC0463B
:100960000020024023016745AB89EFCD80B500AF81
:10097000044B044A126980210A431A61C046BD46ED
:1009800080BDC0460020024080B582B000AF7860D4
:10099000C0461A4BDB6801221340FAD1174BDB68C3
:1009A0002022134002D0154B2022DA60134B134A49
:1009B000126902210A431A61104B7A688021890268
:1009C0008C46624492025A610C4B0C4A12694021D7
:1009D0000A431A61C046094BDB6820221340FAD053
:1009E000064B2022DA60054B044A126902218A4331
:1009F0001A61C046BD4602B080BDC046002002401C
:100A000080B584B000AF78600A00FB1C1A70FB1C34
:100A10001B78012213401ED10023FB607B688022DB
:100A20009202944663449B021B68013330D002E07B
:100A3000FB680133FB607B681A02FB68D3188022D5
:100A40009204944663449B001B68013320D0FB68EA
:100A5000FD2BEDDD1CE0FF23FB607B689B020F4A52
:100A6000944663441B68013312D002E0FB68013BEB
:100A7000FB607B681A02FB68D318802292049446BC
:100A800063449B001B68013302D0FB68012BEDDC43
:100A9000FB681800BD4604B080BDC046FC030008DA
:100AA00080B584B000AF78600A00FB1C1A70FB1C94
:100AB0001B780122134021D10023FB607B68802238
:100AC0009202944663449B021B68013336D002E0D5
:100AD000FB680133FB607B681A02FB68D318802235
:100AE0009204944663449B001B68013302D0FB6868
:100AF000FD2BEDDDFB68013BFB601FE0FE23FB608F
:100B00007B689B02144A944663441B68013315D0EA
:100B100002E0FB68013BFB607B681A02FB68D318AC
:100B200080229204944663449B001B68013302D0E8
:100B3000FB68012BEDDCFB680133FB607B681A026C
:100B4000FB68D31880229204944663449B001B6880
:100B50001800BD4604B080BDFC03000880B586B017
:100B600000AFF8607A600B23FB180A1C1A700B2385
:100B7000FB181A78FB6811001800FFF741FF03000B
:100B80007B61C0461C4BDB6801221340FAD11A4B33
:100B9000194A126901210A431A61FB681A027B692A
:100BA000D31880229204944663449B007A6812B260
:100BB0001A807B699B009A1CFB689B02D3188022D9
:100BC0001205944663441A007B681B141BB2138001
:100BD000C046094BDB6820221340FAD0064B202286
:100BE000DA60054B044A126901218A431A61C04642
:100BF000BD4606B080BDC0460020024080B586B02C
:100C000000AFF8607A600B23FB180A1C1A70FFF71C
:100C10009BFE1323FB1800221A700B23FB181A7873
:100C2000FB6811001800FFF7EBFE03007B610B234C
:100C3000FB181B78012213400AD17B6901337B61C9
:100C40007B69FE2B0ED11323FB1801221A7009E0D9
:100C50007B69013B7B617B69012B03D11323FB186B
:100C600001221A70FB681A027B69D3188022920451
:100C7000944663449B001800FFF7C6FDFB681A0208
:100C80007B69D31880229204944663449B001B68BE
:100C90001800FFF7B9FDFB681A027B69D3188022A0
:100CA0009204944663449B001B68013304D11323D0
:100CB000FB181B78012B27D1FB6800211800FFF7D8
:100CC000EFFE0200174B1A60FB6801211800FFF7C6
:100CD000E7FE0200144B1A602820FFF731FDFB6885
:100CE0001800FFF751FE2820FFF72AFD0D4B1A6868
:100CF000FB6800211800FFF731FF0B4B1A68FB68F7
:100D000001211800FFF72AFF7A680B23FB181978D6
:100D1000FB681800FFF722FFFFF728FEC046BD461C
:100D200006B080BD780700205C00002080B500AFD1
:100D30000B4B5B69202213400FD09023DB059022E0
:100D4000D205928A92B202214A4092B29A82044B10
:100D5000034A526920210A435A61C046BD4680BDFC
:100D60000004014080B500AF00F0CCF8054A054B07
:100D70001B8A9BB201218B439BB21382C046BD46A6
:100D800080BDC0460044014080B582B000AF7860AD
:100D90008023DB0201211800FFF78AFB1620FFF7F2
:100DA000F1FB074B7A68DA62054A054B9B899BB2D7
:100DB00001210B439BB29381C046BD4602B080BD6A
:100DC0000048014080B582B000AF0200FB1D1A70E0
:100DD000FB1D1B780D4AD35C1900FB1D1B780133EA
:100DE0000A4AD35C1B02CA18FB1D1B780233074951
:100DF000CB5C1B04D218FB1D1B7803330349CB5C6F
:100E00001B06D3181800BD4602B080BD6C0100203F
:100E100080B582B000AF7860396080239B020121E9
:100E20001800FFF745FB1520FFF7ACFB3A68E123FC
:100E30001B029A4213D1254BD0229200DA62234A38
:100E4000224B9B899BB201210B439BB293811F4A8A
:100E50001E4B1B889BB201210B439BB213803A6847
:100E60009623DB019A4213D1184B9C221201DA62BD
:100E7000164A164B9B899BB201210B439BB293816F
:100E8000124A124B1B889BB201210B439BB2138069
:100E90003A6896239B019A4213D10C4B9C22520133
:100EA000DA620A4A094B9B899BB201210B439BB230
:100EB0009381064A054B1B889BB201210B439BB2D1
:100EC0001380C046BD4602B080BDC046004401400C
:100ED00080B582B000AF0200FB1D1A70C046074B00
:100EE0001B78002BFBD1064BFA1D12781A70034BAE
:100EF00001221A70C046BD4602B080BD38000020F5
:100F00007407002080B500AF9A4B1B780133DAB22A
:100F1000984B1A70974B1B780A2B02D1954B0022E5
:100F20001A70944B1B78002B09D19023DB0590227B
:100F3000D205928A92B204218A4392B29A828D4B50
:100F40001B78012B1AD18C4B1B781A0001231340FC
:100F50000AD09023DB059022D205928A92B2042116
:100F60000A4392B29A8209E09023DB059022D205CF
:100F7000928A92B204218A4392B29A827D4B1B7864
:100F8000022B1AD17C4B1B781A00022313400AD083
:100F90009023DB059022D205928A92B204210A4363
:100FA00092B29A8209E09023DB059022D205928AC0
:100FB00092B204218A4392B29A826E4B1B78032B21
:100FC0001AD16D4B1B781A00042313400AD09023CA
:100FD000DB059022D205928A92B204210A4392B292
:100FE0009A8209E09023DB059022D205928A92B280
:100FF00004218A4392B29A825E4B1B78042B1AD149
:101000005D4B1B781A00082313400AD09023DB05A0
:101010009022D205928A92B204210A4392B29A8215
:1010200009E09023DB059022D205928A92B2042136
:101030008A4392B29A824F4B1B78052B1AD14E4BA2
:101040001B781A00102313400AD09023DB0590224E
:10105000D205928A92B204210A4392B29A8209E09E
:101060009023DB059022D205928A92B204218A4312
:1010700092B29A823F4B1B78062B1AD13E4B1B78BB
:101080001A00202313400AD09023DB059022D205BA
:10109000928A92B204210A4392B29A8209E0902382
:1010A000DB059022D205928A92B204218A4392B241
:1010B0009A82304B1B78072B1AD12F4B1B781A00C2
:1010C000402313400AD09023DB059022D205928A58
:1010D00092B204210A4392B29A8209E09023DB057E
:1010E0009022D205928A92B204218A4392B29A82C5
:1010F000204B1B78082B19D11F4B1B785BB2002BA0
:101100000ADA9023DB059022D205928A92B204215A
:101110000A4392B29A8209E09023DB059022D2051D
:10112000928A92B204218A4392B29A82114B1B781E
:10113000092B1BD19023DB059022D205928A92B213
:1011400004210A4392B29A820C4B1B78002B06D1E1
:10115000084B1B78013BDAB2064B1A7006E0084BCD
:101160001A78054B1A70054B00221A70C046BD460E
:1011700080BDC046100000208A07002038000020F3
:101180007407002080B582B000AF78607B68DBB266
:101190001800FFF79DFE7B681B12DBB21800FFF7FB
:1011A00097FE7B681B14DBB21800FFF791FE7B688B
:1011B0001B16DBB21800FFF78BFEC046BD4602B01F
:1011C00080BD000080B500AF0F4B5B690822134063
:1011D00016D00E4BFF221A700D4A0D4B1B889BB286
:1011E00001210B439BB21380074B074A1268082169
:1011F0008A431A60044B044A526908210A435A611F
:10120000C046BD4680BDC046000401406C070020BA
:101210000048014080B582B000AF334BDB78AA2B89
:101220004ED1314B9B78BB2B4AD1304B1B68304A97
:101230001178304AD1542D4B1B685A1C2B4B1A6025
:10124000294B5B781A00284B1B781B02D318012B03
:1012500021D100237B6013E0264A7B68D3181978DC
:10126000254A7B68D3180A1C1A70204B1B689BB256
:10127000013B9BB21AB2214B1A807B6801337B6021
:101280001A4B1B687A689A42E6DB174B0022DA7029
:10129000164B00221A60144B5B78002B09D1124BBD
:1012A0001B78013BDAB2104B1A700F4BFF225A70B9
:1012B00016E00D4B5B78013BDAB20B4B5A700FE036
:1012C000094B9A78084BDA70074B5A78064B9A709C
:1012D000054B1A78044B5A70054B1A78024B1A705A
:1012E000C046BD4602B080BD8407002070070020C4
:1012F000580000206C0600206C01002054000020E3
:1013000080B500AF224B1B780133DAB2204B1A7044
:101310001F4B1B781A00012313402ED09023DB05AE
:101320001B8A9BB21A000823134007D1194B1B7864
:101330007F221340DAB2174B1A7007E0154B1B7867
:10134000802252421343DAB2124B1A70104B1B78B0
:10135000112B0CD1FFF75EFF0F4A0F4B1B889BB27E
:1013600001218B439BB213800C4B08221A60094B5E
:101370001B785B08DAB2074B1A70074A064B1B8AC8
:101380009BB201218B439BB21382C046BD4680BDF8
:101390006C07002058000020004801400004014074
:1013A00080B500AF344B00229A70334B00221A7183
:1013B000314B5A78304B9B78D318DAB22E4BDB780E
:1013C000D318DAB22C4B1B79D318DAB22A4B5B79DB
:1013D000D318DAB2284B9A7100F016FAFF20FFF703
:1013E000FBF9254B5B781800FFF7F6F9224B9B7849
:1013F0001800FFF7F1F9204BDB781800FFF7ECF944
:101400001D4B1B791800FFF7E7F91B4B5B791800A0
:10141000FFF7E2F9184B9B791800FFF7DDF9C0469A
:10142000164B1B78002BFBD1134B1B781800FFF7D2
:101430004FFD114B5B781800FFF74AFD0E4B9B7870
:101440001800FFF745FD0C4BDB781800FFF740FD57
:10145000094B1B791800FFF73BFD074B5B79180020
:10146000FFF736FD044B9B791800FFF731FD00F0C4
:10147000DAF9C046BD4680BD1400002038000020C7
:1014800080B582B000AF0200FB1D1A70084B1A78BD
:10149000084B5A70074B0322DA70064BFA1D12787C
:1014A0005A71FFF77DFFC046BD4602B080BDC04601
:1014B000600100201400002080B582B000AF02005F
:1014C000FB1D1A70084B1A78084B5A70074B0722FD
:1014D000DA70064BFA1D12785A71FFF761FFC046A9
:1014E000BD4602B080BDC04660010020140000204F
:1014F00080B500AF074B1A78074B5A70064B07228E
:10150000DA70054B3F225A71FFF74AFFC046BD46CD
:1015100080BDC046600100201400002080B500AFEF
:10152000074B1A78074B5A70064B2322DA70054B8B
:1015300000225A71FFF734FFC046BD4680BDC04649
:10154000600100201400002080B500AF4A4B4A4AD9
:101550005269802189020A435A61474B464A5269BF
:101560008021C9020A435A619023DB059022D205EB
:10157000126801210A431A609023DB059022D205EC
:1015800012681A609023DB059022D205D2680421EC
:101590000A43DA609023DB059022D20512681021FD
:1015A0000A431A609023DB059022D20512681A6064
:1015B0009023DB059022D2051268802149000A435E
:1015C0001A609023DB059022D20512681A609023DE
:1015D000DB059022D205D2688021C9000A43DA6077
:1015E0009023DB059022D20512681A609023DB0558
:1015F0009022D205D268802149010A43DA60902303
:10160000DB059022D20512681A609023DB05902238
:10161000D205D2688021C9010A43DA609023DB0534
:101620009022D205D2688021C9020A43DA60902351
:10163000DB059022D205D268802149030A43DA6093
:101640000E4B0E4A126804210A431A609023DB05F0
:101650009022D205D2688021C9040A43DA6090231F
:10166000DB059022D205D268802149050A43DA6061
:10167000C046BD4680BDC046001002400004004880
:1016800080B500AF0A4B0A4A926901210A439A6168
:10169000084B084A92689A60074B08221A60064B6A
:1016A0000822DA600620FEF76DFFC046BD4680BD09
:1016B00000100240000001400004014080B500AF6E
:1016C00000210F20FFF7ECF90300DAB22C4B1A705F
:1016D00000210B20FFF7E4F903001AB2294B1A800E
:1016E00001210B20FFF7DCF90200274B1A600021D3
:1016F0000C20FFF7D5F90300DAB2244B1A70012150
:101700000C20FFF7CDF90300DAB2214B1A7000214B
:101710000E20FFF7C5F902001E4B1A60184B1B780C
:10172000FF2B11D1164B01221A70164B07221A807B
:10173000154B0A221A60154B3B221A70144B3A22A1
:101740001A70144B09221A600F4B1B68124A5A4335
:101750000D4B1A600B4B00229B5E9BB205339BB274
:101760001AB2084B1A800B4B1A6813001B019B1A04
:101770009B001A00074B1A60C046BD4680BDC0469C
:10178000600100208807002064010020680100201B
:101790008B070020440000208051010080B500AF7D
:1017A00096239B01074A19001000FFF731FBFFF752
:1017B00067FF96231B011800FFF7E6FAC046BD46F7
:1017C00080BDC046006CDC0280B500AFFEF784FF30
:1017D000FFF7BAFE0A4A0B4B11001800FEF7D2FFC2
:1017E000FFF7B2F8FFF76AFFFFF7D8FFFFF7BEF881
:1017F00096239B011800FEF749FFC046BD4680BDF9
:1018000000E1FFFF006CDC0280B500AF9023DB0538
:101810009022D205928A92B210210A4392B29A8201
:10182000C046BD4680BD80B500AF1420FEF788FFDE
:101830009023DB059022D205928A92B210218A432E
:1018400092B29A82C046BD4680BD000080B500AF0E
:10185000294B1800FEF7D8FFC4239B031800FEF79E
:10186000D3FF264B1B781800FEF7B6FF244B1B78DE
:101870001800FEF7B1FF234B1B781800FEF7ACFFF2
:10188000214B1B781800FEF7A7FF0020FEF7A4FFEE
:101890000020FEF7A1FF7720FEF79EFFFFF7B4FFC1
:1018A000154B1800FFF76EFCC4239B031800FFF7CD
:1018B00069FC124B1B781800FFF70AFB104B1B78D2
:1018C0001800FFF705FB0F4B1B781800FFF700FB14
:1018D0000D4B1B781800FFF7FBFA0020FFF7F8FA12
:1018E0000020FFF7F5FA7720FFF7F2FAFFF79BFFEA
:1018F000C046BD4680BDC046AABB0B0049000020C3
:101900004A0000204B0000208007002080B586B0F0
:1019100000AF0200FB1D1A70FB1D1B78312B10D18C
:101920007A4B1A787A4B1B789A4208D1774B1B79FD
:1019300001221340DAB2774B1A70FFF787FF0023BA
:10194000DFE0FB1D1B78342B4CD1734B1B78012B34
:1019500048D16E4B1A786E4B1B789A4240D10420C6
:10196000FFF730FA03001A0000210E20FFF746F9B6
:101970000820FFF727FA03001A0000210B20FFF7C9
:101980003DF90C20FFF71EFA03001A0001210B207D
:10199000FFF734F95D4B1B7C1A0000210F20FFF785
:1019A0002DF95A4B1B7D1A0000210C20FFF726F958
:1019B000564B1B7E1A0001210C20FFF71FF9564BD6
:1019C00000221A70FFF77AFE544A544B9B8A9BB24E
:1019D00002210B439BB29382514B1800FEF7B0FEDD
:1019E00000238EE0FB1D1B78422B0ED14D4B1B7844
:1019F000002B0AD1454B1A78454B1B789A4202D1ED
:101A0000494B03221A6000237BE0FB1D1B78342B1B
:101A100075D1414B1B78002B71D13C4B1A783C4B54
:101A20001B789A4269D13C4B01221A703F4B1B68CC
:101A30007B613F4B00229B5E3B613E4B1B68FB6022
:101A40007B693D49180000F0BBFC03007B613B69EA
:101A5000053B3B61FB683C21180000F0B1FC030032
:101A6000FB60364B1800FEF7CFFED0239B03180017
:101A7000FEF7CAFEFB681800FEF7C6FE3B691800B9
:101A8000FEF7C2FE7B691800FEF7BEFE2C4B1B78EA
:101A90001800FEF7B9FE2B4B1B781800FEF7B4FEBA
:101AA000294B1B781800FEF7AFFEFFF7ADFE234B66
:101AB0001800FFF767FBD0239B031800FFF762FBBA
:101AC000FB681800FFF75EFB3B691800FFF75AFB45
:101AD0007B691800FFF756FB194B1B781800FFF7BE
:101AE00051FB184B1B781800FFF74CFB164B1B786B
:101AF0001800FFF747FBFFF796FE002301E0FB1DF0
:101B00001B781800BD4606B080BDC0466C010020A1
:101B10008007002039000020510000200004004808
:101B2000B80B00003A0000202800002064010020CB
:101B3000880700204400002080510100AABB1C003F
:101B400060010020680100208B07002080B500AFF5
:101B50009023DB051B8A9BB21A008023134007D118
:101B6000544B1B7801221343DAB2524B1A7006E031
:101B7000504B1B7801229343DAB24E4B1A709023DC
:101B8000DB051B8A9BB21A008023DB00134007D1C0
:101B9000484B1B7802221343DAB2464B1A7006E018
:101BA000444B1B7802229343DAB2424B1A709023C3
:101BB000DB051B8A9BB21A0080239B00134007D1D0
:101BC0003C4B1B7804221343DAB23A4B1A7006E0FE
:101BD000384B1B7804229343DAB2364B1A709023A9
:101BE000DB051B8A9BB21A008023DB01134007D15F
:101BF000304B1B7808221343DAB22E4B1A7006E0E2
:101C00002C4B1B7808229343DAB22A4B1A7090238C
:101C1000DB051B8A9BB21A0080239B01134007D16E
:101C2000244B1B7810221343DAB2224B1A7006E0C1
:101C3000204B1B7810229343DAB21E4B1A701D4BB7
:101C40001B781F2B0FD11C4B1A781A4B1B789A420A
:101C500009D01A4B0E221A80194B962252001A6094
:101C6000184B03221A60144B1B781F2B07D1124B01
:101C70001A78104B1B789A4201D0FFF71FFD902372
:101C8000DB051B8A9BB21A004023134003D10E4B85
:101C900000221A7002E00C4B01221A709023DB051F
:101CA0001B8A9BB21A000223134011D1074B00225A
:101CB0001A7010E0800700208C07002088070020A1
:101CC0006401002028000020490000204A00002074
:101CD0007E4B01221A707E4B00229B5E012B06D1A7
:101CE0007C4B1A687C4B1A607C4B00221A707A4B32
:101CF0001B68012B0BD17A4B00229A5E744B1A8021
:101D0000724B1B78012B02D1744B01221A70704B5D
:101D100000229B5E002B08D06D4B00229B5E9BB285
:101D2000013B9BB21AB26A4B1A806B4B1B68002BAB
:101D300009D06B4B00229B5E002B04D0664B1B68C6
:101D40005A1E654B1A60674B00229B5E012B09D11E
:101D50009023DB059022D205928A92B201210A4398
:101D600092B29A825F4B00229B5E002B08D05D4BA3
:101D700000229B5E9BB2013B9BB21AB2594B1A8068
:101D8000594B00229B5E002B08D0574B00229B5ED4
:101D90009BB2013B9BB21AB2534B1A80534B1B7838
:101DA000002B13D14D4B1B78012B0FD1504B1B78BF
:101DB0001800FFF765FB4F4B1B781800FFF77CFB03
:101DC000484B06221A80484B0F221A80474B1B783B
:101DD000012B16D1414B1B78002B12D19023DB0530
:101DE0009022D205928A92B201218A4392B29A82BB
:101DF0003F4B1B781800FFF75FFBFFF779FBFFF7FE
:101E00008DFB3D4B1B78002B20D03C4B1B78002BCF
:101E100008D13B4B1B681AB23A4B1A80FFF768FB9C
:101E2000FFF77CFB374B00229B5E9AB2013A92B2DD
:101E300011B2344A1180002B08D1314B1B681AB201
:101E4000304B1A80FFF754FBFFF768FB2E4B1B78D3
:101E5000002B27D01D4B1A782C4B1B78D31A5A1EF7
:101E60009341DAB2244B1978244B1B78CB1A591EB4
:101E70008B41DBB21343DBB21900254B1A78254B9B
:101E80001B78D31A5A1E9341DBB20B43224A1178B6
:101E9000224A12788A1A511E8A41D2B2134301D0C3
:101EA000FFF7D4FC0D4B1A78104B1A70124B1A78AE
:101EB000124B1A70054B1A78144B1A70164B1A787D
:101EC000164B1A70C046BD4680BDC0464A00002071
:101ED0003C00002064010020280000203A0000207F
:101EE000880700203E000020400000203B0000202A
:101EF0008B07002068010020490000204D000020D1
:101F0000440000202C000020390000204E0000205A
:101F10004B0000204F000020800700208C0700208D
:101F200080B500AF9023DB051B8A9BB21A002023EB
:101F3000134003D1354B01221A7002E0334B0022CB
:101F40001A70334B1B78002B0AD1304B1B78012BB6
:101F500006D1304B1B78002B02D12F4B03221A6085
:101F60002A4B1A782A4B1A702C4B1B68002B49D02D
:101F70002B4B1B68591E2A4A1160002B42D1274B5C
:101F80001A68274B1A60274B1B780133DAB2254BAE
:101F90001A70244B1B780F221340DAB2214B1A70AF
:101FA000204B1B781A000323134001D1FFF7CEFD0D
:101FB0001C4B1B781A000223134008D11A4A1A4BF3
:101FC0009B8A9BB202210B439BB2938207E0164A85
:101FD000154B9B8A9BB202218B439BB29382134B7E
:101FE0001B78002B0ED10F4B1B781A000F231340C8
:101FF0000F2B07D00C4A0C4B9B8A9BB202210B4340
:102000009BB29382C046BD4680BDC0464B000020B7
:102010004F0000203A00002028000020340000205B
:102020003000002050000020000400484A0000203A
:1020300080B500AFFFF774FFC046BD4680BD00000D
:1020400080B500AFFFF7C0FB244B9B78002B06D078
:10205000224B9A78224B1A70204B00229A70204B08
:102060001B78002B0AD01F4B1B78002B06D11C4B72
:102070001A781C4B1A701A4B00221A70184B1B78D6
:10208000002B21D0174B1B78002B1DD0134B9B78B6
:10209000002B19D0144B1800FEF7B6FB134B180099
:1020A000FEF7B2FB0F4B1B781800FEF795FB0C4BAD
:1020B0001B781800FEF790FB084B9B781800FEF782
:1020C0008BFB084B00221A70064B1B781800FFF799
:1020D0001DFC03001A00034B1A70B5E76C010020C9
:1020E0005200002053000020AABB0700EEEEEEEEE7
:1020F0000C488546002103E00B4B5B5843500431EC
:102100000A480B4B42189A42F6D30A4A02E00023CF
:1021100013600432084B9A42F9D300F011F8FFF72C
:102120008FFFFEE700100020982500080000002027
:10213000380000203800002090070020FEE7000053
:1021400080B500AF1B4B1B4A126801210A431A607D
:10215000184B184A526818490A405A60154B154ADC
:10216000126816490A401A60124B124A1268144942
:102170000A401A600F4B0F4A526812490A405A60CF
:102180000C4B0C4AD26A0F218A43DA62094B094A86
:10219000126B0D490A401A63064B064A526B012125
:1021A0008A435A63034B00229A6000F00FF8C0463E
:1021B000BD4680BD001002400CB8FF08FFFFF6FED0
:1021C000FFFFFBFFFFFFC0FFACFEFFFF80B582B04B
:1021D00000AF00237B6000233B60314B304A126824
:1021E000802149020A431A602D4B1A6880239B0202
:1021F00013403B607B6801337B603B68002B04D15C
:102200007A68A023DB019A42EED1254B1A6880231D
:102210009B02134002D001233B6001E000233B609E
:102220003B68012B38D11F4B11221A601C4B1C4AF2
:1022300052685A601A4B1A4A52685A60184B184A28
:10224000526819490A405A60154B154A526888214C
:1022500049030A435A60124B114A1268802149040B
:102260000A431A60C0460E4B1A6880239B04134031
:10227000F9D00B4B0A4A526803218A435A60084B33
:10228000074A526802210A435A60C046044B5B6801
:102290000C221340082BF9D1C046BD4602B080BDC8
:1022A0000010024000200240FFFFC0FF0022430850
:1022B0008B4274D303098B425FD3030A8B4244D30E
:1022C000030B8B4228D3030C8B420DD3FF22090250
:1022D00012BA030C8B4202D31212090265D0030B0F
:1022E0008B4219D300E0090AC30B8B4201D3CB0305
:1022F000C01A5241830B8B4201D38B03C01A524147
:10230000430B8B4201D34B03C01A5241030B8B4248
:1023100001D30B03C01A5241C30A8B4201D3CB0233
:10232000C01A5241830A8B4201D38B02C01A524118
:10233000430A8B4201D34B02C01A5241030A8B421B
:1023400001D30B02C01A5241CDD2C3098B4201D333
:10235000CB01C01A524183098B4201D38B01C01AB1
:10236000524143098B4201D34B01C01A5241030928
:102370008B4201D30B01C01A5241C3088B4201D3D7
:10238000CB00C01A524183088B4201D38B00C01A84
:10239000524143088B4201D34B00C01A5241411AAB
:1023A00000D20146524110467047FFE701B50020B8
:1023B00000F0F0F802BDC0460029F7D076E770477C
:1023C00003460B437FD4002243088B4274D3030996
:1023D0008B425FD3030A8B4244D3030B8B4228D337
:1023E000030C8B420DD3FF22090212BA030C8B425D
:1023F00002D31212090265D0030B8B4219D300E0FD
:10240000090AC30B8B4201D3CB03C01A5241830B81
:102410008B4201D38B03C01A5241430B8B4201D331
:102420004B03C01A5241030B8B4201D30B03C01A5A
:102430005241C30A8B4201D3CB02C01A5241830AD4
:102440008B4201D38B02C01A5241430A8B4201D303
:102450004B02C01A5241030A8B4201D30B02C01A2D
:102460005241CDD2C3098B4201D3CB01C01A524194
:1024700083098B4201D38B01C01A524143098B421D
:1024800001D34B01C01A524103098B4201D30B0106
:10249000C01A5241C3088B4201D3CB00C01A52412B
:1024A00083088B4201D38B00C01A524143088B42F0
:1024B00001D34B00C01A5241411A00D20146524189
:1024C000104670475DE0CA0F00D04942031000D3A8
:1024D0004042534000229C4603098B422DD3030AFD
:1024E0008B4212D3FC22890112BA030A8B420CD30D
:1024F000890192118B4208D3890192118B4204D336
:1025000089013AD0921100E08909C3098B4201D3B5
:10251000CB01C01A524183098B4201D38B01C01AEF
:10252000524143098B4201D34B01C01A5241030966
:102530008B4201D30B01C01A5241C3088B4201D315
:10254000CB00C01A524183088B4201D38B00C01AC2
:102550005241D9D243088B4201D34B00C01A524199
:10256000411A00D20146634652415B10104601D326
:102570004042002B00D54942704763465B1000D3B0
:10258000404201B5002000F005F802BD0029F8D056
:0825900016E770477047C046D2
:102598000000000001020304010203040607080901
:1025A80008000000FF00000000000000000000001C
:1025B800000000000000000002000000020000000F
:0825C80000040000F50400000E
:0400000508000000EF
:00000001FF
