:020000040800F2
:1000000000200020211900086D1900086D19000852
:1000100000000000000000000000000000000000E0
:100020000000000000000000000000006D19000842
:1000300000000000000000006D190008E10A00083F
:100040006D1900086D1900086D1900086D19000878
:100050006D1900086D1900086D1900086D19000868
:100060006D1900086D1900086D1900086D19000858
:100070006D1900086D1900086D1900086D19000848
:100080006D1900086D190008000000006D190008C6
:100090006D1900086D1900086D1900086D19000828
:1000A0006D1900086D1900086D1900082108000875
:1000B0006D190008000000006D1900080000000024
:1000C0005FF808F180B588B000AF78600023FB616D
:1000D0000023BB6100237B6100233B610023FB60A5
:1000E0006A4B5B680C221340FB61FB69042B07D051
:1000F000082B09D0002B31D17B68654A1A6031E0AA
:100100007B68634A1A602DE0604B5A68F0239B03BA
:100110001340BB615D4B5A6880235B0213407B61D7
:10012000BB699B0C0233BB617B69002B05D1BB69AA
:10013000584A5A437B681A6014E0544BDB6A0F221A
:10014000134001333B613969514802F043F9030020
:100150001A00BB695A437B681A6003E07B684C4A0B
:100160001A60C046494B5B68F0221340FB61FB6993
:100170001B09FB61484AFB69D3181B78DBB2FB60A3
:100180007B681A68FB68DA407B685A603F4B5A68A4
:10019000E023DB001340FB61FB691B0AFB613E4A65
:1001A000FB69D3181B78DBB2FB607B685A68FB687D
:1001B000DA407B689A60354B1A6B80235B001A40EB
:1001C00080235B009A4203D07B68344ADA6013E0F4
:1001D0002E4B5A688023DB011A408023DB019A42B0
:1001E00005D07B689B685A087B68DA6004E07B680E
:1001F0009B689A087B68DA60244B1B6B4022134093
:10020000402B03D07B68264A1A6103E07B6880227A
:1002100012021A611D4B1B6B10221340102B03D0CE
:100220007B681B4A5A6103E07B681A687B685A61E5
:10023000164B1B6B0322134004D17B689A687B68C2
:100240009A611EE0114B1B6B03221340012B04D15A
:100250007B681A687B689A6113E00C4B1B6B032266
:100260001340022B04D17B68802212029A6108E0BD
:10027000064B1B6B03221340032B02D17B68044AFD
:100280009A61C046BD4608B080BDC046001002401D
:1002900000127A0000093D0000000020809FD50078
:1002A0001280000080B582B000AF78600A00FB1CAD
:1002B0001A70FB1C1B78002B06D0094B084A5169A9
:1002C0007A680A435A6106E0054B054A5269796823
:1002D000C9430A405A61C046BD4602B080BDC0460F
:1002E0000010024080B582B000AF78600A00FB1CAD
:1002F0001A70FB1C1B78002B06D0094B084A916929
:100300007A680A439A6106E0054B054A9269796862
:10031000C9430A409A61C046BD4602B080BDC0468E
:100320000010024080B500AF012001F0C7FE01209F
:1003300001F0AAFEC046BD4680BD000080B584B075
:1003400000AF0F4BFB600F4BBB60BB1D00221A8040
:100350000EE0FB681A68BB681A60FB680433FB6038
:10036000BB680433BB60BB1D1A88BB1D01321A80F9
:10037000BB1D1B88052BECD9C046BD4604B080BD13
:1003800000FC00086400002080B584B000AF01F0DC
:10039000B3FE144B180001F0D3FE134BFB60114B5E
:1003A000BB60BB1D00221A8011E0BA68FB681B68A5
:1003B0001900100001F002FFFB680433FB60BB680A
:1003C0000433BB60BB1D1A88BB1D01321A80BB1DE4
:1003D0001B88052BE9D901F0A5FEC046BD4604B037
:1003E00080BDC04600FC00086400002080B500AF5E
:1003F000FFF798FFFFF7A2FF0C4B1A680C4B1A602F
:100400000C4B1B881A000A4B5A600B4B1A68084B9E
:100410009A600A4B1A68064BDA60094B1A68044B5B
:100420001A61FFF7B1FFC046BD4680BD3C00002009
:10043000640000204000002044000020480000200C
:100440004C00002080B500AFFFF76CFFFFF776FF90
:100450000B4B1A680B4B1A60094B5B689AB20A4B3C
:100460001A80074B9A68094B1A60054BDA68084BEB
:100470001A60034B1A69074B1A60C046BD4680BD1F
:10048000640000203C0000204000002044000020C8
:10049000480000204C00002080B582B000AF020070
:1004A000FB1D1A70064BFA1D127811001F220A401C
:1004B000012191400A001A60C046BD4602B080BDCD
:1004C00000E100E0B0B582B000AF02003960FB1D72
:1004D0001A70FB1D1B787F2B32D92F4CFB1D1B780C
:1004E0001A000F231340083B99082B4AFB1D1B7869
:1004F00018000F230340083B9B0806339B00D318CA
:1005000004331B68FA1D1278100003220240D20047
:10051000FF2090400200D2431A403B689B01FF201D
:100520001840FB1D1B781D0003232B40DB00984067
:1005300003001A438B1D9B00E31804331A6027E065
:10054000164CFB1D1B785BB29B081449FA1D1278F0
:1005500052B29208C03292005258F91D0978080030
:1005600003210140C900FF2088400100C943114018
:100570003A689201FF201040FA1D127815000322FC
:100580002A40D200904002000A43C0339B001A5117
:10059000C046BD4602B0B0BD00ED00E000E100E0A5
:1005A00080B582B000AF78607B680E4A934201D973
:1005B000012312E00C4B7A681202120A013A5A60C7
:1005C00001235B4203211800FFF77CFF064B00224A
:1005D0009A60054B07221A6000231800BD4602B03E
:1005E00080BDC046FFFFFF0010E000E080B500AF17
:1005F000034B0221180001F00FFBC046BD4680BD31
:100600000004004880B500AF034B0221180001F040
:1006100012FBC046BD4680BD0004004880B500AF57
:100620009023DB050121180001F0F6FAC046BD4613
:1006300080BD80B500AF9023DB050121180001F0DB
:10064000FAFAC046BD4680BD80B500AF9023DB05F9
:10065000180001F0D6FA0300DBB240221340DBB2EF
:100660001800BD4680BD80B500AF9023DB051800A3
:1006700001F0C7FA0300DBB202221340DBB218001C
:10068000BD4680BD80B582B000AF3B1D00221A7010
:100690009023DB05180001F0B4FA3B1D1A78012104
:1006A0008A431A709023DB05180001F0AAFA3B1D5B
:1006B0001A7802218A431A709023DB05180001F092
:1006C000A0FA3B1D1A7804218A431A709023DB0597
:1006D000180001F096FA3B1D1A7808218A431A7017
:1006E0009023DB05180001F08CFA3B1D1A781021CD
:1006F0008A431A703B1D1B781800BD4602B080BDAE
:1007000080B584B000AF78600A00FB1C1A7000232B
:10071000FB600A23FB18012252421A8033E07B68F7
:100720005A1C7A601B789AB20823FB1812021A80AE
:100730000A23FB180A22B9180822BA180988128855
:100740004A401A800023FB601AE00A23FB180022AB
:100750009B5E002B09DA0A23FB181B885B001BB287
:10076000104A53401BB29BB204E00A23FB181B88BB
:10077000DB189BB20A22BA181380FB680133FB60B6
:10078000FB68072BE1DDFB1C1B78FA1C591E11705E
:10079000002BC4D10A23FB181B881800BD4604B0E7
:1007A00080BDC0462110000080B58AB000AF7860DF
:1007B0000823FB181800FFF785FC0823FB185B686B
:1007C0000949180001F006FE03001A007B68534334
:1007D0007B6202E07B6A013B7B627B6A002BF9D182
:1007E000C046BD460AB080BD1027000080B500AFEE
:1007F0001420FFF7D9FF9023DB051021180001F02A
:100800001AFAC046BD4680BD80B500AF9023DB0517
:100810001021180001F000FAC046BD4680BD00005E
:1008200080B582B000AF264A264B1100180001F0B7
:10083000BCFB031E2FD0224A224B1100180001F0EE
:10084000A8FB204B180001F036FB03001A00FB1D2B
:100850001A70FB1D1B780A2B05D03A2B09D11A4BB5
:1008600000221A8017E000F0D9F8174B00221A80F6
:1008700011E0154B1B88632B0CD8134B1B881900F8
:10088000124BFA1D12785A540F4B1B8801339AB23F
:100890000D4B1A80C0460E4A0A4B1100180001F099
:1008A00084FB031E02D0084B00221A80084A054B25
:1008B0001100180001F0D0FBC046BD4602B080BD5B
:1008C0000501050000380140380000207C000020B0
:1008D0000601060090B583B000AFFC1DFFF7C3FE14
:1008E00003002370BC1DFFF7AFFE03002370FB1D48
:1008F0001B78002B02D0FFF791FE01E0FFF799FE75
:10090000BB1D1B78002B02D03E4B01221A603D4BD1
:100910001B68012B11D002DC002B05D069E0022BF3
:100920002ED0032B50D064E0374B00221A6000F029
:10093000DDFE344B02221A605FE0BC1DFFF784FE2F
:1009400003002370BB1D1B78002B03D12D4B00220D
:100950001A6052E02D4B1B881A002B4B1B689A42E1
:1009600005DD294B1B685A1C274B1A6045E0284BB4
:100970001B68180000F00EFF234B00221A603CE0B9
:10098000214B1A68214B1B881900100001F092FEC0
:100990000B1E04D11E4B1B68180000F0FBFE1A4B07
:1009A0001B681A001B4B1B689A4207D3164B002288
:1009B0001A6000F047FF134B03221A60124B1B68AA
:1009C0005A1C114B1A6018E00F4B1B681A00124B8F
:1009D0001B689A4207D30C4B00221A6000F086FE77
:1009E000084B02221A60084B1B685A1C064B1A60FF
:1009F00003E0044B00221A60C046C046BD4603B067
:100A000090BDC0465400002050000020400000204F
:100A10004C000020440000204800002080B584B035
:100A200000AF0023FB602B4B1B88002B4CD0294BC5
:100A30001B88012213409BB2002B47D10023BB60CF
:100A40000023FB6017E0244AFB68D3181878FB6882
:100A50000133214AD35C190000F01EFB030019008A
:100A60001E4ABB68D3180A1C1A70BB680133BB60EE
:100A7000FB680233FB60174B1B881A00FB689A4225
:100A8000E1DCBB689AB2134B1A80144B7B60FB1CF1
:100A90007A68D2781A70FB1C1B78012B08D002DC14
:100AA000002B0ED013E0022B05D0032B06D00EE056
:100AB00000F048F80BE000F0DFF808E000F030FA52
:100AC00005E000F0B7F902E0C04600E0C046BD46D0
:100AD00004B080BD380000207C000020E000002031
:100AE00080B500AF144B1B685A1C134B1A60124B95
:100AF0001A68FA235B009A421ADD0F4B00221A6033
:100B00000E4B1B685A1C0D4B1A600D4B1B785A423A
:100B10005341DBB21A000A4B1A70094B1B78002BA9
:100B200004D0FFF763FDFFF7D5FE01E0FFF76AFD94
:100B3000C046BD4680BDC046580000205C00002075
:100B40006000002090B58BB000AF00237B62434B68
:100B50003B621E23FC18414B06211800FFF7D0FD15
:100B6000030023803B6A9A79DB791B0213439BB213
:100B70001E22BA1812889A426AD11D23FC18FFF768
:100B800081FD030023703B6A9B781D22BA181278FE
:100B90009A425FD13B6A1A785B781B0213439AB280
:100BA0003B001A803B6A9A783B009A703B6ADA787D
:100BB0003B00DA703B6A1A795B791B0213439AB2E5
:100BC0003B009A80264B1A683B00063311040C0C3C
:100BD000198800200140081C211C01431980100CB9
:100BE0005A8800210A40111C021C0A435A801D4BDE
:100BF0001A883B005A811C4B1A683B00DA601B4B79
:100C00001A683B001A611A4B1A683B005A613B0094
:100C100018211800FFF774FD03001A003B001A8327
:100C200000237B620BE03A007B6AD31819780B4AE9
:100C30007B6AD3180A1C1A707B6A01337B627B6A59
:100C4000192BF0D90B4B1A221A8000F013FD02E089
:100C5000C04600E0C046BD460BB090BDE00000209D
:100C60003C000020400000204400002048000020FC
:100C70004C0000203800002090B58BB000AF00235E
:100C80007B62654B3B621E23FC18634B18211800E6
:100C9000FFF736FD030023803B6A1A7E5B7E1B0252
:100CA00013439BB21E22BA1812889A4200D0ADE0BC
:100CB0001D23FC18FFF7E6FC030023703B6A9B78BA
:100CC0001D22BA1812789A4200D0A1E03B6A9A79A4
:100CD000D97909020A43197A09040A435B7A1B0687
:100CE00013431A004D4B1A603B6A9A7ADB7A1B0257
:100CF00013439AB24A4B1A803B6A1A7B597B09020A
:100D00000A43997B09040A43DB7B1B0613431A0041
:100D1000444B1A603B6A1A7C597C09020A43997C4D
:100D200009040A43DB7C1B0613431A003E4B1A607E
:100D30003B6A1A7D597D09020A43997D09040A43D9
:100D4000DB7D1B0613431A00384B1A60FFF74EFB7E
:100D50003B6A1A785B781B0213439AB23B001A80F5
:100D60003B6A9A783B009A703B6ADA783B00DA700B
:100D70003B6A1A795B791B0213439AB23B009A8053
:100D8000264B1A683B00063311040C0C198800200E
:100D90000140081C211C01431980100C5A880021B5
:100DA0000A40111C021C0A435A801D4B1A883B0042
:100DB0005A811C4B1A683B00DA601B4B1A683B00D7
:100DC0001A611A4B1A683B005A613B00182118003F
:100DD000FFF796FC03001A003B001A8300237B6296
:100DE0000BE03A007B6AD31819780B4A7B6AD31858
:100DF0000A1C1A707B6A01337B627B6A192BF0D95B
:100E00000B4B1A221A8000F035FC02E0C04600E0CD
:100E1000C046BD460BB090BDE00000203C00002065
:100E20004000002044000020480000204C0000202A
:100E30003800002090B587B000AF00237B61364BAF
:100E40003B610E23FC18344B08211800FFF758FCB7
:100E5000030023803B691A7A5B7A1B0213439BB21F
:100E60000E22BA1812889A4250D10D23FC18FFF7AF
:100E700009FC030023703B699B780D22BA18127895
:100E80009A4245D13B691A785B781B0213439AB2A8
:100E90003B001A803B699A783B009A703B69DA788C
:100EA0003B00DA703B691A795B791B0213439AB2F3
:100EB0003B009A803B699A79DB791B0213439AB213
:100EC0003B00DA803B0008211800FFF719FC030003
:100ED0001A003B001A81114B0A221A8000237B6101
:100EE0000BE03A007B69D31819780B4A7B69D31859
:100EF0000A1C1A707B6901337B61084B1B881A003E
:100F00007B699A42EDDC00F0B5FB02E0C04600E0F0
:100F1000C046BD4607B090BDE0000020380000206C
:100F200090B58BB000AF00237B62444B3B621E2325
:100F3000FC18424B08211800FFF7E2FB0300238056
:100F40003B6A1A7A5B7A1B0213439BB21E22BA18C1
:100F500012889A426CD11D23FC18FFF793FB030003
:100F600023703B6A9B781D22BA1812789A4261D18D
:100F700000F072F83B6A1A785B781B0213439AB24E
:100F80003B001A803B6A9A783B009A703B6ADA7899
:100F90003B00DA703B6A1A795B791B0213439AB201
:100FA0003B009A80264B1A683B00063311040C0C58
:100FB000198800200140081C211C01431980100CD5
:100FC0005A8800210A40111C021C0A435A801D4BFA
:100FD0001A883B005A811C4B1A683B00DA601B4B95
:100FE0001A683B001A611A4B1A683B005A613B00B1
:100FF00018211800FFF784FB03001A003B001A8336
:1010000000237B620BE03A007B6AD31819780B4A05
:101010007B6AD3180A1C1A707B6A01337B627B6A75
:10102000192BF0D90B4B1A221A8000F023FB02E097
:10103000C04600E0C046BD460BB090BDE0000020B9
:101040003C00002040000020440000204800002018
:101050004C0000203800002080B500AF094B002272
:101060001A60094B05221A80084B14221A60084B9B
:101070003C221A60074B3F221A60FFF7B7F9C046BF
:10108000BD4680BD3C000020400000204400002000
:10109000480000204C00002080B584B000AF020062
:1010A000FB1D1A70BB1D0A1C1A700F23FB180022AF
:1010B0001A700E23FB1800221A70FB1D1B78303BA0
:1010C000362B00D972E09A00804BD3181B689F46DC
:1010D0000F23FB1800221A7069E00F23FB1801226E
:1010E0001A7064E00F23FB1802221A705FE00F23CE
:1010F000FB1803221A705AE00F23FB1804221A70FF
:1011000055E00F23FB1805221A7050E00F23FB183F
:1011100006221A704BE00F23FB1807221A7046E0D4
:101120000F23FB1808221A7041E00F23FB18092235
:101130001A703CE00F23FB180A221A7037E00F23C5
:10114000FB180B221A7032E00F23FB180C221A70C6
:101150002DE00F23FB180D221A7028E00F23FB1837
:101160000E221A7023E00F23FB180F221A701EE0C4
:101170000F23FB180A221A7019E00F23FB180B2209
:101180001A7014E00F23FB180C221A700FE00F23C3
:10119000FB180D221A700AE00F23FB180E221A709A
:1011A00005E00F23FB180F221A7000E0C046BB1D9C
:1011B0001B78303B362B00D972E09A00444BD31891
:1011C0001B689F460E23FB1800221A7069E00E234D
:1011D000FB1801221A7064E00E23FB1802221A7019
:1011E0005FE00E23FB1803221A705AE00E23FB184F
:1011F00004221A7055E00E23FB1805221A7050E0E5
:101200000E23FB1806221A704BE00E23FB18072250
:101210001A7046E00E23FB1808221A7041E00E23D4
:10122000FB1809221A703CE00E23FB180A221A70E0
:1012300037E00E23FB180B221A7032E00E23FB1846
:101240000C221A702DE00E23FB180D221A7028E0D4
:101250000E23FB180E221A7023E00E23FB180F2218
:101260001A701EE00E23FB180A221A7019E00E23D2
:10127000FB180B221A7014E00E23FB180C221A70B4
:101280000FE00E23FB180D221A700AE00E23FB1844
:101290000E221A7005E00E23FB180F221A7000E0D0
:1012A000C0460F23FB181B781B015AB20E23FB18F4
:1012B0001B785BB213435AB20D23FB181A700D232F
:1012C000FB181B781800BD4604B080BDC02600087E
:1012D0009C27000880B586B000AFB9607A600F2304
:1012E000FB18021C1A701723FB180F22BA18127869
:1012F00012091A701623FB180F22BA1812780F2140
:101300000A401A701723FB181B780F2B44D89A0039
:10131000494BD3181B689F46BB6830221A703CE0CB
:10132000BB6831221A7038E0BB6832221A7034E090
:10133000BB6833221A7030E0BB6834221A702CE08C
:10134000BB6835221A7028E0BB6836221A7024E088
:10135000BB6837221A7020E0BB6838221A701CE084
:10136000BB6839221A7018E0BB6841221A7014E079
:10137000BB6842221A7010E0BB6843221A700CE06E
:10138000BB6844221A7008E0BB6845221A7004E06A
:10139000BB6846221A7000E0C0461623FB181B7873
:1013A0000F2B44D89A00254BD3181B689F467B68A7
:1013B00030221A703CE07B6831221A7038E07B687A
:1013C00032221A7034E07B6833221A7030E07B6876
:1013D00034221A702CE07B6835221A7028E07B6872
:1013E00036221A7024E07B6837221A7020E07B686E
:1013F00038221A701CE07B6839221A7018E07B686A
:1014000041221A7014E07B6842221A7010E07B6857
:1014100043221A700CE07B6844221A7008E07B6853
:1014200045221A7004E07B6846221A7000E0C0462C
:10143000C046BD4606B080BD78280008B828000820
:1014400080B582B000AF80239B0201211800FEF717
:1014500029FF8023DB0201211800FEF723FF3B0058
:1014600010221A603B0001221A713B0003225A71BC
:101470003A009023DB051100180000F02FFB3B0021
:1014800002221A603B0001221A713B0003225A71AA
:101490003B00314A1900100000F020FB3B002022E5
:1014A0001A603B0001221A713B0003225A713A0074
:1014B0009023DB051100180000F010FB3B00012217
:1014C0001A603B0001221A713B0003225A713A0054
:1014D0009023DB051100180000F000FB3B004022C8
:1014E0001A603B0000221A713B0003225A713B0034
:1014F0000122DA713A009023DB051100180000F098
:10150000EDFA3B0002221A603B0000221A713B00F8
:1015100003225A713B000122DA713A009023DB0565
:101520001100180000F0DAFA3B00CD22D2011A6057
:101530003B0000221A713B0003225A713B0001223A
:10154000DA713A009023DB051100180000F0C6FAAA
:10155000C046BD4602B080BD0004004880B58AB0D8
:1015600000AF8023DB0101211800FEF7BBFE9023B2
:10157000DB0501220921180000F06CFB9023DB053C
:1015800001220A21180000F065FB1023FB189622A7
:1015900092011A601023FB1800225A601023FB18D6
:1015A00000229A601023FB180022DA601023FB1837
:1015B00000225A611023FB180C221A611023FB1819
:1015C0001C4A1900100000F097FB1A4B012118006B
:1015D00000F042FC0C23FB181B221A700C23FB1892
:1015E00001225A700C23FB1801229A700C23FB185D
:1015F000180000F099FE3B1DC022D2001A603B1D6E
:1016000002221A713B1D03225A713A1D9023DB05F9
:101610001100180000F062FA0749064B0122180079
:1016200000F057FC1B20FEF737FFC046BD460AB04E
:1016300080BDC046003801400501050080B582B07C
:1016400000AF0200FB1D1A70C046094B8021180034
:1016500000F081FC031EF8D0FB1D1B789BB2044AEE
:101660001900100000F015FCC046BD4602B080BD58
:101670000038014080B582B000AF00237B60FB1CC6
:1016800000221A70BB1C00221A70FFF7BDF83A2026
:10169000FFF7D4FF00237B6015E0124A7B68D31864
:1016A0001B78BA1CF91C1800FFF714FEFB1C1B78F2
:1016B0001800FFF7C3FFBB1C1B781800FFF7BEFF25
:1016C0007B6801337B60084B1B881A007B689A4259
:1016D000E3DC0D20FFF7B2FFFFF788F8C046BD46F8
:1016E00002B080BDE00000203800002080B500AFCF
:1016F000264B1B68DAB2264B5A70254B00229A7093
:10170000234B0722DA70224B00221A71204B3B2216
:101710005A711F4B5A781E4B9B785340DAB21C4BC0
:10172000DB785340DAB21A4B1B795340DAB2184BCC
:101730005B795340DAB2164B9A71FFF765F8FF20D8
:10174000FFF77CFF124B5B781800FFF777FF104B19
:101750009B781800FFF772FF0D4BDB781800FFF73E
:101760006DFF0B4B1B791800FFF768FF084B5B7987
:101770001800FFF763FF064B9B791800FFF75EFF29
:10178000FFF734F8C046BD4680BDC0463C0000208F
:101790001000002080B582B000AF7860274B1B6836
:1017A000DAB2274B5A70264B00229A70244B07223C
:1017B000DA70234B00221A717B68DAB2204B5A711F
:1017C0001F4B5A781E4B9B785340DAB21C4BDB7888
:1017D0005340DAB21A4B1B795340DAB2184B5B799B
:1017E0005340DAB2164B9A71FFF70EF8FF20FFF75D
:1017F00025FF134B5B781800FFF720FF104B9B78F9
:101800001800FFF71BFF0E4BDB781800FFF716FFE1
:101810000B4B1B791800FFF711FF094B5B79180080
:10182000FFF70CFF064B9B791800FFF707FFFEF749
:10183000DDFFC046BD4602B080BDC0463C00002072
:101840001000002080B500AF264B1B68DAB2264B93
:101850005A70254B00229A70234B2322DA70224BB8
:1018600000221A71204B00225A711F4B5A781E4BCE
:101870009B785340DAB21C4BDB785340DAB21A4BF8
:101880001B795340DAB2184B5B795340DAB2164BEE
:101890009A71FEF7B9FFFF20FFF7D0FE124B5B787D
:1018A0001800FFF7CBFE104B9B781800FFF7C6FE21
:1018B0000D4BDB781800FFF7C1FE0B4B1B791800AE
:1018C000FFF7BCFE084B5B791800FFF7B7FE064B2D
:1018D0009B791800FFF7B2FEFEF788FFC046BD46B1
:1018E00080BDC0463C0000201000002080B500AF45
:1018F00062B60A4B1A68FA239900100000F06AFDDC
:1019000003001800FEF74CFEFFF79AFDFFF726FED6
:10191000FEF798FDFEF76AFFFEE7C04624000020B0
:101920000C488546002103E00B4B5B5843500431C3
:101930000A480B4B42189A42F6D30A4A02E00023A7
:1019400013600432084B9A42F9D300F011F8FFF704
:10195000CDFFFEE700200020F8280008000000204E
:10196000380000203800002044010020FEE700007D
:1019700080B500AF1B4B1B4A126801210A431A6055
:10198000184B184A526818490A405A60154B154AB4
:10199000126816490A401A60124B124A126814491A
:1019A0000A401A600F4B0F4A526812490A405A60A7
:1019B0000C4B0C4AD26A0F218A43DA62094B094A5E
:1019C000126B0D490A401A63064B064A526B0121FD
:1019D0008A435A63034B00229A6000F00FF8C04616
:1019E000BD4680BD001002400CB8FFF8FFFFF6FEB8
:1019F000FFFFFBFFFFFFC0FFACFEFFFF80B582B023
:101A000000AF00237B6000233B60314B304A1268FB
:101A1000802149020A431A602D4B1A6880239B02D9
:101A200013403B607B6801337B603B68002B04D133
:101A30007A68A023DB019A42EED1254B1A688023F5
:101A40009B02134002D001233B6001E000233B6076
:101A50003B68012B38D11F4B11221A601C4B1C4ACA
:101A600052685A601A4B1A4A52685A60184B184A00
:101A7000526819490A405A60154B154A5268882124
:101A800049030A435A60124B114A126880214904E3
:101A90000A431A60C0460E4B1A6880239B04134009
:101AA000F9D00B4B0A4A526803218A435A60084B0B
:101AB000074A526802210A435A60C046044B5B68D9
:101AC0000C221340082BF9D1C046BD4602B080BDA0
:101AD0000010024000200240FFFFC0FF80B586B02A
:101AE00000AF7860396000237B6100233B610023F5
:101AF000FB6000237B617CE001227B699A4013003C
:101B00003B613B681B683A691340FB60FA683B69BC
:101B10009A426BD13B681B79012B03D03B681B7940
:101B2000022B34D17B689B687A6952000321914073
:101B30000A00D2431A407B689A607B689A683B68C7
:101B40005B7919007B695B0099400B001A437B6845
:101B50009A607B689B889BB27A6992B211000122DD
:101B60008A4092B2D24392B213409AB27B689A8072
:101B70007B689B889AB23B689B7919007B699BB212
:101B800099400B009BB213439AB27B689A807B68A2
:101B90001B687A695200032191400A00D2431A401F
:101BA0007B681A607B681A683B681B7919007B693F
:101BB0005B0099400B001A437B681A607B68DB6806
:101BC0007A6992B25200032191400A00D2431A402E
:101BD0007B68DA607B68DA683B68DB7919007B69CF
:101BE0005B0099400B001A437B68DA607B69013324
:101BF0007B617B690F2B00D87EE7C046BD4606B0EF
:101C000080BD80B582B000AF78607B681B8A9BB2D4
:101C10001800BD4602B080BD80B582B000AF7860CC
:101C20000A00BB1C1A80BB1C1A887B689A61C046DC
:101C3000BD4602B080BD80B582B000AF78600A00BA
:101C4000BB1C1A807B68BA1C12881A85C046BD4628
:101C500002B080BD80B584B000AF7860080011008C
:101C6000BB1C021C1A807B1C0A1C1A700023FB6020
:101C70000023BB607B1C1A78BB1C1B8807210B4010
:101C80009B009A401300FB60BB1C1B88DB089BB2C7
:101C90001800BB1C1B88DB089BB21A007B6808324B
:101CA0009200D358BA1C128807210A4092000F21D3
:101CB00091400A00D2431A4011007B6802000832AA
:101CC0009200D150BB1C1B88DB089BB21A007B68BA
:101CD00008329200D258FB681343BB60BB1C1B88C0
:101CE000DB089BB21A007B6808329200B968D150B9
:101CF000C046BD4604B080BD80B58CB000AF7860F2
:101D000039600023FB620023BB6200237B627B6897
:101D10001B68012293431A007B681A607B685B682A
:101D20007B627B6A474A13407B623B689B687A6AA6
:101D300013437B627B687A6A5A607B681B687B62AC
:101D40007B6A414A13407B623B685A683B68DB68A8
:101D50001A433B681B6913437A6A13437B627B68AF
:101D60007A6A1A607B689B687B627B6A374A134099
:101D70007B623B685B697A6A13437B627B687A6A41
:101D80009A600823FB181800FEF79CF97B68304A1C
:101D9000934204D10823FB189B69BB6203E008232C
:101DA000FB189B68BB627B681A6880231B02134088
:101DB00014D0BB6A5A003B681B681900100000F081
:101DC00009FB0300FB62BB6A5A003B681B681900F1
:101DD000100000F085FB0B007B6210E03B681B6885
:101DE0001900B86A00F0F6FA0300FB623B681A6853
:101DF000BB6A1100180000F073FB0B007B623B68AC
:101E00001B685A087B6A9A4202D8FB6A0133FB625C
:101E10007B681A6880231B0213400AD0FB6A5B08A8
:101E2000072213407B62FB6A0A4A1A407B6A13430B
:101E3000FB62FB6A9AB27B689A81C046BD460CB0D1
:101E400080BDC046FFCFFFFFF3E9FFFFFFFCFFFFB0
:101E500000380140F0FF000080B582B000AF78602C
:101E60000A00FB1C1A70FB1C1B78002B06D07B6839
:101E70001B6801221A437B681A6006E07B681B68B6
:101E8000012293431A007B681A60C046BD4602B027
:101E900080BD80B582B000AF78600A00BB1C1A809C
:101EA000BB1C1B88DB05DB0D9AB27B681A85C0461C
:101EB000BD4602B080BD80B582B000AF78607B685F
:101EC0009B8C9BB2DB05DB0D9BB21800BD4602B0BC
:101ED00080BD80B588B000AFF860B960FB1D1A7096
:101EE0000023BB6100237B6100233B610023FB6176
:101EF000FB68FB61BB689BB21B0A9BB2BB61BB6802
:101F0000FF2213407B6101227B699A4013003B61F1
:101F1000BB69022B03D1FB690433FB6105E0BB699C
:101F2000032B02D1FB690833FB61FB1D1B78002BDF
:101F300006D0FB69FA6911683A690A431A6006E03B
:101F4000FB69FA6912683969C9430A401A60C046D8
:101F5000BD4608B080BD80B584B000AF7860396000
:101F60000F23FB1800221A707B68DB693A68134064
:101F700004D00F23FB1801221A7003E00F23FB1873
:101F800000221A700F23FB181B781800BD4604B0FE
:101F900080BD80B582B000AF786039607B683A68F8
:101FA0001A62C046BD4602B080BD80B586B000AFA3
:101FB000786039600023FB6000237B610023BB60F5
:101FC0001323FB1800221A703B689BB21B0A9BB2BA
:101FD000BB603B68FF2213407B6101227B699A4012
:101FE00013007B61BB68012B05D17B681A687B6994
:101FF00013407B610DE0BB68022B05D17B685A68FA
:102000007B6913407B6104E07B689A687B691340BD
:102010007B613B681B0CFB600122FB689A4013004C
:10202000FB607B68DA69FB681340FB607B69002B0F
:1020300007D0FB68002B04D01323FB1801221A7071
:1020400003E01323FB1800221A701323FB181B78DC
:102050001800BD4606B080BD80B584B000AF786082
:1020600039600023FB600023BB603B681B0CFB60F6
:102070000122FB689A401300BB607B68BA681A6251
:10208000C046BD4604B080BD80B584B000AF786066
:102090000023FB60084B1B68FB60FB680122934335
:1020A000FB60FA687B681343FB60034BFA681A60B5
:1020B000C046BD4604B080BD0020024080B582B05D
:1020C00000AF0200FB1D1A70FB1D1B78002B06D011
:1020D000084B084A126810210A431A6005E0054BB4
:1020E000044A126810218A431A60C046BD4602B0F5
:1020F00080BDC0460020024080B500AF064B1B6982
:102100008022134005D0044B044A5A60024B044A13
:102110005A60C046BD4680BD00200240230167458D
:10212000AB89EFCD80B500AF044B044A1269802122
:102130000A431A61C046BD4680BDC0460020024029
:1021400090B585B000AF78600F23FB1804221A7099
:102150000F23FC18B0231B03180000F0B7F803008E
:1021600023700F23FB181B78042B1DD1124B124A2E
:10217000126902210A431A610F4B7A685A610E4BA9
:102180000D4A126940210A431A610F23FC18B0233B
:102190001B03180000F09AF803002370064B064A50
:1021A000126902218A431A610F23FB181B78180059
:1021B000BD4605B090BDC0460020024090B585B038
:1021C00000AF786039600F23FB1804221A700023D7
:1021D000BB600F23FC18B0231B03180000F076F837
:1021E000030023700F23FB181B78042B36D11F4BE1
:1021F0001E4A126901210A431A617B683A6892B249
:102200001A800F23FC18B0231B03180000F05EF89F
:10221000030023700F23FB181B78042B18D17B6855
:102220000233BB60BB681A003B681B0C9BB2138077
:102230000F23FC18B0231B03180000F047F803001D
:1022400023700A4B094A126901218A431A6105E089
:10225000064B064A126901218A431A610F23FB18B3
:102260001B781800BD4605B090BDC0460020024056
:1022700080B582B000AFFB1D04221A70124BDB68E0
:1022800001221340012B03D1FB1D01221A7014E01F
:102290000D4BDB681022134003D0FB1D02221A7085
:1022A0000BE0094BDB680422134003D0FB1D032223
:1022B0001A7002E0FB1D04221A70FB1D1B78180027
:1022C000BD4602B080BDC0460020024090B585B03A
:1022D00000AF78600F23FB1804221A700F23FC183C
:1022E000FFF7C6FF0300237008E00F23FC18FFF779
:1022F000BFFF030023707B68013B7B600F23FB184B
:102300001B78012B02D17B68002BEED17B68002B60
:1023100003D10F23FB1805221A700F23FB181B781B
:102320001800BD4605B090BD80B584B000AF7860A0
:102330000023FB607B689B78002B39D0244A7B68A4
:102340001B789B08DBB2C0339B009B58FB607B680B
:102350001B781A0003231340DB00FF229A4013006E
:10236000DA43FB681340FB607B685B789B01FF22CC
:102370001A407B681B78190003230B40DB009A404E
:102380001300FA681343FB6011497B681B789B08B4
:10239000DBB2C0339B00FA685A500D4B7A68127852
:1023A00011001F220A40012191400A001A600AE030
:1023B00007497B681B781A001F23134001229A40AB
:1023C000130080228B50C046BD4604B080BDC0467D
:1023D00000E100E0002243088B4274D303098B42E2
:1023E0005FD3030A8B4244D3030B8B4228D3030CE5
:1023F0008B420DD3FF22090212BA030C8B4202D387
:102400001212090265D0030B8B4219D300E0090AAE
:10241000C30B8B4201D3CB03C01A5241830B8B42B7
:1024200001D38B03C01A5241430B8B4201D34B03A0
:10243000C01A5241030B8B4201D30B03C01A524105
:10244000C30A8B4201D3CB02C01A5241830A8B428A
:1024500001D38B02C01A5241430A8B4201D34B0273
:10246000C01A5241030A8B4201D30B02C01A5241D7
:10247000CDD2C3098B4201D3CB01C01A524183098B
:102480008B4201D38B01C01A524143098B4201D3C5
:102490004B01C01A524103098B4201D30B01C01AF0
:1024A0005241C3088B4201D3CB00C01A524183086A
:1024B0008B4201D38B00C01A524143088B4201D397
:1024C0004B00C01A5241411A00D2014652411046F7
:1024D0007047FFE701B5002000F0F0F802BDC046EC
:1024E0000029F7D076E7704703460B437FD40022DC
:1024F00043088B4274D303098B425FD3030A8B4298
:1025000044D3030B8B4228D3030C8B420DD3FF2201
:10251000090212BA030C8B4202D31212090265D0CF
:10252000030B8B4219D300E0090AC30B8B4201D382
:10253000CB03C01A5241830B8B4201D38B03C01AC9
:102540005241430B8B4201D34B03C01A5241030B40
:102550008B4201D30B03C01A5241C30A8B4201D3F1
:10256000CB02C01A5241830A8B4201D38B02C01A9C
:102570005241430A8B4201D34B02C01A5241030A13
:102580008B4201D30B02C01A5241CDD2C3098B42F8
:1025900001D3CB01C01A524183098B4201D38B0175
:1025A000C01A524143098B4201D34B01C01A524118
:1025B00003098B4201D30B01C01A5241C3088B425D
:1025C00001D3CB00C01A524183088B4201D38B0048
:1025D000C01A524143088B4201D34B00C01A5241EA
:1025E000411A00D201465241104670475DE0CA0FC1
:1025F00000D04942031000D34042534000229C4681
:1026000003098B422DD3030A8B4212D3FC2289018A
:1026100012BA030A8B420CD3890192118B4208D360
:10262000890192118B4204D389013AD0921100E0C2
:102630008909C3098B4201D3CB01C01A52418309D6
:102640008B4201D38B01C01A524143098B4201D303
:102650004B01C01A524103098B4201D30B01C01A2E
:102660005241C3088B4201D3CB00C01A52418308A8
:102670008B4201D38B00C01A5241D9D243088B42FE
:1026800001D34B00C01A5241411A00D201466346A1
:1026900052415B10104601D34042002B00D5494205
:1026A000704763465B1000D3404201B5002000F044
:1026B00005F802BD0029F8D016E770477047C046FC
:1026C000D0100008DA100008E4100008EE1000082E
:1026D000F8100008021100080C110008161100087B
:1026E000201100082A110008AC110008AC110008E4
:1026F000AC110008AC110008AC110008AC110008C6
:10270000AC110008701100087A110008841100084B
:102710008E11000898110008A2110008AC110008E1
:10272000AC110008AC110008AC110008AC11000895
:10273000AC110008AC110008AC110008AC11000885
:10274000AC110008AC110008AC110008AC11000875
:10275000AC110008AC110008AC110008AC11000865
:10276000AC110008AC110008AC110008AC11000855
:10277000AC110008AC110008AC110008AC11000845
:10278000AC110008341100083E110008481100087F
:10279000521100085C11000866110008C4110008FD
:1027A000CE110008D8110008E2110008EC11000851
:1027B000F6110008001200080A120008141200089E
:1027C0001E120008A0120008A0120008A0120008A3
:1027D000A0120008A0120008A0120008A012000811
:1027E000641200086E1200087812000882120008B5
:1027F0008C12000896120008A0120008A01200080F
:10280000A0120008A0120008A0120008A0120008E0
:10281000A0120008A0120008A0120008A0120008D0
:10282000A0120008A0120008A0120008A0120008C0
:10283000A0120008A0120008A0120008A0120008B0
:10284000A0120008A0120008A0120008A0120008A0
:10285000A0120008A0120008A0120008A012000890
:1028600028120008321200083C1200084612000824
:10287000501200085A12000818130008201300080C
:10288000281300083013000838130008401300080C
:10289000481300085013000858130008601300087C
:1028A00068130008701300087813000880130008EC
:1028B0008813000890130008AE130008B613000830
:1028C000BE130008C6130008CE130008D613000874
:1028D000DE130008E6130008EE130008F6130008E4
:1028E000FE130008061400080E1400081614000851
:0828F0001E1400082614000864
:1028F800000000000102030401020304060708099E
:10290800FF000000000000000000000000000000C0
:1029180000000000006CDC02000000000000000065
:0829280001020304060708097F
:0400000508000000EF
:00000001FF
