:020000040800F2
:1000000000100020E9110008351200083512000820
:1000100000000000000000000000000000000000E0
:100020000000000000000000000000003512000881
:10003000000000000000000035120008510900080F
:100040003512000835120008351200083512000874
:100050003512000835120008351200083512000864
:100060003512000835120008351200083512000854
:100070003512000835120008351200083512000844
:100080003512000835120008000000003512000883
:100090003512000835120008351200083512000824
:1000A00035120008351200083512000895070008BF
:1000B00035120008000000003512000800000000A2
:1000C0005FF808F180B588B000AF78600023FB616D
:1000D0000023BB6100237B6100233B610023FB60A5
:1000E0006A4B5B680C221340FB61FB69042B07D051
:1000F000082B09D0002B31D17B68654A1A6031E0AA
:100100007B68634A1A602DE0604B5A68F0239B03BA
:100110001340BB615D4B5A6880235B0213407B61D7
:10012000BB699B0C0233BB617B69002B05D1BB69AA
:10013000584A5A437B681A6014E0544BDB6A0F221A
:10014000134001333B613969514801F005FC03005C
:100150001A00BB695A437B681A6003E07B684C4A0B
:100160001A60C046494B5B68F0221340FB61FB6993
:100170001B09FB61484AFB69D3181B78DBB2FB60A3
:100180007B681A68FB68DA407B685A603F4B5A68A4
:10019000E023DB001340FB61FB691B0AFB613E4A65
:1001A000FB69D3181B78DBB2FB607B685A68FB687D
:1001B000DA407B689A60354B1A6B80235B001A40EB
:1001C00080235B009A4203D07B68344ADA6013E0F4
:1001D0002E4B5A688023DB011A408023DB019A42B0
:1001E00005D07B689B685A087B68DA6004E07B680E
:1001F0009B689A087B68DA60244B1B6B4022134093
:10020000402B03D07B68264A1A6103E07B6880227A
:1002100012021A611D4B1B6B10221340102B03D0CE
:100220007B681B4A5A6103E07B681A687B685A61E5
:10023000164B1B6B0322134004D17B689A687B68C2
:100240009A611EE0114B1B6B03221340012B04D15A
:100250007B681A687B689A6113E00C4B1B6B032266
:100260001340022B04D17B68802212029A6108E0BD
:10027000064B1B6B03221340032B02D17B68044AFD
:100280009A61C046BD4608B080BDC046001002401D
:1002900000127A0000093D0000000020809FD50078
:1002A0001280000080B582B000AF78600A00FB1CAD
:1002B0001A70FB1C1B78002B06D0094B084A5169A9
:1002C0007A680A435A6106E0054B054A5269796823
:1002D000C9430A405A61C046BD4602B080BDC0460F
:1002E0000010024080B582B000AF78600A00FB1CAD
:1002F0001A70FB1C1B78002B06D0094B084AD169E9
:100300007A680A43DA6106E0054B054AD2697968E2
:10031000C9430A40DA61C046BD4602B080BDC0464E
:100320000010024080B582B000AF0200FB1D1A70C1
:10033000064BFA1D127811001F220A40012191403C
:100340000A001A60C046BD4602B080BD00E100E070
:10035000B0B582B000AF02003960FB1D1A70FB1D02
:100360001B787F2B32D92F4CFB1D1B781A000F23D3
:100370001340083B99082B4AFB1D1B7818000F23DC
:100380000340083B9B0806339B00D31804331B68CB
:10039000FA1D1278100003220240D200FF20904084
:1003A0000200D2431A403B689B01FF201840FB1D0E
:1003B0001B781D0003232B40DB00984003001A43E9
:1003C0008B1D9B00E31804331A6027E0164CFB1DBD
:1003D0001B785BB29B081449FA1D127852B292083E
:1003E000C03292005258F91D0978080003210140DB
:1003F000C900FF2088400100C94311403A689201BA
:10040000FF201040FA1D1278150003222A40D20066
:10041000904002000A43C0339B001A51C046BD46BB
:1004200002B0B0BD00ED00E000E100E080B582B0B8
:1004300000AF78607B680E4A934201D9012312E035
:100440000C4B7A681202120A013A5A6001235B428D
:1004500003211800FFF77CFF064B00229A60054B32
:1004600007221A6000231800BD4602B080BDC046B6
:10047000FFFFFF0010E000E080B500AF9023DB0538
:100480000121180001F02CF8C046BD4680BD80B5A2
:1004900000AF9023DB050121180001F030F8C046C1
:1004A000BD4680BD80B500AF80235B00034A1900C4
:1004B000100001F015F8C046BD4680BD0008004898
:1004C00080B500AF80235B00034A1900100001F0E3
:1004D00016F8C046BD4680BD0008004880B500AF94
:1004E00080239B00034A1900100000F0F9FFC0466A
:1004F000BD4680BD0008004880B500AF80239B004A
:10050000034A1900100000F0FAFFC046BD4680BD46
:100510000008004880B500AF9023DB05180000F00C
:10052000D4FF031E01D0012300E00023DBB218003A
:10053000BD4680BD80B500AF9023DB05180000F0FC
:10054000C4FF031E01D0012300E00023DBB218002A
:10055000BD4680BD80B586B000AF78600A00FB1C48
:100560001A701623FB18012252421A8033E07B686E
:100570005A1C7A601B789AB20E23FB1812021A805A
:100580001623FB181622B9180E22BA1809881288E9
:100590004A401A8000233B611AE01623FB18002210
:1005A0009B5E002B09DA1623FB181B885B001BB22D
:1005B000104A53401BB29BB204E01623FB181B8861
:1005C000DB189BB21622BA1813803B6901333B61DA
:1005D0003B69072BE1DDFB1C1B78FA1C591E1170CF
:1005E000002BC4D11623FB181B881800BD4606B08B
:1005F00080BDC0462110000080B500AF80231A01E5
:100600009023DB051100180000F079FFC046BD46BD
:1006100080BD80B500AF80231A019023DB05110057
:10062000180000F05DFFC046BD4680BD80B582B0B9
:1006300000AF80239B0201211800FFF753FE8023A7
:100640009B0201211800FFF72DFE80231B030121CF
:100650001800FFF727FE3B00C02292001A603B0003
:1006600001221A713B0003225A713B00254A1900EE
:10067000100000F097FE3B00FF221A603B000122B1
:100680001A713B0003225A713A009023DB051100D6
:10069000180000F087FE3B00802212011A603B0028
:1006A00001221A713B0003225A713A009023DB05A4
:1006B0001100180000F076FE3B00802292001A60C4
:1006C0003B0003225A713B0002221A713A00902328
:1006D000DB051100180000F065FE3B008022D2000F
:1006E0001A603B0000221A713A009023DB051100CA
:1006F000180000F057FEFFF77FFFC046BD4602B06E
:1007000080BDC0460008004880B588B000AF08230F
:10071000FB18962292011A600823FB1800225A60E7
:100720000823FB1800229A600823FB180022DA60D5
:100730000823FB1800225A610823FB180C221A61B7
:100740000823FB18114A1900100000F0E7FE0F4BB8
:100750000121180000F092FF3B1D1B221A703B1D67
:1007600001225A703B1D01229A703B1D180001F0B6
:100770009DF80749054B0122180000F0BCFF1B2023
:10078000FFF7D0FDC046BD4608B080BD003801402F
:100790000501050080B582B000AF264A264B110046
:1007A000180001F014F8031E2FD0224A224B11002A
:1007B000180001F000F8204B180000F08EFF030035
:1007C0001A00FB1D1A70FB1D1B780A2B05D03A2B53
:1007D00009D11A4B00221A8017E000F059F8174B84
:1007E00000221A8011E0154B1B88C72B0CD8134B25
:1007F0001B881900124BFA1D12785A540F4B1B8894
:1008000001339AB20D4B1A80C0460E4A0A4B1100B2
:10081000180000F0DCFF031E02D0084B00221A80F3
:10082000084A054B1100180001F028F8C046BD46E3
:1008300002B080BD05010500003801402400002001
:10084000480000200601060080B500AFFFF772FEE9
:10085000FFF760FE0D4B1B785A425341DBB21A0082
:100860000A4B1A70094B1B78002B06D0FFF704FEC9
:10087000FFF718FEFFF740FE05E0FFF708FEFFF761
:100880001FFEFFF72BFEC046BD4680BD4400002082
:1008900080B584B000AF2B4B1B88002B4CD0294B6C
:1008A0001B88012213409BB2002B47D10023FB6021
:1008B0000023BB6017E0244ABB68D3181878BB68D4
:1008C0000133214AD35C190000F0E2FA0300190059
:1008D0001E4AFB68D3180A1C1A70FB680133FB60C0
:1008E000BB680233BB60174B1B881A00BB689A4277
:1008F000E1DCFB689AB2134B1A80144B7B60FB1C43
:100900007A68D2781A70FB1C1B78012B08D002DCA5
:10091000002B0ED013E0022B05D0032B06D00EE0E7
:1009200000F084F80BE000F011F908E000F04EFA56
:1009300005E000F0E9F902E0C04600E0C046BD462F
:1009400004B080BD240000204800002010010020D9
:1009500080B500AF094B1B685A1C084B1A60074B47
:100960001A68FA235B009A4204DD044B00221A60E5
:10097000FFF76AFFC046BD4680BDC046400000206C
:1009800080B582B000AF0200FB1D1A70C046094B53
:100990008021180000F0F1FE031EF8D0FB1D1B782B
:1009A0009BB2044A1900100000F085FEC046BD4607
:1009B00002B080BD0038014080B582B000AFFB1CA2
:1009C00000221A70BB1C00221A70FFF722FE3A2088
:1009D000FFF7D6FF00237B6015E0124A7B68D3182F
:1009E0001B78BA1CF91C180000F032FBFB1C1B78AA
:1009F0001800FFF7C5FFBB1C1B781800FFF7C0FFEE
:100A00007B6801337B60084B1B881A007B689A4225
:100A1000E3DC0A20FFF7B4FFFFF7EEFDC046BD465A
:100A200002B080BD100100202400002090B58BB0E2
:100A300000AF3E4B3B621E23FC183C4B06211800C6
:100A4000FFF788FD030023803B6A9A79DB791B025C
:100A500013439BB21E22BA1812889A4261D13B6A94
:100A60001A785B781B0213439AB23B001A803B6AE8
:100A70009A783B009A703B6ADA783B00DA703B6AFE
:100A80001A795B791B0213439AB23B009A80284B78
:100A90001A683B00063311040C0C19880020014031
:100AA000081C211C01431980100C5A8800210A409F
:100AB000111C021C0A435A801E4B1A883B005A81A3
:100AC0001D4B1A683B00DA601C4B1A683B001A6128
:100AD0001B4B1A683B005A611A4B1A683B009A611B
:100AE0003B001C211800FFF735FD03001A003B00F6
:100AF0009A8300237B620BE03A007B6AD318197853
:100B00000A4A7B6AD3180A1C1A707B6A01337B621B
:100B10007B6A1D2BF0D90C4B1E221A80FFF74CFF6D
:100B200000E0C046BD460BB090BDC046100100209D
:100B3000280000202C00002030000020340000207D
:100B4000380000203C0000202400002090B58BB02D
:100B500000AF654B3B621E23FC18634B1C21180041
:100B6000FFF7F8FC030023803B6A1A7F5B7F1B02C0
:100B700013439BB21E22BA1812889A4200D0AFE0EB
:100B80003B6A9A79D97909020A43197A09040A4316
:100B90005B7A1B0613431A00544B1A603B6A9A7A1D
:100BA000DB7A1B0213439AB2514B1A803B6A1A7BC1
:100BB000597B09020A43997B09040A43DB7B1B0624
:100BC00013431A004B4B1A603B6A1A7C597C09028A
:100BD0000A43997C09040A43DB7C1B0613431A0071
:100BE000454B1A603B6A1A7D597D09020A43997D7B
:100BF00009040A43DB7D1B0613431A003F4B1A60AE
:100C00003B6A1A7E597E09020A43997E09040A4307
:100C1000DB7E1B0613431A00394B1A603B6A1A78B5
:100C20005B781B0213439AB23B001A803B6A9A78A6
:100C30003B009A703B6ADA783B00DA703B6A1A79BB
:100C40005B791B0213439AB23B009A80274B1A68C8
:100C50003B00063311040C0C198800200140081CCD
:100C6000211C01431980100C5A8800210A40111CD4
:100C7000021C0A435A801E4B1A883B005A811D4BA6
:100C80001A683B00DA601C4B1A683B001A611B4B68
:100C90001A683B005A611A4B1A683B009A613B0084
:100CA0001C211800FFF756FC03001A003B009A8332
:100CB00000237B620BE03A007B6AD31819780A4A5A
:100CC0007B6AD3180A1C1A707B6A01337B627B6AC9
:100CD0001D2BF0D90B4B1E221A80FFF76DFE00E092
:100CE000C046BD460BB090BD10010020280000207A
:100CF0002C000020300000203400002038000020AC
:100D00003C0000202400002090B587B000AF2D4BA0
:100D10003B610E23FC182B4B08211800FFF71AFC2F
:100D2000030023803B691A7A5B7A1B0213439BB250
:100D30000E22BA1812889A4240D13B691A785B7821
:100D40001B0213439AB23B1D1A803B699A783B1DE4
:100D50009A703B69DA783B1DDA703B691A795B79E6
:100D60001B0213439AB23B1D9A803B699A79DB7947
:100D70001B0213439AB23B1DDA803B1D0821180069
:100D8000FFF7E8FB03001A003B1D1A8100237B617B
:100D90000BE03A1D7B69D31819780A4A7B69D3188E
:100DA0000A1C1A707B6901337B617B69092BF0D9BE
:100DB000054B0A221A80FFF7FFFD00E0C046BD4642
:100DC00007B090BD100100202400002090B587B02E
:100DD00000AF2D4B3B610E23FC182B4B0821180054
:100DE000FFF7B8FB030023803B691A7A5B7A1B028A
:100DF00013439BB20E22BA1812889A4240D13B6923
:100E00001A785B781B0213439AB23B1D1A803B6928
:100E10009A783B1D9A703B69DA783B1DDA703B6922
:100E20001A795B791B0213439AB23B1D9A803B6986
:100E30009A79DB791B0213439AB23B1DDA803B1D82
:100E400008211800FFF786FB03001A003B1D1A81DA
:100E500000237B610BE03A1D7B69D31819780A4A9D
:100E60007B69D3180A1C1A707B6901337B617B692B
:100E7000092BF0D9054B0A221A80FFF79DFD00E0EF
:100E8000C046BD4607B090BD1001002024000020E0
:100E900080B584B000AF0200FB1D1A70BB1D0A1C98
:100EA0001A700F23FB1800221A700E23FB18002261
:100EB0001A70FB1D1B78303B162B54D89A00624BDE
:100EC000D3181B689F460F23FB1800221A704BE0B3
:100ED0000F23FB1801221A7046E00F23FB18022291
:100EE0001A7041E00F23FB1803221A703CE00F2315
:100EF000FB1804221A7037E00F23FB1805221A7022
:100F000032E00F23FB1806221A702DE00F23FB1886
:100F100007221A7028E00F23FB1808221A7023E01A
:100F20000F23FB1809221A701EE00F23FB180A2258
:100F30001A7019E00F23FB180B221A7014E00F230C
:100F4000FB180C221A700FE00F23FB180D221A70E9
:100F50000AE00F23FB180E221A7005E00F23FB187E
:100F60000F221A7000E0C046BB1D1B78303B162BC9
:100F700054D89A00354BD3181B689F460E23FB1894
:100F800000221A704BE00E23FB1801221A7046E073
:100F90000E23FB1802221A7041E00E23FB180322D5
:100FA0001A703CE00E23FB1804221A7037E00E235F
:100FB000FB1805221A7032E00E23FB1806221A7065
:100FC0002DE00E23FB1807221A7028E00E23FB18D1
:100FD00008221A7023E00E23FB1809221A701EE063
:100FE0000E23FB180A221A7019E00E23FB180B229D
:100FF0001A7014E00E23FB180C221A700FE00E2357
:10100000FB180D221A700AE00E23FB180E221A702C
:1010100005E00E23FB180F221A7000E0C0460F23D4
:10102000FB181B781B015AB20E23FB181B785BB20E
:1010300013435AB20D23FB181A700D23FB181B78AB
:101040001800BD4604B080BD701A0008CC1A000814
:1010500080B586B000AFB9607A600F23FB18021C20
:101060001A701723FB180F22BA18127812091A7077
:101070001623FB180F22BA1812780F210A401A7093
:101080001723FB181B780F2B44D89A00494BD31811
:101090001B689F46BB6830221A703CE0BB68312257
:1010A0001A7038E0BB6832221A7034E0BB68332211
:1010B0001A7030E0BB6834221A702CE0BB6835220D
:1010C0001A7028E0BB6836221A7024E0BB68372209
:1010D0001A7020E0BB6838221A701CE0BB68392205
:1010E0001A7018E0BB6841221A7014E0BB684222F3
:1010F0001A7010E0BB6843221A700CE0BB684422EF
:101100001A7008E0BB6845221A7004E0BB684622EA
:101110001A7000E0C0461623FB181B780F2B44D82A
:101120009A00254BD3181B689F467B6830221A70A3
:101130003CE07B6831221A7038E07B6832221A70FA
:1011400034E07B6833221A7030E07B6834221A70F6
:101150002CE07B6835221A7028E07B6836221A70F2
:1011600024E07B6837221A7020E07B6838221A70EE
:101170001CE07B6839221A7018E07B6841221A70E3
:1011800014E07B6842221A7010E07B6843221A70D8
:101190000CE07B6844221A7008E07B6845221A70D4
:1011A00004E07B6846221A7000E0C046C046BD4697
:1011B00006B080BD281B0008681B000880B500AF82
:1011C00062B6084B1A68FA239900100000F0C4FBBD
:1011D00003001800FFF72AF9FFF728FAFFF794FA3F
:1011E000FEE7C046100000200C488546002103E0C1
:1011F0000B4B5B58435004310A480B4B42189A4240
:10120000F6D30A4A02E0002313600432084B9A42E4
:10121000F9D300F011F8FFF7D1FFFEE7001000202E
:10122000A81B00080000002024000020240000204B
:10123000D8010020FEE7000080B500AF1B4B1B4A21
:10124000126801210A431A60184B184A526818495B
:101250000A405A60154B154A126816490A401A602E
:10126000124B124A126814490A401A600F4B0F4A77
:10127000526812490A405A600C4B0C4AD26A0F213C
:101280008A43DA62094B094A126B0D490A401A6314
:10129000064B064A526B01218A435A63034B0022D4
:1012A0009A6000F00FF8C046BD4680BD00100240B5
:1012B0000CB8FF08FFFFF6FEFFFFFBFFFFFFC0FFBC
:1012C000ACFEFFFF80B582B000AF00237B6000233F
:1012D0003B60314B304A1268802149020A431A6050
:1012E0002D4B1A6880239B0213403B607B680133BF
:1012F0007B603B68002B04D17A68A023DB019A4213
:10130000EED1254B1A6880239B02134002D00123A3
:101310003B6001E000233B603B68012B38D11F4B51
:1013200011221A601C4B1C4A52685A601A4B1A4A06
:1013300052685A60184B184A526819490A405A6054
:10134000154B154A5268882149030A435A60124BCB
:10135000114A1268802149040A431A60C0460E4BA4
:101360001A6880239B041340F9D00B4B0A4A526839
:1013700003218A435A60084B074A526802210A43F4
:101380005A60C046044B5B680C221340082BF9D10D
:10139000C046BD4602B080BD0010024000200240A1
:1013A000FFFFC0FF80B586B000AF786039600023D2
:1013B0007B6100233B610023FB6000237B617CE0B9
:1013C00001227B699A4013003B613B681B683A69C4
:1013D0001340FB60FA683B699A426BD13B681B790A
:1013E000012B03D03B681B79022B34D17B689B68AF
:1013F0007A695200032191400A00D2431A407B6867
:101400009A607B689A683B685B7919007B695B002E
:1014100099400B001A437B689A607B689B889BB25B
:101420007A6992B2110001228A4092B2D24392B2FA
:1014300013409AB27B689A807B689B889AB23B681B
:101440009B7919007B699BB299400B009BB21343B7
:101450009AB27B689A807B681B687A695200032184
:1014600091400A00D2431A407B681A607B681A6870
:101470003B681B7919007B695B0099400B001A439C
:101480007B681A607B68DB687A6992B2520003213C
:1014900091400A00D2431A407B68DA607B68DA68C0
:1014A0003B68DB7919007B695B0099400B001A43AC
:1014B0007B68DA607B6901337B617B690F2B00D825
:1014C0007EE7C046BD4606B080BD80B582B000AFA5
:1014D00078607B681B8A9BB21800BD4602B080BD55
:1014E00080B582B000AF78600A00BB1C1A80BB1CBC
:1014F0001A887B689A61C046BD4602B080BD80B53F
:1015000082B000AF78600A00BB1C1A807B68BA1CEE
:1015100012881A85C046BD4602B080BD80B58CB029
:1015200000AF786039600023FB620023BB620023B8
:101530007B627B681B68012293431A007B681A60F8
:101540007B685B687B627B6A474A13407B623B68CF
:101550009B687A6A13437B627B687A6A5A607B680D
:101560001B687B627B6A414A13407B623B685A6816
:101570003B68DB681A433B681B6913437A6A134371
:101580007B627B687A6A1A607B689B687B627B6A95
:10159000374A13407B623B685B697A6A13437B621C
:1015A0007B687A6A9A600823FB181800FEF78AFDA8
:1015B0007B68304A934204D10823FB189B69BB62C5
:1015C00003E00823FB189B68BB627B681A688023D2
:1015D0001B02134014D0BB6A5A003B681B681900F9
:1015E000100000F0B9F90300FB62BB6A5A003B68C7
:1015F0001B681900100000F035FA0B007B6210E048
:101600003B681B681900B86A00F0A6F90300FB628A
:101610003B681A68BB6A1100180000F023FA0B003F
:101620007B623B681B685A087B6A9A4202D8FB6A55
:101630000133FB627B681A6880231B0213400AD0C7
:10164000FB6A5B08072213407B62FB6A0A4A1A4066
:101650007B6A1343FB62FB6A9AB27B689A81C0463D
:10166000BD460CB080BDC046FFCFFFFFF3E9FFFFD2
:10167000FFFCFFFF00380140F0FF000080B582B0A2
:1016800000AF78600A00FB1C1A70FB1C1B78002B53
:1016900006D07B681B6801221A437B681A6006E04B
:1016A0007B681B68012293431A007B681A60C0465E
:1016B000BD4602B080BD80B582B000AF78600A0040
:1016C000BB1C1A80BB1C1B88DB05DB0D9AB27B6838
:1016D0001A85C046BD4602B080BD80B582B000AF5D
:1016E00078607B689B8C9BB2DB05DB0D9BB218009E
:1016F000BD4602B080BD80B588B000AFF860B9606B
:10170000FB1D1A700023BB6100237B6100233B613A
:101710000023FB61FB68FB61BB689BB21B0A9BB2A9
:10172000BB61BB68FF2213407B6101227B699A4049
:1017300013003B61BB69022B03D1FB690433FB61DE
:1017400005E0BB69032B02D1FB690833FB61FB1D7C
:101750001B78002B06D0FB69FA6911683A690A43C5
:101760001A6006E0FB69FA6912683969C9430A40E0
:101770001A60C046BD4608B080BD80B584B000AFD9
:10178000786039600F23FB1800221A707B68DB69D0
:101790003A68134004D00F23FB1801221A7003E0AB
:1017A0000F23FB1800221A700F23FB181B78180058
:1017B000BD4604B080BD80B582B000AF78603960AE
:1017C0007B683A681A62C046BD4602B080BD80B5EB
:1017D00086B000AF786039600023FB6000237B6136
:1017E0000023BB601323FB1800221A703B689BB2D6
:1017F0001B0A9BB2BB603B68FF2213407B61012246
:101800007B699A4013007B61BB68012B05D17B6823
:101810001A687B6913407B610DE0BB68022B05D120
:101820007B685A687B6913407B6104E07B689A6837
:101830007B6913407B613B681B0CFB600122FB68EA
:101840009A401300FB607B68DA69FB681340FB6019
:101850007B69002B07D0FB68002B04D01323FB18F7
:1018600001221A7003E01323FB1800221A701323BD
:10187000FB181B781800BD4606B080BD80B584B04B
:1018800000AF786039600023FB600023BB603B68D9
:101890001B0CFB600122FB689A401300BB607B6855
:1018A000BA681A62C046BD4604B080BD80B584B037
:1018B00000AF78600023FB607B689B78002B39D0F9
:1018C000244A7B681B789B08DBB2C0339B009B5883
:1018D000FB607B681B781A0003231340DB00FF22A8
:1018E0009A401300DA43FB681340FB607B685B7827
:1018F0009B01FF221A407B681B78190003230B40D1
:10190000DB009A401300FA681343FB6011497B68BF
:101910001B789B08DBB2C0339B00FA685A500D4B12
:101920007A68127811001F220A40012191400A00B2
:101930001A600AE007497B681B781A001F231340CE
:1019400001229A40130080228B50C046BD4604B04D
:1019500080BDC04600E100E0002243088B4274D302
:1019600003098B425FD3030A8B4244D3030B8B42A0
:1019700028D3030C8B420DD3FF22090212BA030CA9
:101980008B4202D31212090265D0030B8B4219D38A
:1019900000E0090AC30B8B4201D3CB03C01A5241AA
:1019A000830B8B4201D38B03C01A5241430B8B42F2
:1019B00001D34B03C01A5241030B8B4201D30B03DB
:1019C000C01A5241C30A8B4201D3CB02C01A524102
:1019D000830A8B4201D38B02C01A5241430A8B42C5
:1019E00001D34B02C01A5241030A8B4201D30B02AE
:1019F000C01A5241CDD2C3098B4201D3CB01C01AC8
:101A0000524183098B4201D38B01C01A52414309D1
:101A10008B4201D34B01C01A524103098B4201D3BF
:101A20000B01C01A5241C3088B4201D3CB00C01A2C
:101A3000524183088B4201D38B00C01A52414308A4
:101A40008B4201D34B00C01A5241411A00D20146C9
:101A5000524110467047FFE701B5002000F006F83C
:101A600002BDC0460029F7D076E770477047C046F0
:101A7000C60E0008D00E0008DA0E0008E40E0008BA
:101A8000EE0E0008F80E0008020F00080C0F000808
:101A9000160F0008200F0008660F0008660F0008E8
:101AA000660F0008660F0008660F0008660F000842
:101AB000660F00082A0F0008340F00083E0F0008C8
:101AC000480F0008520F00085C0F00087C0F000848
:101AD000860F0008900F00089A0F0008A40F000856
:101AE000AE0F0008B80F0008C20F0008CC0F0008A6
:101AF000D60F00081C1000081C1000081C1000085D
:101B00001C1000081C1000081C1000081C10000805
:101B1000E00F0008EA0F0008F40F0008FE0F0008AD
:101B20000810000812100008941000089C1000080B
:101B3000A4100008AC100008B4100008BC10000885
:101B4000C4100008CC100008D4100008DC100008F5
:101B5000E4100008EC100008F4100008FC10000865
:101B6000041100080C1100082A11000832110008A5
:101B70003A110008421100084A11000852110008E9
:101B80005A110008621100086A1100087211000859
:101B90007A110008821100088A11000892110008C9
:081BA0009A110008A2110008CF
:101BA80000000000010203040102030406070809FB
:101BB800006CDC02000000000000000001020304C9
:041BC80006070809FB
:0400000508000000EF
:00000001FF
